{
  "_format": "hh-sol-artifact-1",
  "contractName": "AppleToken",
  "sourceName": "contracts/AppleToken.sol",
  "abi": [
    {
      "inputs": [
        {
          "internalType": "address",
          "name": "pythContract",
          "type": "address"
        }
      ],
      "stateMutability": "payable",
      "type": "constructor"
    },
    {
      "inputs": [
        {
          "internalType": "address",
          "name": "spender",
          "type": "address"
        },
        {
          "internalType": "uint256",
          "name": "allowance",
          "type": "uint256"
        },
        {
          "internalType": "uint256",
          "name": "needed",
          "type": "uint256"
        }
      ],
      "name": "ERC20InsufficientAllowance",
      "type": "error"
    },
    {
      "inputs": [
        {
          "internalType": "address",
          "name": "sender",
          "type": "address"
        },
        {
          "internalType": "uint256",
          "name": "balance",
          "type": "uint256"
        },
        {
          "internalType": "uint256",
          "name": "needed",
          "type": "uint256"
        }
      ],
      "name": "ERC20InsufficientBalance",
      "type": "error"
    },
    {
      "inputs": [
        {
          "internalType": "address",
          "name": "approver",
          "type": "address"
        }
      ],
      "name": "ERC20InvalidApprover",
      "type": "error"
    },
    {
      "inputs": [
        {
          "internalType": "address",
          "name": "receiver",
          "type": "address"
        }
      ],
      "name": "ERC20InvalidReceiver",
      "type": "error"
    },
    {
      "inputs": [
        {
          "internalType": "address",
          "name": "sender",
          "type": "address"
        }
      ],
      "name": "ERC20InvalidSender",
      "type": "error"
    },
    {
      "inputs": [
        {
          "internalType": "address",
          "name": "spender",
          "type": "address"
        }
      ],
      "name": "ERC20InvalidSpender",
      "type": "error"
    },
    {
      "inputs": [
        {
          "internalType": "address",
          "name": "owner",
          "type": "address"
        }
      ],
      "name": "OwnableInvalidOwner",
      "type": "error"
    },
    {
      "inputs": [
        {
          "internalType": "address",
          "name": "account",
          "type": "address"
        }
      ],
      "name": "OwnableUnauthorizedAccount",
      "type": "error"
    },
    {
      "anonymous": false,
      "inputs": [
        {
          "indexed": true,
          "internalType": "address",
          "name": "owner",
          "type": "address"
        },
        {
          "indexed": true,
          "internalType": "address",
          "name": "spender",
          "type": "address"
        },
        {
          "indexed": false,
          "internalType": "uint256",
          "name": "value",
          "type": "uint256"
        }
      ],
      "name": "Approval",
      "type": "event"
    },
    {
      "anonymous": false,
      "inputs": [
        {
          "indexed": true,
          "internalType": "address",
          "name": "previousOwner",
          "type": "address"
        },
        {
          "indexed": true,
          "internalType": "address",
          "name": "newOwner",
          "type": "address"
        }
      ],
      "name": "OwnershipTransferred",
      "type": "event"
    },
    {
      "anonymous": false,
      "inputs": [
        {
          "indexed": true,
          "internalType": "address",
          "name": "from",
          "type": "address"
        },
        {
          "indexed": true,
          "internalType": "address",
          "name": "to",
          "type": "address"
        },
        {
          "indexed": false,
          "internalType": "uint256",
          "name": "value",
          "type": "uint256"
        }
      ],
      "name": "Transfer",
      "type": "event"
    },
    {
      "inputs": [],
      "name": "APPLE_FEED_ID",
      "outputs": [
        {
          "internalType": "bytes32",
          "name": "",
          "type": "bytes32"
        }
      ],
      "stateMutability": "view",
      "type": "function"
    },
    {
      "inputs": [],
      "name": "ETH_USD_FEED_ID",
      "outputs": [
        {
          "internalType": "bytes32",
          "name": "",
          "type": "bytes32"
        }
      ],
      "stateMutability": "view",
      "type": "function"
    },
    {
      "inputs": [
        {
          "internalType": "address",
          "name": "owner",
          "type": "address"
        },
        {
          "internalType": "address",
          "name": "spender",
          "type": "address"
        }
      ],
      "name": "allowance",
      "outputs": [
        {
          "internalType": "uint256",
          "name": "",
          "type": "uint256"
        }
      ],
      "stateMutability": "view",
      "type": "function"
    },
    {
      "inputs": [
        {
          "internalType": "address",
          "name": "spender",
          "type": "address"
        },
        {
          "internalType": "uint256",
          "name": "value",
          "type": "uint256"
        }
      ],
      "name": "approve",
      "outputs": [
        {
          "internalType": "bool",
          "name": "",
          "type": "bool"
        }
      ],
      "stateMutability": "nonpayable",
      "type": "function"
    },
    {
      "inputs": [
        {
          "internalType": "address",
          "name": "account",
          "type": "address"
        }
      ],
      "name": "balanceOf",
      "outputs": [
        {
          "internalType": "uint256",
          "name": "",
          "type": "uint256"
        }
      ],
      "stateMutability": "view",
      "type": "function"
    },
    {
      "inputs": [],
      "name": "buyToken",
      "outputs": [],
      "stateMutability": "payable",
      "type": "function"
    },
    {
      "inputs": [],
      "name": "decimals",
      "outputs": [
        {
          "internalType": "uint8",
          "name": "",
          "type": "uint8"
        }
      ],
      "stateMutability": "view",
      "type": "function"
    },
    {
      "inputs": [],
      "name": "depositPool",
      "outputs": [],
      "stateMutability": "payable",
      "type": "function"
    },
    {
      "inputs": [],
      "name": "name",
      "outputs": [
        {
          "internalType": "string",
          "name": "",
          "type": "string"
        }
      ],
      "stateMutability": "view",
      "type": "function"
    },
    {
      "inputs": [],
      "name": "owner",
      "outputs": [
        {
          "internalType": "address",
          "name": "",
          "type": "address"
        }
      ],
      "stateMutability": "view",
      "type": "function"
    },
    {
      "inputs": [],
      "name": "pyth",
      "outputs": [
        {
          "internalType": "contract IPyth",
          "name": "",
          "type": "address"
        }
      ],
      "stateMutability": "view",
      "type": "function"
    },
    {
      "inputs": [],
      "name": "renounceOwnership",
      "outputs": [],
      "stateMutability": "nonpayable",
      "type": "function"
    },
    {
      "inputs": [
        {
          "internalType": "uint256",
          "name": "tokenAmount",
          "type": "uint256"
        }
      ],
      "name": "sellToken",
      "outputs": [],
      "stateMutability": "nonpayable",
      "type": "function"
    },
    {
      "inputs": [],
      "name": "symbol",
      "outputs": [
        {
          "internalType": "string",
          "name": "",
          "type": "string"
        }
      ],
      "stateMutability": "view",
      "type": "function"
    },
    {
      "inputs": [
        {
          "components": [
            {
              "internalType": "int64",
              "name": "price",
              "type": "int64"
            },
            {
              "internalType": "uint64",
              "name": "conf",
              "type": "uint64"
            },
            {
              "internalType": "int32",
              "name": "expo",
              "type": "int32"
            },
            {
              "internalType": "uint256",
              "name": "publishTime",
              "type": "uint256"
            }
          ],
          "internalType": "struct PythStructs.Price",
          "name": "p",
          "type": "tuple"
        }
      ],
      "name": "testNormalizePrice",
      "outputs": [
        {
          "internalType": "uint256",
          "name": "",
          "type": "uint256"
        }
      ],
      "stateMutability": "pure",
      "type": "function"
    },
    {
      "inputs": [],
      "name": "totalSupply",
      "outputs": [
        {
          "internalType": "uint256",
          "name": "",
          "type": "uint256"
        }
      ],
      "stateMutability": "view",
      "type": "function"
    },
    {
      "inputs": [
        {
          "internalType": "address",
          "name": "to",
          "type": "address"
        },
        {
          "internalType": "uint256",
          "name": "value",
          "type": "uint256"
        }
      ],
      "name": "transfer",
      "outputs": [
        {
          "internalType": "bool",
          "name": "",
          "type": "bool"
        }
      ],
      "stateMutability": "nonpayable",
      "type": "function"
    },
    {
      "inputs": [
        {
          "internalType": "address",
          "name": "from",
          "type": "address"
        },
        {
          "internalType": "address",
          "name": "to",
          "type": "address"
        },
        {
          "internalType": "uint256",
          "name": "value",
          "type": "uint256"
        }
      ],
      "name": "transferFrom",
      "outputs": [
        {
          "internalType": "bool",
          "name": "",
          "type": "bool"
        }
      ],
      "stateMutability": "nonpayable",
      "type": "function"
    },
    {
      "inputs": [
        {
          "internalType": "address",
          "name": "newOwner",
          "type": "address"
        }
      ],
      "name": "transferOwnership",
      "outputs": [],
      "stateMutability": "nonpayable",
      "type": "function"
    },
    {
      "stateMutability": "payable",
      "type": "receive"
    }
  ],
  "bytecode": "0x6080604052604051612ad9380380612ad9833981810160405281019061002591906102e9565b336040518060400160405280600a81526020017f4170706c65546f6b656e000000000000000000000000000000000000000000008152506040518060400160405280600581526020017f504141504c00000000000000000000000000000000000000000000000000000081525081600390816100a19190610566565b5080600490816100b19190610566565b505050600073ffffffffffffffffffffffffffffffffffffffff168173ffffffffffffffffffffffffffffffffffffffff16036101265760006040517f1e4fbdf700000000000000000000000000000000000000000000000000000000815260040161011d9190610647565b60405180910390fd5b610135816101c060201b60201c565b5060003411610179576040517f08c379a0000000000000000000000000000000000000000000000000000000008152600401610170906106bf565b60405180910390fd5b80600660006101000a81548173ffffffffffffffffffffffffffffffffffffffff021916908373ffffffffffffffffffffffffffffffffffffffff160217905550506106df565b6000600560009054906101000a900473ffffffffffffffffffffffffffffffffffffffff16905081600560006101000a81548173ffffffffffffffffffffffffffffffffffffffff021916908373ffffffffffffffffffffffffffffffffffffffff1602179055508173ffffffffffffffffffffffffffffffffffffffff168173ffffffffffffffffffffffffffffffffffffffff167f8be0079c531659141344cd1fd0a4f28419497f9722a3daafe3b4186f6b6457e060405160405180910390a35050565b600080fd5b600073ffffffffffffffffffffffffffffffffffffffff82169050919050565b60006102b68261028b565b9050919050565b6102c6816102ab565b81146102d157600080fd5b50565b6000815190506102e3816102bd565b92915050565b6000602082840312156102ff576102fe610286565b5b600061030d848285016102d4565b91505092915050565b600081519050919050565b7f4e487b7100000000000000000000000000000000000000000000000000000000600052604160045260246000fd5b7f4e487b7100000000000000000000000000000000000000000000000000000000600052602260045260246000fd5b6000600282049050600182168061039757607f821691505b6020821081036103aa576103a9610350565b5b50919050565b60008190508160005260206000209050919050565b60006020601f8301049050919050565b600082821b905092915050565b6000600883026104127fffffffffffffffffffffffffffffffffffffffffffffffffffffffffffffffff826103d5565b61041c86836103d5565b95508019841693508086168417925050509392505050565b6000819050919050565b6000819050919050565b600061046361045e61045984610434565b61043e565b610434565b9050919050565b6000819050919050565b61047d83610448565b6104916104898261046a565b8484546103e2565b825550505050565b600090565b6104a6610499565b6104b1818484610474565b505050565b5b818110156104d5576104ca60008261049e565b6001810190506104b7565b5050565b601f82111561051a576104eb816103b0565b6104f4846103c5565b81016020851015610503578190505b61051761050f856103c5565b8301826104b6565b50505b505050565b600082821c905092915050565b600061053d6000198460080261051f565b1980831691505092915050565b6000610556838361052c565b9150826002028217905092915050565b61056f82610316565b67ffffffffffffffff81111561058857610587610321565b5b610592825461037f565b61059d8282856104d9565b600060209050601f8311600181146105d057600084156105be578287015190505b6105c8858261054a565b865550610630565b601f1984166105de866103b0565b60005b82811015610606578489015182556001820191506020850194506020810190506105e1565b86831015610623578489015161061f601f89168261052c565b8355505b6001600288020188555050505b505050505050565b610641816102ab565b82525050565b600060208201905061065c6000830184610638565b92915050565b600082825260208201905092915050565b7f4d75737420696e697469616c697a6520776974682045544820706f6f6c000000600082015250565b60006106a9601d83610662565b91506106b482610673565b602082019050919050565b600060208201905081810360008301526106d88161069c565b9050919050565b6123eb806106ee6000396000f3fe6080604052600436106101185760003560e01c8063715018a6116100a0578063a9059cbb11610064578063a9059cbb1461035c578063d9540b7714610399578063dd62ed3e146103d6578063f2fde38b14610413578063f98d06f01461043c5761011f565b8063715018a6146102ba5780638da5cb5b146102d157806395d89b41146102fc578063966a670914610327578063a4821719146103525761011f565b806323b872dd116100e757806323b872dd146101e05780632a3437091461021d578063313ce56714610227578063457f78fa1461025257806370a082311461027d5761011f565b806306fdde0314610124578063095ea7b31461014f57806318160ddd1461018c5780632397e4d7146101b75761011f565b3661011f57005b600080fd5b34801561013057600080fd5b50610139610467565b6040516101469190611650565b60405180910390f35b34801561015b57600080fd5b5061017660048036038101906101719190611715565b6104f9565b6040516101839190611770565b60405180910390f35b34801561019857600080fd5b506101a161051c565b6040516101ae919061179a565b60405180910390f35b3480156101c357600080fd5b506101de60048036038101906101d991906117b5565b610526565b005b3480156101ec57600080fd5b50610207600480360381019061020291906117e2565b6106e2565b6040516102149190611770565b60405180910390f35b610225610711565b005b34801561023357600080fd5b5061023c610756565b6040516102499190611851565b60405180910390f35b34801561025e57600080fd5b5061026761075f565b6040516102749190611885565b60405180910390f35b34801561028957600080fd5b506102a4600480360381019061029f91906118a0565b610786565b6040516102b1919061179a565b60405180910390f35b3480156102c657600080fd5b506102cf6107ce565b005b3480156102dd57600080fd5b506102e66107e2565b6040516102f391906118dc565b60405180910390f35b34801561030857600080fd5b5061031161080c565b60405161031e9190611650565b60405180910390f35b34801561033357600080fd5b5061033c61089e565b6040516103499190611885565b60405180910390f35b61035a6108c5565b005b34801561036857600080fd5b50610383600480360381019061037e9190611715565b610945565b6040516103909190611770565b60405180910390f35b3480156103a557600080fd5b506103c060048036038101906103bb9190611aa1565b610968565b6040516103cd919061179a565b60405180910390f35b3480156103e257600080fd5b506103fd60048036038101906103f89190611ace565b61097a565b60405161040a919061179a565b60405180910390f35b34801561041f57600080fd5b5061043a600480360381019061043591906118a0565b610a01565b005b34801561044857600080fd5b50610451610a87565b60405161045e9190611b6d565b60405180910390f35b60606003805461047690611bb7565b80601f01602080910402602001604051908101604052809291908181526020018280546104a290611bb7565b80156104ef5780601f106104c4576101008083540402835291602001916104ef565b820191906000526020600020905b8154815290600101906020018083116104d257829003601f168201915b5050505050905090565b600080610504610aad565b9050610511818585610ab5565b600191505092915050565b6000600254905090565b60008111610569576040517f08c379a000000000000000000000000000000000000000000000000000000000815260040161056090611c34565b60405180910390fd5b8061057333610786565b10156105b4576040517f08c379a00000000000000000000000000000000000000000000000000000000081526004016105ab90611ca0565b60405180910390fd5b60006105be610ac7565b90506000670de0b6b3a764000082846105d79190611cef565b6105e19190611d60565b905080471015610626576040517f08c379a000000000000000000000000000000000000000000000000000000000815260040161061d90611ddd565b60405180910390fd5b6106303384610c96565b60003373ffffffffffffffffffffffffffffffffffffffff168260405161065690611e2e565b60006040518083038185875af1925050503d8060008114610693576040519150601f19603f3d011682016040523d82523d6000602084013e610698565b606091505b50509050806106dc576040517f08c379a00000000000000000000000000000000000000000000000000000000081526004016106d390611e8f565b60405180910390fd5b50505050565b6000806106ed610aad565b90506106fa858285610d18565b610705858585610dad565b60019150509392505050565b60003411610754576040517f08c379a000000000000000000000000000000000000000000000000000000000815260040161074b90611efb565b60405180910390fd5b565b60006012905090565b7f49f6b65cb1de6b10eaf75e7c03ca029c306d0357e91b5311b175084a5ad5568860001b81565b60008060008373ffffffffffffffffffffffffffffffffffffffff1673ffffffffffffffffffffffffffffffffffffffff168152602001908152602001600020549050919050565b6107d6610ea1565b6107e06000610f28565b565b6000600560009054906101000a900473ffffffffffffffffffffffffffffffffffffffff16905090565b60606004805461081b90611bb7565b80601f016020809104026020016040519081016040528092919081815260200182805461084790611bb7565b80156108945780601f1061086957610100808354040283529160200191610894565b820191906000526020600020905b81548152906001019060200180831161087757829003601f168201915b5050505050905090565b7fff61491a931112ddf1bd8147cd1b641375f79f5825126d665480874634fd0ace60001b81565b60003411610908576040517f08c379a00000000000000000000000000000000000000000000000000000000081526004016108ff90611f67565b60405180910390fd5b6000610912610ac7565b9050600081670de0b6b3a76400003461092b9190611cef565b6109359190611d60565b90506109413382610fee565b5050565b600080610950610aad565b905061095d818585610dad565b600191505092915050565b600061097382611070565b9050919050565b6000600160008473ffffffffffffffffffffffffffffffffffffffff1673ffffffffffffffffffffffffffffffffffffffff16815260200190815260200160002060008373ffffffffffffffffffffffffffffffffffffffff1673ffffffffffffffffffffffffffffffffffffffff16815260200190815260200160002054905092915050565b610a09610ea1565b600073ffffffffffffffffffffffffffffffffffffffff168173ffffffffffffffffffffffffffffffffffffffff1603610a7b5760006040517f1e4fbdf7000000000000000000000000000000000000000000000000000000008152600401610a7291906118dc565b60405180910390fd5b610a8481610f28565b50565b600660009054906101000a900473ffffffffffffffffffffffffffffffffffffffff1681565b600033905090565b610ac283838360016111c4565b505050565b600080600660009054906101000a900473ffffffffffffffffffffffffffffffffffffffff1673ffffffffffffffffffffffffffffffffffffffff1663a4ae35e07f49f6b65cb1de6b10eaf75e7c03ca029c306d0357e91b5311b175084a5ad5568860001b603c6040518363ffffffff1660e01b8152600401610b4b929190611fc2565b608060405180830381865afa158015610b68573d6000803e3d6000fd5b505050506040513d601f19601f82011682018060405250810190610b8c91906120b7565b90506000600660009054906101000a900473ffffffffffffffffffffffffffffffffffffffff1673ffffffffffffffffffffffffffffffffffffffff1663a4ae35e07fff61491a931112ddf1bd8147cd1b641375f79f5825126d665480874634fd0ace60001b603c6040518363ffffffff1660e01b8152600401610c11929190611fc2565b608060405180830381865afa158015610c2e573d6000803e3d6000fd5b505050506040513d601f19601f82011682018060405250810190610c5291906120b7565b90506000610c5f83611070565b90506000610c6c83611070565b905080670de0b6b3a764000083610c839190611cef565b610c8d9190611d60565b94505050505090565b600073ffffffffffffffffffffffffffffffffffffffff168273ffffffffffffffffffffffffffffffffffffffff1603610d085760006040517f96c6fd1e000000000000000000000000000000000000000000000000000000008152600401610cff91906118dc565b60405180910390fd5b610d148260008361139b565b5050565b6000610d24848461097a565b90507fffffffffffffffffffffffffffffffffffffffffffffffffffffffffffffffff811015610da75781811015610d97578281836040517ffb8f41b2000000000000000000000000000000000000000000000000000000008152600401610d8e939291906120e4565b60405180910390fd5b610da6848484840360006111c4565b5b50505050565b600073ffffffffffffffffffffffffffffffffffffffff168373ffffffffffffffffffffffffffffffffffffffff1603610e1f5760006040517f96c6fd1e000000000000000000000000000000000000000000000000000000008152600401610e1691906118dc565b60405180910390fd5b600073ffffffffffffffffffffffffffffffffffffffff168273ffffffffffffffffffffffffffffffffffffffff1603610e915760006040517fec442f05000000000000000000000000000000000000000000000000000000008152600401610e8891906118dc565b60405180910390fd5b610e9c83838361139b565b505050565b610ea9610aad565b73ffffffffffffffffffffffffffffffffffffffff16610ec76107e2565b73ffffffffffffffffffffffffffffffffffffffff1614610f2657610eea610aad565b6040517f118cdaa7000000000000000000000000000000000000000000000000000000008152600401610f1d91906118dc565b60405180910390fd5b565b6000600560009054906101000a900473ffffffffffffffffffffffffffffffffffffffff16905081600560006101000a81548173ffffffffffffffffffffffffffffffffffffffff021916908373ffffffffffffffffffffffffffffffffffffffff1602179055508173ffffffffffffffffffffffffffffffffffffffff168173ffffffffffffffffffffffffffffffffffffffff167f8be0079c531659141344cd1fd0a4f28419497f9722a3daafe3b4186f6b6457e060405160405180910390a35050565b600073ffffffffffffffffffffffffffffffffffffffff168273ffffffffffffffffffffffffffffffffffffffff16036110605760006040517fec442f0500000000000000000000000000000000000000000000000000000000815260040161105791906118dc565b60405180910390fd5b61106c6000838361139b565b5050565b600080826000015160070b12156110bc576040517f08c379a00000000000000000000000000000000000000000000000000000000081526004016110b390612167565b60405180910390fd5b6000826000015167ffffffffffffffff16905060008360400151905060008160030b1215611158576000816110f090612187565b63ffffffff169050601281116111295780601261110d91906121cf565b600a6111199190612336565b836111249190611cef565b61114e565b60128161113691906121cf565b600a6111429190612336565b8361114d9190611d60565b5b93505050506111bf565b60008163ffffffff169050601281116111945780601261117891906121cf565b600a6111849190612336565b8361118f9190611cef565b6111b9565b6012816111a191906121cf565b600a6111ad9190612336565b836111b89190611d60565b5b93505050505b919050565b600073ffffffffffffffffffffffffffffffffffffffff168473ffffffffffffffffffffffffffffffffffffffff16036112365760006040517fe602df0500000000000000000000000000000000000000000000000000000000815260040161122d91906118dc565b60405180910390fd5b600073ffffffffffffffffffffffffffffffffffffffff168373ffffffffffffffffffffffffffffffffffffffff16036112a85760006040517f94280d6200000000000000000000000000000000000000000000000000000000815260040161129f91906118dc565b60405180910390fd5b81600160008673ffffffffffffffffffffffffffffffffffffffff1673ffffffffffffffffffffffffffffffffffffffff16815260200190815260200160002060008573ffffffffffffffffffffffffffffffffffffffff1673ffffffffffffffffffffffffffffffffffffffff168152602001908152602001600020819055508015611395578273ffffffffffffffffffffffffffffffffffffffff168473ffffffffffffffffffffffffffffffffffffffff167f8c5be1e5ebec7d5bd14f71427d1e84f3dd0314c0f7b2291e5b200ac8c7c3b9258460405161138c919061179a565b60405180910390a35b50505050565b600073ffffffffffffffffffffffffffffffffffffffff168373ffffffffffffffffffffffffffffffffffffffff16036113ed5780600260008282546113e19190612381565b925050819055506114c0565b60008060008573ffffffffffffffffffffffffffffffffffffffff1673ffffffffffffffffffffffffffffffffffffffff16815260200190815260200160002054905081811015611479578381836040517fe450d38c000000000000000000000000000000000000000000000000000000008152600401611470939291906120e4565b60405180910390fd5b8181036000808673ffffffffffffffffffffffffffffffffffffffff1673ffffffffffffffffffffffffffffffffffffffff16815260200190815260200160002081905550505b600073ffffffffffffffffffffffffffffffffffffffff168273ffffffffffffffffffffffffffffffffffffffff16036115095780600260008282540392505081905550611556565b806000808473ffffffffffffffffffffffffffffffffffffffff1673ffffffffffffffffffffffffffffffffffffffff168152602001908152602001600020600082825401925050819055505b8173ffffffffffffffffffffffffffffffffffffffff168373ffffffffffffffffffffffffffffffffffffffff167fddf252ad1be2c89b69c2b068fc378daa952ba7f163c4a11628f55a4df523b3ef836040516115b3919061179a565b60405180910390a3505050565b600081519050919050565b600082825260208201905092915050565b60005b838110156115fa5780820151818401526020810190506115df565b60008484015250505050565b6000601f19601f8301169050919050565b6000611622826115c0565b61162c81856115cb565b935061163c8185602086016115dc565b61164581611606565b840191505092915050565b6000602082019050818103600083015261166a8184611617565b905092915050565b6000604051905090565b600080fd5b600073ffffffffffffffffffffffffffffffffffffffff82169050919050565b60006116ac82611681565b9050919050565b6116bc816116a1565b81146116c757600080fd5b50565b6000813590506116d9816116b3565b92915050565b6000819050919050565b6116f2816116df565b81146116fd57600080fd5b50565b60008135905061170f816116e9565b92915050565b6000806040838503121561172c5761172b61167c565b5b600061173a858286016116ca565b925050602061174b85828601611700565b9150509250929050565b60008115159050919050565b61176a81611755565b82525050565b60006020820190506117856000830184611761565b92915050565b611794816116df565b82525050565b60006020820190506117af600083018461178b565b92915050565b6000602082840312156117cb576117ca61167c565b5b60006117d984828501611700565b91505092915050565b6000806000606084860312156117fb576117fa61167c565b5b6000611809868287016116ca565b935050602061181a868287016116ca565b925050604061182b86828701611700565b9150509250925092565b600060ff82169050919050565b61184b81611835565b82525050565b60006020820190506118666000830184611842565b92915050565b6000819050919050565b61187f8161186c565b82525050565b600060208201905061189a6000830184611876565b92915050565b6000602082840312156118b6576118b561167c565b5b60006118c4848285016116ca565b91505092915050565b6118d6816116a1565b82525050565b60006020820190506118f160008301846118cd565b92915050565b600080fd5b7f4e487b7100000000000000000000000000000000000000000000000000000000600052604160045260246000fd5b61193482611606565b810181811067ffffffffffffffff82111715611953576119526118fc565b5b80604052505050565b6000611966611672565b9050611972828261192b565b919050565b60008160070b9050919050565b61198d81611977565b811461199857600080fd5b50565b6000813590506119aa81611984565b92915050565b600067ffffffffffffffff82169050919050565b6119cd816119b0565b81146119d857600080fd5b50565b6000813590506119ea816119c4565b92915050565b60008160030b9050919050565b611a06816119f0565b8114611a1157600080fd5b50565b600081359050611a23816119fd565b92915050565b600060808284031215611a3f57611a3e6118f7565b5b611a49608061195c565b90506000611a598482850161199b565b6000830152506020611a6d848285016119db565b6020830152506040611a8184828501611a14565b6040830152506060611a9584828501611700565b60608301525092915050565b600060808284031215611ab757611ab661167c565b5b6000611ac584828501611a29565b91505092915050565b60008060408385031215611ae557611ae461167c565b5b6000611af3858286016116ca565b9250506020611b04858286016116ca565b9150509250929050565b6000819050919050565b6000611b33611b2e611b2984611681565b611b0e565b611681565b9050919050565b6000611b4582611b18565b9050919050565b6000611b5782611b3a565b9050919050565b611b6781611b4c565b82525050565b6000602082019050611b826000830184611b5e565b92915050565b7f4e487b7100000000000000000000000000000000000000000000000000000000600052602260045260246000fd5b60006002820490506001821680611bcf57607f821691505b602082108103611be257611be1611b88565b5b50919050565b7f546f6b656e20616d6f756e74206d757374206265203e20300000000000000000600082015250565b6000611c1e6018836115cb565b9150611c2982611be8565b602082019050919050565b60006020820190508181036000830152611c4d81611c11565b9050919050565b7f496e73756666696369656e7420746f6b656e2062616c616e6365000000000000600082015250565b6000611c8a601a836115cb565b9150611c9582611c54565b602082019050919050565b60006020820190508181036000830152611cb981611c7d565b9050919050565b7f4e487b7100000000000000000000000000000000000000000000000000000000600052601160045260246000fd5b6000611cfa826116df565b9150611d05836116df565b9250828202611d13816116df565b91508282048414831517611d2a57611d29611cc0565b5b5092915050565b7f4e487b7100000000000000000000000000000000000000000000000000000000600052601260045260246000fd5b6000611d6b826116df565b9150611d76836116df565b925082611d8657611d85611d31565b5b828204905092915050565b7f496e73756666696369656e74206c697175696469747900000000000000000000600082015250565b6000611dc76016836115cb565b9150611dd282611d91565b602082019050919050565b60006020820190508181036000830152611df681611dba565b9050919050565b600081905092915050565b50565b6000611e18600083611dfd565b9150611e2382611e08565b600082019050919050565b6000611e3982611e0b565b9150819050919050565b7f455448207472616e73666572206661696c656400000000000000000000000000600082015250565b6000611e796013836115cb565b9150611e8482611e43565b602082019050919050565b60006020820190508181036000830152611ea881611e6c565b9050919050565b7f4d7573742073656e642045544800000000000000000000000000000000000000600082015250565b6000611ee5600d836115cb565b9150611ef082611eaf565b602082019050919050565b60006020820190508181036000830152611f1481611ed8565b9050919050565b7f53656e642045544820746f2062757920746f6b656e7300000000000000000000600082015250565b6000611f516016836115cb565b9150611f5c82611f1b565b602082019050919050565b60006020820190508181036000830152611f8081611f44565b9050919050565b6000819050919050565b6000611fac611fa7611fa284611f87565b611b0e565b6116df565b9050919050565b611fbc81611f91565b82525050565b6000604082019050611fd76000830185611876565b611fe46020830184611fb3565b9392505050565b600081519050611ffa81611984565b92915050565b60008151905061200f816119c4565b92915050565b600081519050612024816119fd565b92915050565b600081519050612039816116e9565b92915050565b600060808284031215612055576120546118f7565b5b61205f608061195c565b9050600061206f84828501611feb565b600083015250602061208384828501612000565b602083015250604061209784828501612015565b60408301525060606120ab8482850161202a565b60608301525092915050565b6000608082840312156120cd576120cc61167c565b5b60006120db8482850161203f565b91505092915050565b60006060820190506120f960008301866118cd565b612106602083018561178b565b612113604083018461178b565b949350505050565b7f4e65676174697665207072696365206e6f7420737570706f7274656400000000600082015250565b6000612151601c836115cb565b915061215c8261211b565b602082019050919050565b6000602082019050818103600083015261218081612144565b9050919050565b6000612192826119f0565b91507fffffffffffffffffffffffffffffffffffffffffffffffffffffffff8000000082036121c4576121c3611cc0565b5b816000039050919050565b60006121da826116df565b91506121e5836116df565b92508282039050818111156121fd576121fc611cc0565b5b92915050565b60008160011c9050919050565b6000808291508390505b600185111561225a5780860481111561223657612235611cc0565b5b60018516156122455780820291505b808102905061225385612203565b945061221a565b94509492505050565b600082612273576001905061232f565b81612281576000905061232f565b816001811461229757600281146122a1576122d0565b600191505061232f565b60ff8411156122b3576122b2611cc0565b5b8360020a9150848211156122ca576122c9611cc0565b5b5061232f565b5060208310610133831016604e8410600b84101617156123055782820a905083811115612300576122ff611cc0565b5b61232f565b6123128484846001612210565b9250905081840481111561232957612328611cc0565b5b81810290505b9392505050565b6000612341826116df565b915061234c836116df565b92506123797fffffffffffffffffffffffffffffffffffffffffffffffffffffffffffffffff8484612263565b905092915050565b600061238c826116df565b9150612397836116df565b92508282019050808211156123af576123ae611cc0565b5b9291505056fea2646970667358221220aa50e5d9de6297399b688367f69840501b6a53b72abfbad3923e6c1a3490508664736f6c634300081c0033",
  "linkReferences": {},
  "deployedLinkReferences": {}
}