{
  "contracts/AppleToken.sol": {
    "AppleToken": {
      "abi": [
        {
          "inputs": [
            {
              "internalType": "address",
              "name": "pythContract",
              "type": "address"
            }
          ],
          "stateMutability": "payable",
          "type": "constructor"
        },
        {
          "inputs": [
            {
              "internalType": "address",
              "name": "spender",
              "type": "address"
            },
            {
              "internalType": "uint256",
              "name": "allowance",
              "type": "uint256"
            },
            {
              "internalType": "uint256",
              "name": "needed",
              "type": "uint256"
            }
          ],
          "name": "ERC20InsufficientAllowance",
          "type": "error"
        },
        {
          "inputs": [
            {
              "internalType": "address",
              "name": "sender",
              "type": "address"
            },
            {
              "internalType": "uint256",
              "name": "balance",
              "type": "uint256"
            },
            {
              "internalType": "uint256",
              "name": "needed",
              "type": "uint256"
            }
          ],
          "name": "ERC20InsufficientBalance",
          "type": "error"
        },
        {
          "inputs": [
            {
              "internalType": "address",
              "name": "approver",
              "type": "address"
            }
          ],
          "name": "ERC20InvalidApprover",
          "type": "error"
        },
        {
          "inputs": [
            {
              "internalType": "address",
              "name": "receiver",
              "type": "address"
            }
          ],
          "name": "ERC20InvalidReceiver",
          "type": "error"
        },
        {
          "inputs": [
            {
              "internalType": "address",
              "name": "sender",
              "type": "address"
            }
          ],
          "name": "ERC20InvalidSender",
          "type": "error"
        },
        {
          "inputs": [
            {
              "internalType": "address",
              "name": "spender",
              "type": "address"
            }
          ],
          "name": "ERC20InvalidSpender",
          "type": "error"
        },
        {
          "inputs": [
            {
              "internalType": "address",
              "name": "owner",
              "type": "address"
            }
          ],
          "name": "OwnableInvalidOwner",
          "type": "error"
        },
        {
          "inputs": [
            {
              "internalType": "address",
              "name": "account",
              "type": "address"
            }
          ],
          "name": "OwnableUnauthorizedAccount",
          "type": "error"
        },
        {
          "anonymous": false,
          "inputs": [
            {
              "indexed": true,
              "internalType": "address",
              "name": "owner",
              "type": "address"
            },
            {
              "indexed": true,
              "internalType": "address",
              "name": "spender",
              "type": "address"
            },
            {
              "indexed": false,
              "internalType": "uint256",
              "name": "value",
              "type": "uint256"
            }
          ],
          "name": "Approval",
          "type": "event"
        },
        {
          "anonymous": false,
          "inputs": [
            {
              "indexed": true,
              "internalType": "address",
              "name": "previousOwner",
              "type": "address"
            },
            {
              "indexed": true,
              "internalType": "address",
              "name": "newOwner",
              "type": "address"
            }
          ],
          "name": "OwnershipTransferred",
          "type": "event"
        },
        {
          "anonymous": false,
          "inputs": [
            {
              "indexed": true,
              "internalType": "address",
              "name": "from",
              "type": "address"
            },
            {
              "indexed": true,
              "internalType": "address",
              "name": "to",
              "type": "address"
            },
            {
              "indexed": false,
              "internalType": "uint256",
              "name": "value",
              "type": "uint256"
            }
          ],
          "name": "Transfer",
          "type": "event"
        },
        {
          "inputs": [],
          "name": "APPLE_FEED_ID",
          "outputs": [
            {
              "internalType": "bytes32",
              "name": "",
              "type": "bytes32"
            }
          ],
          "stateMutability": "view",
          "type": "function"
        },
        {
          "inputs": [],
          "name": "ETH_USD_FEED_ID",
          "outputs": [
            {
              "internalType": "bytes32",
              "name": "",
              "type": "bytes32"
            }
          ],
          "stateMutability": "view",
          "type": "function"
        },
        {
          "inputs": [
            {
              "internalType": "address",
              "name": "owner",
              "type": "address"
            },
            {
              "internalType": "address",
              "name": "spender",
              "type": "address"
            }
          ],
          "name": "allowance",
          "outputs": [
            {
              "internalType": "uint256",
              "name": "",
              "type": "uint256"
            }
          ],
          "stateMutability": "view",
          "type": "function"
        },
        {
          "inputs": [
            {
              "internalType": "address",
              "name": "spender",
              "type": "address"
            },
            {
              "internalType": "uint256",
              "name": "value",
              "type": "uint256"
            }
          ],
          "name": "approve",
          "outputs": [
            {
              "internalType": "bool",
              "name": "",
              "type": "bool"
            }
          ],
          "stateMutability": "nonpayable",
          "type": "function"
        },
        {
          "inputs": [
            {
              "internalType": "address",
              "name": "account",
              "type": "address"
            }
          ],
          "name": "balanceOf",
          "outputs": [
            {
              "internalType": "uint256",
              "name": "",
              "type": "uint256"
            }
          ],
          "stateMutability": "view",
          "type": "function"
        },
        {
          "inputs": [
            {
              "internalType": "bytes[]",
              "name": "priceUpdate",
              "type": "bytes[]"
            }
          ],
          "name": "buyToken",
          "outputs": [],
          "stateMutability": "payable",
          "type": "function"
        },
        {
          "inputs": [],
          "name": "decimals",
          "outputs": [
            {
              "internalType": "uint8",
              "name": "",
              "type": "uint8"
            }
          ],
          "stateMutability": "view",
          "type": "function"
        },
        {
          "inputs": [],
          "name": "depositPool",
          "outputs": [],
          "stateMutability": "payable",
          "type": "function"
        },
        {
          "inputs": [],
          "name": "name",
          "outputs": [
            {
              "internalType": "string",
              "name": "",
              "type": "string"
            }
          ],
          "stateMutability": "view",
          "type": "function"
        },
        {
          "inputs": [],
          "name": "owner",
          "outputs": [
            {
              "internalType": "address",
              "name": "",
              "type": "address"
            }
          ],
          "stateMutability": "view",
          "type": "function"
        },
        {
          "inputs": [],
          "name": "pyth",
          "outputs": [
            {
              "internalType": "contract IPyth",
              "name": "",
              "type": "address"
            }
          ],
          "stateMutability": "view",
          "type": "function"
        },
        {
          "inputs": [],
          "name": "renounceOwnership",
          "outputs": [],
          "stateMutability": "nonpayable",
          "type": "function"
        },
        {
          "inputs": [
            {
              "internalType": "uint256",
              "name": "tokenAmount",
              "type": "uint256"
            },
            {
              "internalType": "bytes[]",
              "name": "priceUpdate",
              "type": "bytes[]"
            }
          ],
          "name": "sellToken",
          "outputs": [],
          "stateMutability": "payable",
          "type": "function"
        },
        {
          "inputs": [],
          "name": "symbol",
          "outputs": [
            {
              "internalType": "string",
              "name": "",
              "type": "string"
            }
          ],
          "stateMutability": "view",
          "type": "function"
        },
        {
          "inputs": [
            {
              "components": [
                {
                  "internalType": "int64",
                  "name": "price",
                  "type": "int64"
                },
                {
                  "internalType": "uint64",
                  "name": "conf",
                  "type": "uint64"
                },
                {
                  "internalType": "int32",
                  "name": "expo",
                  "type": "int32"
                },
                {
                  "internalType": "uint256",
                  "name": "publishTime",
                  "type": "uint256"
                }
              ],
              "internalType": "struct PythStructs.Price",
              "name": "p",
              "type": "tuple"
            }
          ],
          "name": "testNormalizePrice",
          "outputs": [
            {
              "internalType": "uint256",
              "name": "",
              "type": "uint256"
            }
          ],
          "stateMutability": "pure",
          "type": "function"
        },
        {
          "inputs": [],
          "name": "totalSupply",
          "outputs": [
            {
              "internalType": "uint256",
              "name": "",
              "type": "uint256"
            }
          ],
          "stateMutability": "view",
          "type": "function"
        },
        {
          "inputs": [
            {
              "internalType": "address",
              "name": "to",
              "type": "address"
            },
            {
              "internalType": "uint256",
              "name": "value",
              "type": "uint256"
            }
          ],
          "name": "transfer",
          "outputs": [
            {
              "internalType": "bool",
              "name": "",
              "type": "bool"
            }
          ],
          "stateMutability": "nonpayable",
          "type": "function"
        },
        {
          "inputs": [
            {
              "internalType": "address",
              "name": "from",
              "type": "address"
            },
            {
              "internalType": "address",
              "name": "to",
              "type": "address"
            },
            {
              "internalType": "uint256",
              "name": "value",
              "type": "uint256"
            }
          ],
          "name": "transferFrom",
          "outputs": [
            {
              "internalType": "bool",
              "name": "",
              "type": "bool"
            }
          ],
          "stateMutability": "nonpayable",
          "type": "function"
        },
        {
          "inputs": [
            {
              "internalType": "address",
              "name": "newOwner",
              "type": "address"
            }
          ],
          "name": "transferOwnership",
          "outputs": [],
          "stateMutability": "nonpayable",
          "type": "function"
        },
        {
          "stateMutability": "payable",
          "type": "receive"
        }
      ],
      "evm": {
        "bytecode": {
          "linkReferences": {},
          "object": "6080604052604051613317380380613317833981810160405281019061002591906102e9565b336040518060400160405280600a81526020017f4170706c65546f6b656e000000000000000000000000000000000000000000008152506040518060400160405280600581526020017f504141504c00000000000000000000000000000000000000000000000000000081525081600390816100a19190610566565b5080600490816100b19190610566565b505050600073ffffffffffffffffffffffffffffffffffffffff168173ffffffffffffffffffffffffffffffffffffffff16036101265760006040517f1e4fbdf700000000000000000000000000000000000000000000000000000000815260040161011d9190610647565b60405180910390fd5b610135816101c060201b60201c565b5060003411610179576040517f08c379a0000000000000000000000000000000000000000000000000000000008152600401610170906106bf565b60405180910390fd5b80600660006101000a81548173ffffffffffffffffffffffffffffffffffffffff021916908373ffffffffffffffffffffffffffffffffffffffff160217905550506106df565b6000600560009054906101000a900473ffffffffffffffffffffffffffffffffffffffff16905081600560006101000a81548173ffffffffffffffffffffffffffffffffffffffff021916908373ffffffffffffffffffffffffffffffffffffffff1602179055508173ffffffffffffffffffffffffffffffffffffffff168173ffffffffffffffffffffffffffffffffffffffff167f8be0079c531659141344cd1fd0a4f28419497f9722a3daafe3b4186f6b6457e060405160405180910390a35050565b600080fd5b600073ffffffffffffffffffffffffffffffffffffffff82169050919050565b60006102b68261028b565b9050919050565b6102c6816102ab565b81146102d157600080fd5b50565b6000815190506102e3816102bd565b92915050565b6000602082840312156102ff576102fe610286565b5b600061030d848285016102d4565b91505092915050565b600081519050919050565b7f4e487b7100000000000000000000000000000000000000000000000000000000600052604160045260246000fd5b7f4e487b7100000000000000000000000000000000000000000000000000000000600052602260045260246000fd5b6000600282049050600182168061039757607f821691505b6020821081036103aa576103a9610350565b5b50919050565b60008190508160005260206000209050919050565b60006020601f8301049050919050565b600082821b905092915050565b6000600883026104127fffffffffffffffffffffffffffffffffffffffffffffffffffffffffffffffff826103d5565b61041c86836103d5565b95508019841693508086168417925050509392505050565b6000819050919050565b6000819050919050565b600061046361045e61045984610434565b61043e565b610434565b9050919050565b6000819050919050565b61047d83610448565b6104916104898261046a565b8484546103e2565b825550505050565b600090565b6104a6610499565b6104b1818484610474565b505050565b5b818110156104d5576104ca60008261049e565b6001810190506104b7565b5050565b601f82111561051a576104eb816103b0565b6104f4846103c5565b81016020851015610503578190505b61051761050f856103c5565b8301826104b6565b50505b505050565b600082821c905092915050565b600061053d6000198460080261051f565b1980831691505092915050565b6000610556838361052c565b9150826002028217905092915050565b61056f82610316565b67ffffffffffffffff81111561058857610587610321565b5b610592825461037f565b61059d8282856104d9565b600060209050601f8311600181146105d057600084156105be578287015190505b6105c8858261054a565b865550610630565b601f1984166105de866103b0565b60005b82811015610606578489015182556001820191506020850194506020810190506105e1565b86831015610623578489015161061f601f89168261052c565b8355505b6001600288020188555050505b505050505050565b610641816102ab565b82525050565b600060208201905061065c6000830184610638565b92915050565b600082825260208201905092915050565b7f4d75737420696e697469616c697a6520776974682045544820706f6f6c000000600082015250565b60006106a9601d83610662565b91506106b482610673565b602082019050919050565b600060208201905081810360008301526106d88161069c565b9050919050565b612c29806106ee6000396000f3fe6080604052600436106101185760003560e01c80638da5cb5b116100a0578063d99da28411610064578063d99da284146103a3578063dd62ed3e146103bf578063dfc5b44c146103fc578063f2fde38b14610418578063f98d06f0146104415761011f565b80638da5cb5b146102a857806395d89b41146102d3578063966a6709146102fe578063a9059cbb14610329578063d9540b77146103665761011f565b80632a343709116100e75780632a343709146101f4578063313ce567146101fe578063457f78fa1461022957806370a0823114610254578063715018a6146102915761011f565b806306fdde0314610124578063095ea7b31461014f57806318160ddd1461018c57806323b872dd146101b75761011f565b3661011f57005b600080fd5b34801561013057600080fd5b5061013961046c565b6040516101469190611b08565b60405180910390f35b34801561015b57600080fd5b5061017660048036038101906101719190611bd2565b6104fe565b6040516101839190611c2d565b60405180910390f35b34801561019857600080fd5b506101a1610521565b6040516101ae9190611c57565b60405180910390f35b3480156101c357600080fd5b506101de60048036038101906101d99190611c72565b61052b565b6040516101eb9190611c2d565b60405180910390f35b6101fc61055a565b005b34801561020a57600080fd5b5061021361059f565b6040516102209190611ce1565b60405180910390f35b34801561023557600080fd5b5061023e6105a8565b60405161024b9190611d15565b60405180910390f35b34801561026057600080fd5b5061027b60048036038101906102769190611d30565b6105cf565b6040516102889190611c57565b60405180910390f35b34801561029d57600080fd5b506102a6610617565b005b3480156102b457600080fd5b506102bd61062b565b6040516102ca9190611d6c565b60405180910390f35b3480156102df57600080fd5b506102e8610655565b6040516102f59190611b08565b60405180910390f35b34801561030a57600080fd5b506103136106e7565b6040516103209190611d15565b60405180910390f35b34801561033557600080fd5b50610350600480360381019061034b9190611bd2565b61070e565b60405161035d9190611c2d565b60405180910390f35b34801561037257600080fd5b5061038d60048036038101906103889190611f31565b610731565b60405161039a9190611c57565b60405180910390f35b6103bd60048036038101906103b89190611fc3565b610743565b005b3480156103cb57600080fd5b506103e660048036038101906103e19190612023565b610c38565b6040516103f39190611c57565b60405180910390f35b61041660048036038101906104119190612063565b610cbf565b005b34801561042457600080fd5b5061043f600480360381019061043a9190611d30565b611088565b005b34801561044d57600080fd5b5061045661110e565b604051610463919061210f565b60405180910390f35b60606003805461047b90612159565b80601f01602080910402602001604051908101604052809291908181526020018280546104a790612159565b80156104f45780601f106104c9576101008083540402835291602001916104f4565b820191906000526020600020905b8154815290600101906020018083116104d757829003601f168201915b5050505050905090565b600080610509611134565b905061051681858561113c565b600191505092915050565b6000600254905090565b600080610536611134565b905061054385828561114e565b61054e8585856111e3565b60019150509392505050565b6000341161059d576040517f08c379a0000000000000000000000000000000000000000000000000000000008152600401610594906121d6565b60405180910390fd5b565b60006012905090565b7f49f6b65cb1de6b10eaf75e7c03ca029c306d0357e91b5311b175084a5ad5568860001b81565b60008060008373ffffffffffffffffffffffffffffffffffffffff1673ffffffffffffffffffffffffffffffffffffffff168152602001908152602001600020549050919050565b61061f6112d7565b610629600061135e565b565b6000600560009054906101000a900473ffffffffffffffffffffffffffffffffffffffff16905090565b60606004805461066490612159565b80601f016020809104026020016040519081016040528092919081815260200182805461069090612159565b80156106dd5780601f106106b2576101008083540402835291602001916106dd565b820191906000526020600020905b8154815290600101906020018083116106c057829003601f168201915b5050505050905090565b7fff61491a931112ddf1bd8147cd1b641375f79f5825126d665480874634fd0ace60001b81565b600080610719611134565b90506107268185856111e3565b600191505092915050565b600061073c82611424565b9050919050565b60008311610786576040517f08c379a000000000000000000000000000000000000000000000000000000000815260040161077d90612242565b60405180910390fd5b82610790336105cf565b10156107d1576040517f08c379a00000000000000000000000000000000000000000000000000000000081526004016107c8906122ae565b60405180910390fd5b6000600660009054906101000a900473ffffffffffffffffffffffffffffffffffffffff1673ffffffffffffffffffffffffffffffffffffffff1663d47eed4584846040518363ffffffff1660e01b8152600401610830929190612441565b602060405180830381865afa15801561084d573d6000803e3d6000fd5b505050506040513d601f19601f82011682018060405250810190610871919061247a565b9050803410156108b6576040517f08c379a00000000000000000000000000000000000000000000000000000000081526004016108ad906124f3565b60405180910390fd5b600660009054906101000a900473ffffffffffffffffffffffffffffffffffffffff1673ffffffffffffffffffffffffffffffffffffffff1663ef9e5e288285856040518463ffffffff1660e01b8152600401610914929190612441565b6000604051808303818588803b15801561092d57600080fd5b505af1158015610941573d6000803e3d6000fd5b50505050506000600660009054906101000a900473ffffffffffffffffffffffffffffffffffffffff1673ffffffffffffffffffffffffffffffffffffffff1663a4ae35e07f49f6b65cb1de6b10eaf75e7c03ca029c306d0357e91b5311b175084a5ad5568860001b603c6040518363ffffffff1660e01b81526004016109c992919061254e565b608060405180830381865afa1580156109e6573d6000803e3d6000fd5b505050506040513d601f19601f82011682018060405250810190610a0a919061262e565b90506000600660009054906101000a900473ffffffffffffffffffffffffffffffffffffffff1673ffffffffffffffffffffffffffffffffffffffff1663a4ae35e07fff61491a931112ddf1bd8147cd1b641375f79f5825126d665480874634fd0ace60001b603c6040518363ffffffff1660e01b8152600401610a8f92919061254e565b608060405180830381865afa158015610aac573d6000803e3d6000fd5b505050506040513d601f19601f82011682018060405250810190610ad0919061262e565b90506000610add83611424565b90506000610aea83611424565b9050600081670de0b6b3a764000084610b03919061268a565b610b0d91906126fb565b90506000670de0b6b3a7640000828b610b26919061268a565b610b3091906126fb565b905080471015610b75576040517f08c379a0000000000000000000000000000000000000000000000000000000008152600401610b6c90612778565b60405180910390fd5b610b7f338b611578565b60003373ffffffffffffffffffffffffffffffffffffffff1682604051610ba5906127c9565b60006040518083038185875af1925050503d8060008114610be2576040519150601f19603f3d011682016040523d82523d6000602084013e610be7565b606091505b5050905080610c2b576040517f08c379a0000000000000000000000000000000000000000000000000000000008152600401610c229061282a565b60405180910390fd5b5050505050505050505050565b6000600160008473ffffffffffffffffffffffffffffffffffffffff1673ffffffffffffffffffffffffffffffffffffffff16815260200190815260200160002060008373ffffffffffffffffffffffffffffffffffffffff1673ffffffffffffffffffffffffffffffffffffffff16815260200190815260200160002054905092915050565b60003411610d02576040517f08c379a0000000000000000000000000000000000000000000000000000000008152600401610cf990612896565b60405180910390fd5b6000600660009054906101000a900473ffffffffffffffffffffffffffffffffffffffff1673ffffffffffffffffffffffffffffffffffffffff1663d47eed4584846040518363ffffffff1660e01b8152600401610d61929190612441565b602060405180830381865afa158015610d7e573d6000803e3d6000fd5b505050506040513d601f19601f82011682018060405250810190610da2919061247a565b9050803411610de6576040517f08c379a0000000000000000000000000000000000000000000000000000000008152600401610ddd90612902565b60405180910390fd5b600660009054906101000a900473ffffffffffffffffffffffffffffffffffffffff1673ffffffffffffffffffffffffffffffffffffffff1663ef9e5e288285856040518463ffffffff1660e01b8152600401610e44929190612441565b6000604051808303818588803b158015610e5d57600080fd5b505af1158015610e71573d6000803e3d6000fd5b50505050506000600660009054906101000a900473ffffffffffffffffffffffffffffffffffffffff1673ffffffffffffffffffffffffffffffffffffffff1663a4ae35e07f49f6b65cb1de6b10eaf75e7c03ca029c306d0357e91b5311b175084a5ad5568860001b603c6040518363ffffffff1660e01b8152600401610ef992919061254e565b608060405180830381865afa158015610f16573d6000803e3d6000fd5b505050506040513d601f19601f82011682018060405250810190610f3a919061262e565b90506000600660009054906101000a900473ffffffffffffffffffffffffffffffffffffffff1673ffffffffffffffffffffffffffffffffffffffff1663a4ae35e07fff61491a931112ddf1bd8147cd1b641375f79f5825126d665480874634fd0ace60001b603c6040518363ffffffff1660e01b8152600401610fbf92919061254e565b608060405180830381865afa158015610fdc573d6000803e3d6000fd5b505050506040513d601f19601f82011682018060405250810190611000919061262e565b9050600061100d83611424565b9050600061101a83611424565b9050600081670de0b6b3a764000084611033919061268a565b61103d91906126fb565b90506000863461104d9190612922565b9050600082670de0b6b3a764000083611066919061268a565b61107091906126fb565b905061107c33826115fa565b50505050505050505050565b6110906112d7565b600073ffffffffffffffffffffffffffffffffffffffff168173ffffffffffffffffffffffffffffffffffffffff16036111025760006040517f1e4fbdf70000000000000000000000000000000000000000000000000000000081526004016110f99190611d6c565b60405180910390fd5b61110b8161135e565b50565b600660009054906101000a900473ffffffffffffffffffffffffffffffffffffffff1681565b600033905090565b611149838383600161167c565b505050565b600061115a8484610c38565b90507fffffffffffffffffffffffffffffffffffffffffffffffffffffffffffffffff8110156111dd57818110156111cd578281836040517ffb8f41b20000000000000000000000000000000000000000000000000000000081526004016111c493929190612956565b60405180910390fd5b6111dc8484848403600061167c565b5b50505050565b600073ffffffffffffffffffffffffffffffffffffffff168373ffffffffffffffffffffffffffffffffffffffff16036112555760006040517f96c6fd1e00000000000000000000000000000000000000000000000000000000815260040161124c9190611d6c565b60405180910390fd5b600073ffffffffffffffffffffffffffffffffffffffff168273ffffffffffffffffffffffffffffffffffffffff16036112c75760006040517fec442f050000000000000000000000000000000000000000000000000000000081526004016112be9190611d6c565b60405180910390fd5b6112d2838383611853565b505050565b6112df611134565b73ffffffffffffffffffffffffffffffffffffffff166112fd61062b565b73ffffffffffffffffffffffffffffffffffffffff161461135c57611320611134565b6040517f118cdaa70000000000000000000000000000000000000000000000000000000081526004016113539190611d6c565b60405180910390fd5b565b6000600560009054906101000a900473ffffffffffffffffffffffffffffffffffffffff16905081600560006101000a81548173ffffffffffffffffffffffffffffffffffffffff021916908373ffffffffffffffffffffffffffffffffffffffff1602179055508173ffffffffffffffffffffffffffffffffffffffff168173ffffffffffffffffffffffffffffffffffffffff167f8be0079c531659141344cd1fd0a4f28419497f9722a3daafe3b4186f6b6457e060405160405180910390a35050565b600080826000015160070b1215611470576040517f08c379a0000000000000000000000000000000000000000000000000000000008152600401611467906129d9565b60405180910390fd5b6000826000015167ffffffffffffffff16905060008360400151905060008160030b121561150c576000816114a4906129f9565b63ffffffff169050601281116114dd578060126114c19190612922565b600a6114cd9190612b74565b836114d8919061268a565b611502565b6012816114ea9190612922565b600a6114f69190612b74565b8361150191906126fb565b5b9350505050611573565b60008163ffffffff169050601281116115485780601261152c9190612922565b600a6115389190612b74565b83611543919061268a565b61156d565b6012816115559190612922565b600a6115619190612b74565b8361156c91906126fb565b5b93505050505b919050565b600073ffffffffffffffffffffffffffffffffffffffff168273ffffffffffffffffffffffffffffffffffffffff16036115ea5760006040517f96c6fd1e0000000000000000000000000000000000000000000000000000000081526004016115e19190611d6c565b60405180910390fd5b6115f682600083611853565b5050565b600073ffffffffffffffffffffffffffffffffffffffff168273ffffffffffffffffffffffffffffffffffffffff160361166c5760006040517fec442f050000000000000000000000000000000000000000000000000000000081526004016116639190611d6c565b60405180910390fd5b61167860008383611853565b5050565b600073ffffffffffffffffffffffffffffffffffffffff168473ffffffffffffffffffffffffffffffffffffffff16036116ee5760006040517fe602df050000000000000000000000000000000000000000000000000000000081526004016116e59190611d6c565b60405180910390fd5b600073ffffffffffffffffffffffffffffffffffffffff168373ffffffffffffffffffffffffffffffffffffffff16036117605760006040517f94280d620000000000000000000000000000000000000000000000000000000081526004016117579190611d6c565b60405180910390fd5b81600160008673ffffffffffffffffffffffffffffffffffffffff1673ffffffffffffffffffffffffffffffffffffffff16815260200190815260200160002060008573ffffffffffffffffffffffffffffffffffffffff1673ffffffffffffffffffffffffffffffffffffffff16815260200190815260200160002081905550801561184d578273ffffffffffffffffffffffffffffffffffffffff168473ffffffffffffffffffffffffffffffffffffffff167f8c5be1e5ebec7d5bd14f71427d1e84f3dd0314c0f7b2291e5b200ac8c7c3b925846040516118449190611c57565b60405180910390a35b50505050565b600073ffffffffffffffffffffffffffffffffffffffff168373ffffffffffffffffffffffffffffffffffffffff16036118a55780600260008282546118999190612bbf565b92505081905550611978565b60008060008573ffffffffffffffffffffffffffffffffffffffff1673ffffffffffffffffffffffffffffffffffffffff16815260200190815260200160002054905081811015611931578381836040517fe450d38c00000000000000000000000000000000000000000000000000000000815260040161192893929190612956565b60405180910390fd5b8181036000808673ffffffffffffffffffffffffffffffffffffffff1673ffffffffffffffffffffffffffffffffffffffff16815260200190815260200160002081905550505b600073ffffffffffffffffffffffffffffffffffffffff168273ffffffffffffffffffffffffffffffffffffffff16036119c15780600260008282540392505081905550611a0e565b806000808473ffffffffffffffffffffffffffffffffffffffff1673ffffffffffffffffffffffffffffffffffffffff168152602001908152602001600020600082825401925050819055505b8173ffffffffffffffffffffffffffffffffffffffff168373ffffffffffffffffffffffffffffffffffffffff167fddf252ad1be2c89b69c2b068fc378daa952ba7f163c4a11628f55a4df523b3ef83604051611a6b9190611c57565b60405180910390a3505050565b600081519050919050565b600082825260208201905092915050565b60005b83811015611ab2578082015181840152602081019050611a97565b60008484015250505050565b6000601f19601f8301169050919050565b6000611ada82611a78565b611ae48185611a83565b9350611af4818560208601611a94565b611afd81611abe565b840191505092915050565b60006020820190508181036000830152611b228184611acf565b905092915050565b6000604051905090565b600080fd5b600080fd5b600073ffffffffffffffffffffffffffffffffffffffff82169050919050565b6000611b6982611b3e565b9050919050565b611b7981611b5e565b8114611b8457600080fd5b50565b600081359050611b9681611b70565b92915050565b6000819050919050565b611baf81611b9c565b8114611bba57600080fd5b50565b600081359050611bcc81611ba6565b92915050565b60008060408385031215611be957611be8611b34565b5b6000611bf785828601611b87565b9250506020611c0885828601611bbd565b9150509250929050565b60008115159050919050565b611c2781611c12565b82525050565b6000602082019050611c426000830184611c1e565b92915050565b611c5181611b9c565b82525050565b6000602082019050611c6c6000830184611c48565b92915050565b600080600060608486031215611c8b57611c8a611b34565b5b6000611c9986828701611b87565b9350506020611caa86828701611b87565b9250506040611cbb86828701611bbd565b9150509250925092565b600060ff82169050919050565b611cdb81611cc5565b82525050565b6000602082019050611cf66000830184611cd2565b92915050565b6000819050919050565b611d0f81611cfc565b82525050565b6000602082019050611d2a6000830184611d06565b92915050565b600060208284031215611d4657611d45611b34565b5b6000611d5484828501611b87565b91505092915050565b611d6681611b5e565b82525050565b6000602082019050611d816000830184611d5d565b92915050565b600080fd5b7f4e487b7100000000000000000000000000000000000000000000000000000000600052604160045260246000fd5b611dc482611abe565b810181811067ffffffffffffffff82111715611de357611de2611d8c565b5b80604052505050565b6000611df6611b2a565b9050611e028282611dbb565b919050565b60008160070b9050919050565b611e1d81611e07565b8114611e2857600080fd5b50565b600081359050611e3a81611e14565b92915050565b600067ffffffffffffffff82169050919050565b611e5d81611e40565b8114611e6857600080fd5b50565b600081359050611e7a81611e54565b92915050565b60008160030b9050919050565b611e9681611e80565b8114611ea157600080fd5b50565b600081359050611eb381611e8d565b92915050565b600060808284031215611ecf57611ece611d87565b5b611ed96080611dec565b90506000611ee984828501611e2b565b6000830152506020611efd84828501611e6b565b6020830152506040611f1184828501611ea4565b6040830152506060611f2584828501611bbd565b60608301525092915050565b600060808284031215611f4757611f46611b34565b5b6000611f5584828501611eb9565b91505092915050565b600080fd5b600080fd5b600080fd5b60008083601f840112611f8357611f82611f5e565b5b8235905067ffffffffffffffff811115611fa057611f9f611f63565b5b602083019150836020820283011115611fbc57611fbb611f68565b5b9250929050565b600080600060408486031215611fdc57611fdb611b34565b5b6000611fea86828701611bbd565b935050602084013567ffffffffffffffff81111561200b5761200a611b39565b5b61201786828701611f6d565b92509250509250925092565b6000806040838503121561203a57612039611b34565b5b600061204885828601611b87565b925050602061205985828601611b87565b9150509250929050565b6000806020838503121561207a57612079611b34565b5b600083013567ffffffffffffffff81111561209857612097611b39565b5b6120a485828601611f6d565b92509250509250929050565b6000819050919050565b60006120d56120d06120cb84611b3e565b6120b0565b611b3e565b9050919050565b60006120e7826120ba565b9050919050565b60006120f9826120dc565b9050919050565b612109816120ee565b82525050565b60006020820190506121246000830184612100565b92915050565b7f4e487b7100000000000000000000000000000000000000000000000000000000600052602260045260246000fd5b6000600282049050600182168061217157607f821691505b6020821081036121845761218361212a565b5b50919050565b7f4d7573742073656e642045544800000000000000000000000000000000000000600082015250565b60006121c0600d83611a83565b91506121cb8261218a565b602082019050919050565b600060208201905081810360008301526121ef816121b3565b9050919050565b7f546f6b656e20616d6f756e74206d757374206265203e20300000000000000000600082015250565b600061222c601883611a83565b9150612237826121f6565b602082019050919050565b6000602082019050818103600083015261225b8161221f565b9050919050565b7f496e73756666696369656e7420746f6b656e2062616c616e6365000000000000600082015250565b6000612298601a83611a83565b91506122a382612262565b602082019050919050565b600060208201905081810360008301526122c78161228b565b9050919050565b600082825260208201905092915050565b6000819050919050565b600082825260208201905092915050565b82818337600083830152505050565b600061231583856122e9565b93506123228385846122fa565b61232b83611abe565b840190509392505050565b6000612343848484612309565b90509392505050565b600080fd5b600080fd5b600080fd5b6000808335600160200384360303811261237857612377612356565b5b83810192508235915060208301925067ffffffffffffffff8211156123a05761239f61234c565b5b6001820236038313156123b6576123b5612351565b5b509250929050565b6000602082019050919050565b60006123d783856122ce565b9350836020840285016123e9846122df565b8060005b8781101561242f578484038952612404828461235b565b61240f868284612336565b955061241a846123be565b935060208b019a5050506001810190506123ed565b50829750879450505050509392505050565b6000602082019050818103600083015261245c8184866123cb565b90509392505050565b60008151905061247481611ba6565b92915050565b6000602082840312156124905761248f611b34565b5b600061249e84828501612465565b91505092915050565b7f496e73756666696369656e74204554482073656e7420666f7220666565000000600082015250565b60006124dd601d83611a83565b91506124e8826124a7565b602082019050919050565b6000602082019050818103600083015261250c816124d0565b9050919050565b6000819050919050565b600061253861253361252e84612513565b6120b0565b611b9c565b9050919050565b6125488161251d565b82525050565b60006040820190506125636000830185611d06565b612570602083018461253f565b9392505050565b60008151905061258681611e14565b92915050565b60008151905061259b81611e54565b92915050565b6000815190506125b081611e8d565b92915050565b6000608082840312156125cc576125cb611d87565b5b6125d66080611dec565b905060006125e684828501612577565b60008301525060206125fa8482850161258c565b602083015250604061260e848285016125a1565b604083015250606061262284828501612465565b60608301525092915050565b60006080828403121561264457612643611b34565b5b6000612652848285016125b6565b91505092915050565b7f4e487b7100000000000000000000000000000000000000000000000000000000600052601160045260246000fd5b600061269582611b9c565b91506126a083611b9c565b92508282026126ae81611b9c565b915082820484148315176126c5576126c461265b565b5b5092915050565b7f4e487b7100000000000000000000000000000000000000000000000000000000600052601260045260246000fd5b600061270682611b9c565b915061271183611b9c565b925082612721576127206126cc565b5b828204905092915050565b7f496e73756666696369656e74206c697175696469747900000000000000000000600082015250565b6000612762601683611a83565b915061276d8261272c565b602082019050919050565b6000602082019050818103600083015261279181612755565b9050919050565b600081905092915050565b50565b60006127b3600083612798565b91506127be826127a3565b600082019050919050565b60006127d4826127a6565b9150819050919050565b7f455448207472616e73666572206661696c656400000000000000000000000000600082015250565b6000612814601383611a83565b915061281f826127de565b602082019050919050565b6000602082019050818103600083015261284381612807565b9050919050565b7f53656e642045544820746f2062757920746f6b656e7300000000000000000000600082015250565b6000612880601683611a83565b915061288b8261284a565b602082019050919050565b600060208201905081810360008301526128af81612873565b9050919050565b7f496e73756666696369656e742045544820746f20636f76657220666565000000600082015250565b60006128ec601d83611a83565b91506128f7826128b6565b602082019050919050565b6000602082019050818103600083015261291b816128df565b9050919050565b600061292d82611b9c565b915061293883611b9c565b92508282039050818111156129505761294f61265b565b5b92915050565b600060608201905061296b6000830186611d5d565b6129786020830185611c48565b6129856040830184611c48565b949350505050565b7f4e65676174697665207072696365206e6f7420737570706f7274656400000000600082015250565b60006129c3601c83611a83565b91506129ce8261298d565b602082019050919050565b600060208201905081810360008301526129f2816129b6565b9050919050565b6000612a0482611e80565b91507fffffffffffffffffffffffffffffffffffffffffffffffffffffffff800000008203612a3657612a3561265b565b5b816000039050919050565b60008160011c9050919050565b6000808291508390505b6001851115612a9857808604811115612a7457612a7361265b565b5b6001851615612a835780820291505b8081029050612a9185612a41565b9450612a58565b94509492505050565b600082612ab15760019050612b6d565b81612abf5760009050612b6d565b8160018114612ad55760028114612adf57612b0e565b6001915050612b6d565b60ff841115612af157612af061265b565b5b8360020a915084821115612b0857612b0761265b565b5b50612b6d565b5060208310610133831016604e8410600b8410161715612b435782820a905083811115612b3e57612b3d61265b565b5b612b6d565b612b508484846001612a4e565b92509050818404811115612b6757612b6661265b565b5b81810290505b9392505050565b6000612b7f82611b9c565b9150612b8a83611b9c565b9250612bb77fffffffffffffffffffffffffffffffffffffffffffffffffffffffffffffffff8484612aa1565b905092915050565b6000612bca82611b9c565b9150612bd583611b9c565b9250828201905080821115612bed57612bec61265b565b5b9291505056fea26469706673582212200e20c11e4ae75242b361ef9b91705c8b52fe2829312f942075c6d727d063ad6f64736f6c634300081c0033",
          "opcodes": "PUSH1 0x80 PUSH1 0x40 MSTORE PUSH1 0x40 MLOAD PUSH2 0x3317 CODESIZE SUB DUP1 PUSH2 0x3317 DUP4 CODECOPY DUP2 DUP2 ADD PUSH1 0x40 MSTORE DUP2 ADD SWAP1 PUSH2 0x25 SWAP2 SWAP1 PUSH2 0x2E9 JUMP JUMPDEST CALLER PUSH1 0x40 MLOAD DUP1 PUSH1 0x40 ADD PUSH1 0x40 MSTORE DUP1 PUSH1 0xA DUP2 MSTORE PUSH1 0x20 ADD PUSH32 0x4170706C65546F6B656E00000000000000000000000000000000000000000000 DUP2 MSTORE POP PUSH1 0x40 MLOAD DUP1 PUSH1 0x40 ADD PUSH1 0x40 MSTORE DUP1 PUSH1 0x5 DUP2 MSTORE PUSH1 0x20 ADD PUSH32 0x504141504C000000000000000000000000000000000000000000000000000000 DUP2 MSTORE POP DUP2 PUSH1 0x3 SWAP1 DUP2 PUSH2 0xA1 SWAP2 SWAP1 PUSH2 0x566 JUMP JUMPDEST POP DUP1 PUSH1 0x4 SWAP1 DUP2 PUSH2 0xB1 SWAP2 SWAP1 PUSH2 0x566 JUMP JUMPDEST POP POP POP PUSH1 0x0 PUSH20 0xFFFFFFFFFFFFFFFFFFFFFFFFFFFFFFFFFFFFFFFF AND DUP2 PUSH20 0xFFFFFFFFFFFFFFFFFFFFFFFFFFFFFFFFFFFFFFFF AND SUB PUSH2 0x126 JUMPI PUSH1 0x0 PUSH1 0x40 MLOAD PUSH32 0x1E4FBDF700000000000000000000000000000000000000000000000000000000 DUP2 MSTORE PUSH1 0x4 ADD PUSH2 0x11D SWAP2 SWAP1 PUSH2 0x647 JUMP JUMPDEST PUSH1 0x40 MLOAD DUP1 SWAP2 SUB SWAP1 REVERT JUMPDEST PUSH2 0x135 DUP2 PUSH2 0x1C0 PUSH1 0x20 SHL PUSH1 0x20 SHR JUMP JUMPDEST POP PUSH1 0x0 CALLVALUE GT PUSH2 0x179 JUMPI PUSH1 0x40 MLOAD PUSH32 0x8C379A000000000000000000000000000000000000000000000000000000000 DUP2 MSTORE PUSH1 0x4 ADD PUSH2 0x170 SWAP1 PUSH2 0x6BF JUMP JUMPDEST PUSH1 0x40 MLOAD DUP1 SWAP2 SUB SWAP1 REVERT JUMPDEST DUP1 PUSH1 0x6 PUSH1 0x0 PUSH2 0x100 EXP DUP2 SLOAD DUP2 PUSH20 0xFFFFFFFFFFFFFFFFFFFFFFFFFFFFFFFFFFFFFFFF MUL NOT AND SWAP1 DUP4 PUSH20 0xFFFFFFFFFFFFFFFFFFFFFFFFFFFFFFFFFFFFFFFF AND MUL OR SWAP1 SSTORE POP POP PUSH2 0x6DF JUMP JUMPDEST PUSH1 0x0 PUSH1 0x5 PUSH1 0x0 SWAP1 SLOAD SWAP1 PUSH2 0x100 EXP SWAP1 DIV PUSH20 0xFFFFFFFFFFFFFFFFFFFFFFFFFFFFFFFFFFFFFFFF AND SWAP1 POP DUP2 PUSH1 0x5 PUSH1 0x0 PUSH2 0x100 EXP DUP2 SLOAD DUP2 PUSH20 0xFFFFFFFFFFFFFFFFFFFFFFFFFFFFFFFFFFFFFFFF MUL NOT AND SWAP1 DUP4 PUSH20 0xFFFFFFFFFFFFFFFFFFFFFFFFFFFFFFFFFFFFFFFF AND MUL OR SWAP1 SSTORE POP DUP2 PUSH20 0xFFFFFFFFFFFFFFFFFFFFFFFFFFFFFFFFFFFFFFFF AND DUP2 PUSH20 0xFFFFFFFFFFFFFFFFFFFFFFFFFFFFFFFFFFFFFFFF AND PUSH32 0x8BE0079C531659141344CD1FD0A4F28419497F9722A3DAAFE3B4186F6B6457E0 PUSH1 0x40 MLOAD PUSH1 0x40 MLOAD DUP1 SWAP2 SUB SWAP1 LOG3 POP POP JUMP JUMPDEST PUSH1 0x0 DUP1 REVERT JUMPDEST PUSH1 0x0 PUSH20 0xFFFFFFFFFFFFFFFFFFFFFFFFFFFFFFFFFFFFFFFF DUP3 AND SWAP1 POP SWAP2 SWAP1 POP JUMP JUMPDEST PUSH1 0x0 PUSH2 0x2B6 DUP3 PUSH2 0x28B JUMP JUMPDEST SWAP1 POP SWAP2 SWAP1 POP JUMP JUMPDEST PUSH2 0x2C6 DUP2 PUSH2 0x2AB JUMP JUMPDEST DUP2 EQ PUSH2 0x2D1 JUMPI PUSH1 0x0 DUP1 REVERT JUMPDEST POP JUMP JUMPDEST PUSH1 0x0 DUP2 MLOAD SWAP1 POP PUSH2 0x2E3 DUP2 PUSH2 0x2BD JUMP JUMPDEST SWAP3 SWAP2 POP POP JUMP JUMPDEST PUSH1 0x0 PUSH1 0x20 DUP3 DUP5 SUB SLT ISZERO PUSH2 0x2FF JUMPI PUSH2 0x2FE PUSH2 0x286 JUMP JUMPDEST JUMPDEST PUSH1 0x0 PUSH2 0x30D DUP5 DUP3 DUP6 ADD PUSH2 0x2D4 JUMP JUMPDEST SWAP2 POP POP SWAP3 SWAP2 POP POP JUMP JUMPDEST PUSH1 0x0 DUP2 MLOAD SWAP1 POP SWAP2 SWAP1 POP JUMP JUMPDEST PUSH32 0x4E487B7100000000000000000000000000000000000000000000000000000000 PUSH1 0x0 MSTORE PUSH1 0x41 PUSH1 0x4 MSTORE PUSH1 0x24 PUSH1 0x0 REVERT JUMPDEST PUSH32 0x4E487B7100000000000000000000000000000000000000000000000000000000 PUSH1 0x0 MSTORE PUSH1 0x22 PUSH1 0x4 MSTORE PUSH1 0x24 PUSH1 0x0 REVERT JUMPDEST PUSH1 0x0 PUSH1 0x2 DUP3 DIV SWAP1 POP PUSH1 0x1 DUP3 AND DUP1 PUSH2 0x397 JUMPI PUSH1 0x7F DUP3 AND SWAP2 POP JUMPDEST PUSH1 0x20 DUP3 LT DUP2 SUB PUSH2 0x3AA JUMPI PUSH2 0x3A9 PUSH2 0x350 JUMP JUMPDEST JUMPDEST POP SWAP2 SWAP1 POP JUMP JUMPDEST PUSH1 0x0 DUP2 SWAP1 POP DUP2 PUSH1 0x0 MSTORE PUSH1 0x20 PUSH1 0x0 KECCAK256 SWAP1 POP SWAP2 SWAP1 POP JUMP JUMPDEST PUSH1 0x0 PUSH1 0x20 PUSH1 0x1F DUP4 ADD DIV SWAP1 POP SWAP2 SWAP1 POP JUMP JUMPDEST PUSH1 0x0 DUP3 DUP3 SHL SWAP1 POP SWAP3 SWAP2 POP POP JUMP JUMPDEST PUSH1 0x0 PUSH1 0x8 DUP4 MUL PUSH2 0x412 PUSH32 0xFFFFFFFFFFFFFFFFFFFFFFFFFFFFFFFFFFFFFFFFFFFFFFFFFFFFFFFFFFFFFFFF DUP3 PUSH2 0x3D5 JUMP JUMPDEST PUSH2 0x41C DUP7 DUP4 PUSH2 0x3D5 JUMP JUMPDEST SWAP6 POP DUP1 NOT DUP5 AND SWAP4 POP DUP1 DUP7 AND DUP5 OR SWAP3 POP POP POP SWAP4 SWAP3 POP POP POP JUMP JUMPDEST PUSH1 0x0 DUP2 SWAP1 POP SWAP2 SWAP1 POP JUMP JUMPDEST PUSH1 0x0 DUP2 SWAP1 POP SWAP2 SWAP1 POP JUMP JUMPDEST PUSH1 0x0 PUSH2 0x463 PUSH2 0x45E PUSH2 0x459 DUP5 PUSH2 0x434 JUMP JUMPDEST PUSH2 0x43E JUMP JUMPDEST PUSH2 0x434 JUMP JUMPDEST SWAP1 POP SWAP2 SWAP1 POP JUMP JUMPDEST PUSH1 0x0 DUP2 SWAP1 POP SWAP2 SWAP1 POP JUMP JUMPDEST PUSH2 0x47D DUP4 PUSH2 0x448 JUMP JUMPDEST PUSH2 0x491 PUSH2 0x489 DUP3 PUSH2 0x46A JUMP JUMPDEST DUP5 DUP5 SLOAD PUSH2 0x3E2 JUMP JUMPDEST DUP3 SSTORE POP POP POP POP JUMP JUMPDEST PUSH1 0x0 SWAP1 JUMP JUMPDEST PUSH2 0x4A6 PUSH2 0x499 JUMP JUMPDEST PUSH2 0x4B1 DUP2 DUP5 DUP5 PUSH2 0x474 JUMP JUMPDEST POP POP POP JUMP JUMPDEST JUMPDEST DUP2 DUP2 LT ISZERO PUSH2 0x4D5 JUMPI PUSH2 0x4CA PUSH1 0x0 DUP3 PUSH2 0x49E JUMP JUMPDEST PUSH1 0x1 DUP2 ADD SWAP1 POP PUSH2 0x4B7 JUMP JUMPDEST POP POP JUMP JUMPDEST PUSH1 0x1F DUP3 GT ISZERO PUSH2 0x51A JUMPI PUSH2 0x4EB DUP2 PUSH2 0x3B0 JUMP JUMPDEST PUSH2 0x4F4 DUP5 PUSH2 0x3C5 JUMP JUMPDEST DUP2 ADD PUSH1 0x20 DUP6 LT ISZERO PUSH2 0x503 JUMPI DUP2 SWAP1 POP JUMPDEST PUSH2 0x517 PUSH2 0x50F DUP6 PUSH2 0x3C5 JUMP JUMPDEST DUP4 ADD DUP3 PUSH2 0x4B6 JUMP JUMPDEST POP POP JUMPDEST POP POP POP JUMP JUMPDEST PUSH1 0x0 DUP3 DUP3 SHR SWAP1 POP SWAP3 SWAP2 POP POP JUMP JUMPDEST PUSH1 0x0 PUSH2 0x53D PUSH1 0x0 NOT DUP5 PUSH1 0x8 MUL PUSH2 0x51F JUMP JUMPDEST NOT DUP1 DUP4 AND SWAP2 POP POP SWAP3 SWAP2 POP POP JUMP JUMPDEST PUSH1 0x0 PUSH2 0x556 DUP4 DUP4 PUSH2 0x52C JUMP JUMPDEST SWAP2 POP DUP3 PUSH1 0x2 MUL DUP3 OR SWAP1 POP SWAP3 SWAP2 POP POP JUMP JUMPDEST PUSH2 0x56F DUP3 PUSH2 0x316 JUMP JUMPDEST PUSH8 0xFFFFFFFFFFFFFFFF DUP2 GT ISZERO PUSH2 0x588 JUMPI PUSH2 0x587 PUSH2 0x321 JUMP JUMPDEST JUMPDEST PUSH2 0x592 DUP3 SLOAD PUSH2 0x37F JUMP JUMPDEST PUSH2 0x59D DUP3 DUP3 DUP6 PUSH2 0x4D9 JUMP JUMPDEST PUSH1 0x0 PUSH1 0x20 SWAP1 POP PUSH1 0x1F DUP4 GT PUSH1 0x1 DUP2 EQ PUSH2 0x5D0 JUMPI PUSH1 0x0 DUP5 ISZERO PUSH2 0x5BE JUMPI DUP3 DUP8 ADD MLOAD SWAP1 POP JUMPDEST PUSH2 0x5C8 DUP6 DUP3 PUSH2 0x54A JUMP JUMPDEST DUP7 SSTORE POP PUSH2 0x630 JUMP JUMPDEST PUSH1 0x1F NOT DUP5 AND PUSH2 0x5DE DUP7 PUSH2 0x3B0 JUMP JUMPDEST PUSH1 0x0 JUMPDEST DUP3 DUP2 LT ISZERO PUSH2 0x606 JUMPI DUP5 DUP10 ADD MLOAD DUP3 SSTORE PUSH1 0x1 DUP3 ADD SWAP2 POP PUSH1 0x20 DUP6 ADD SWAP5 POP PUSH1 0x20 DUP2 ADD SWAP1 POP PUSH2 0x5E1 JUMP JUMPDEST DUP7 DUP4 LT ISZERO PUSH2 0x623 JUMPI DUP5 DUP10 ADD MLOAD PUSH2 0x61F PUSH1 0x1F DUP10 AND DUP3 PUSH2 0x52C JUMP JUMPDEST DUP4 SSTORE POP JUMPDEST PUSH1 0x1 PUSH1 0x2 DUP9 MUL ADD DUP9 SSTORE POP POP POP JUMPDEST POP POP POP POP POP POP JUMP JUMPDEST PUSH2 0x641 DUP2 PUSH2 0x2AB JUMP JUMPDEST DUP3 MSTORE POP POP JUMP JUMPDEST PUSH1 0x0 PUSH1 0x20 DUP3 ADD SWAP1 POP PUSH2 0x65C PUSH1 0x0 DUP4 ADD DUP5 PUSH2 0x638 JUMP JUMPDEST SWAP3 SWAP2 POP POP JUMP JUMPDEST PUSH1 0x0 DUP3 DUP3 MSTORE PUSH1 0x20 DUP3 ADD SWAP1 POP SWAP3 SWAP2 POP POP JUMP JUMPDEST PUSH32 0x4D75737420696E697469616C697A6520776974682045544820706F6F6C000000 PUSH1 0x0 DUP3 ADD MSTORE POP JUMP JUMPDEST PUSH1 0x0 PUSH2 0x6A9 PUSH1 0x1D DUP4 PUSH2 0x662 JUMP JUMPDEST SWAP2 POP PUSH2 0x6B4 DUP3 PUSH2 0x673 JUMP JUMPDEST PUSH1 0x20 DUP3 ADD SWAP1 POP SWAP2 SWAP1 POP JUMP JUMPDEST PUSH1 0x0 PUSH1 0x20 DUP3 ADD SWAP1 POP DUP2 DUP2 SUB PUSH1 0x0 DUP4 ADD MSTORE PUSH2 0x6D8 DUP2 PUSH2 0x69C JUMP JUMPDEST SWAP1 POP SWAP2 SWAP1 POP JUMP JUMPDEST PUSH2 0x2C29 DUP1 PUSH2 0x6EE PUSH1 0x0 CODECOPY PUSH1 0x0 RETURN INVALID PUSH1 0x80 PUSH1 0x40 MSTORE PUSH1 0x4 CALLDATASIZE LT PUSH2 0x118 JUMPI PUSH1 0x0 CALLDATALOAD PUSH1 0xE0 SHR DUP1 PUSH4 0x8DA5CB5B GT PUSH2 0xA0 JUMPI DUP1 PUSH4 0xD99DA284 GT PUSH2 0x64 JUMPI DUP1 PUSH4 0xD99DA284 EQ PUSH2 0x3A3 JUMPI DUP1 PUSH4 0xDD62ED3E EQ PUSH2 0x3BF JUMPI DUP1 PUSH4 0xDFC5B44C EQ PUSH2 0x3FC JUMPI DUP1 PUSH4 0xF2FDE38B EQ PUSH2 0x418 JUMPI DUP1 PUSH4 0xF98D06F0 EQ PUSH2 0x441 JUMPI PUSH2 0x11F JUMP JUMPDEST DUP1 PUSH4 0x8DA5CB5B EQ PUSH2 0x2A8 JUMPI DUP1 PUSH4 0x95D89B41 EQ PUSH2 0x2D3 JUMPI DUP1 PUSH4 0x966A6709 EQ PUSH2 0x2FE JUMPI DUP1 PUSH4 0xA9059CBB EQ PUSH2 0x329 JUMPI DUP1 PUSH4 0xD9540B77 EQ PUSH2 0x366 JUMPI PUSH2 0x11F JUMP JUMPDEST DUP1 PUSH4 0x2A343709 GT PUSH2 0xE7 JUMPI DUP1 PUSH4 0x2A343709 EQ PUSH2 0x1F4 JUMPI DUP1 PUSH4 0x313CE567 EQ PUSH2 0x1FE JUMPI DUP1 PUSH4 0x457F78FA EQ PUSH2 0x229 JUMPI DUP1 PUSH4 0x70A08231 EQ PUSH2 0x254 JUMPI DUP1 PUSH4 0x715018A6 EQ PUSH2 0x291 JUMPI PUSH2 0x11F JUMP JUMPDEST DUP1 PUSH4 0x6FDDE03 EQ PUSH2 0x124 JUMPI DUP1 PUSH4 0x95EA7B3 EQ PUSH2 0x14F JUMPI DUP1 PUSH4 0x18160DDD EQ PUSH2 0x18C JUMPI DUP1 PUSH4 0x23B872DD EQ PUSH2 0x1B7 JUMPI PUSH2 0x11F JUMP JUMPDEST CALLDATASIZE PUSH2 0x11F JUMPI STOP JUMPDEST PUSH1 0x0 DUP1 REVERT JUMPDEST CALLVALUE DUP1 ISZERO PUSH2 0x130 JUMPI PUSH1 0x0 DUP1 REVERT JUMPDEST POP PUSH2 0x139 PUSH2 0x46C JUMP JUMPDEST PUSH1 0x40 MLOAD PUSH2 0x146 SWAP2 SWAP1 PUSH2 0x1B08 JUMP JUMPDEST PUSH1 0x40 MLOAD DUP1 SWAP2 SUB SWAP1 RETURN JUMPDEST CALLVALUE DUP1 ISZERO PUSH2 0x15B JUMPI PUSH1 0x0 DUP1 REVERT JUMPDEST POP PUSH2 0x176 PUSH1 0x4 DUP1 CALLDATASIZE SUB DUP2 ADD SWAP1 PUSH2 0x171 SWAP2 SWAP1 PUSH2 0x1BD2 JUMP JUMPDEST PUSH2 0x4FE JUMP JUMPDEST PUSH1 0x40 MLOAD PUSH2 0x183 SWAP2 SWAP1 PUSH2 0x1C2D JUMP JUMPDEST PUSH1 0x40 MLOAD DUP1 SWAP2 SUB SWAP1 RETURN JUMPDEST CALLVALUE DUP1 ISZERO PUSH2 0x198 JUMPI PUSH1 0x0 DUP1 REVERT JUMPDEST POP PUSH2 0x1A1 PUSH2 0x521 JUMP JUMPDEST PUSH1 0x40 MLOAD PUSH2 0x1AE SWAP2 SWAP1 PUSH2 0x1C57 JUMP JUMPDEST PUSH1 0x40 MLOAD DUP1 SWAP2 SUB SWAP1 RETURN JUMPDEST CALLVALUE DUP1 ISZERO PUSH2 0x1C3 JUMPI PUSH1 0x0 DUP1 REVERT JUMPDEST POP PUSH2 0x1DE PUSH1 0x4 DUP1 CALLDATASIZE SUB DUP2 ADD SWAP1 PUSH2 0x1D9 SWAP2 SWAP1 PUSH2 0x1C72 JUMP JUMPDEST PUSH2 0x52B JUMP JUMPDEST PUSH1 0x40 MLOAD PUSH2 0x1EB SWAP2 SWAP1 PUSH2 0x1C2D JUMP JUMPDEST PUSH1 0x40 MLOAD DUP1 SWAP2 SUB SWAP1 RETURN JUMPDEST PUSH2 0x1FC PUSH2 0x55A JUMP JUMPDEST STOP JUMPDEST CALLVALUE DUP1 ISZERO PUSH2 0x20A JUMPI PUSH1 0x0 DUP1 REVERT JUMPDEST POP PUSH2 0x213 PUSH2 0x59F JUMP JUMPDEST PUSH1 0x40 MLOAD PUSH2 0x220 SWAP2 SWAP1 PUSH2 0x1CE1 JUMP JUMPDEST PUSH1 0x40 MLOAD DUP1 SWAP2 SUB SWAP1 RETURN JUMPDEST CALLVALUE DUP1 ISZERO PUSH2 0x235 JUMPI PUSH1 0x0 DUP1 REVERT JUMPDEST POP PUSH2 0x23E PUSH2 0x5A8 JUMP JUMPDEST PUSH1 0x40 MLOAD PUSH2 0x24B SWAP2 SWAP1 PUSH2 0x1D15 JUMP JUMPDEST PUSH1 0x40 MLOAD DUP1 SWAP2 SUB SWAP1 RETURN JUMPDEST CALLVALUE DUP1 ISZERO PUSH2 0x260 JUMPI PUSH1 0x0 DUP1 REVERT JUMPDEST POP PUSH2 0x27B PUSH1 0x4 DUP1 CALLDATASIZE SUB DUP2 ADD SWAP1 PUSH2 0x276 SWAP2 SWAP1 PUSH2 0x1D30 JUMP JUMPDEST PUSH2 0x5CF JUMP JUMPDEST PUSH1 0x40 MLOAD PUSH2 0x288 SWAP2 SWAP1 PUSH2 0x1C57 JUMP JUMPDEST PUSH1 0x40 MLOAD DUP1 SWAP2 SUB SWAP1 RETURN JUMPDEST CALLVALUE DUP1 ISZERO PUSH2 0x29D JUMPI PUSH1 0x0 DUP1 REVERT JUMPDEST POP PUSH2 0x2A6 PUSH2 0x617 JUMP JUMPDEST STOP JUMPDEST CALLVALUE DUP1 ISZERO PUSH2 0x2B4 JUMPI PUSH1 0x0 DUP1 REVERT JUMPDEST POP PUSH2 0x2BD PUSH2 0x62B JUMP JUMPDEST PUSH1 0x40 MLOAD PUSH2 0x2CA SWAP2 SWAP1 PUSH2 0x1D6C JUMP JUMPDEST PUSH1 0x40 MLOAD DUP1 SWAP2 SUB SWAP1 RETURN JUMPDEST CALLVALUE DUP1 ISZERO PUSH2 0x2DF JUMPI PUSH1 0x0 DUP1 REVERT JUMPDEST POP PUSH2 0x2E8 PUSH2 0x655 JUMP JUMPDEST PUSH1 0x40 MLOAD PUSH2 0x2F5 SWAP2 SWAP1 PUSH2 0x1B08 JUMP JUMPDEST PUSH1 0x40 MLOAD DUP1 SWAP2 SUB SWAP1 RETURN JUMPDEST CALLVALUE DUP1 ISZERO PUSH2 0x30A JUMPI PUSH1 0x0 DUP1 REVERT JUMPDEST POP PUSH2 0x313 PUSH2 0x6E7 JUMP JUMPDEST PUSH1 0x40 MLOAD PUSH2 0x320 SWAP2 SWAP1 PUSH2 0x1D15 JUMP JUMPDEST PUSH1 0x40 MLOAD DUP1 SWAP2 SUB SWAP1 RETURN JUMPDEST CALLVALUE DUP1 ISZERO PUSH2 0x335 JUMPI PUSH1 0x0 DUP1 REVERT JUMPDEST POP PUSH2 0x350 PUSH1 0x4 DUP1 CALLDATASIZE SUB DUP2 ADD SWAP1 PUSH2 0x34B SWAP2 SWAP1 PUSH2 0x1BD2 JUMP JUMPDEST PUSH2 0x70E JUMP JUMPDEST PUSH1 0x40 MLOAD PUSH2 0x35D SWAP2 SWAP1 PUSH2 0x1C2D JUMP JUMPDEST PUSH1 0x40 MLOAD DUP1 SWAP2 SUB SWAP1 RETURN JUMPDEST CALLVALUE DUP1 ISZERO PUSH2 0x372 JUMPI PUSH1 0x0 DUP1 REVERT JUMPDEST POP PUSH2 0x38D PUSH1 0x4 DUP1 CALLDATASIZE SUB DUP2 ADD SWAP1 PUSH2 0x388 SWAP2 SWAP1 PUSH2 0x1F31 JUMP JUMPDEST PUSH2 0x731 JUMP JUMPDEST PUSH1 0x40 MLOAD PUSH2 0x39A SWAP2 SWAP1 PUSH2 0x1C57 JUMP JUMPDEST PUSH1 0x40 MLOAD DUP1 SWAP2 SUB SWAP1 RETURN JUMPDEST PUSH2 0x3BD PUSH1 0x4 DUP1 CALLDATASIZE SUB DUP2 ADD SWAP1 PUSH2 0x3B8 SWAP2 SWAP1 PUSH2 0x1FC3 JUMP JUMPDEST PUSH2 0x743 JUMP JUMPDEST STOP JUMPDEST CALLVALUE DUP1 ISZERO PUSH2 0x3CB JUMPI PUSH1 0x0 DUP1 REVERT JUMPDEST POP PUSH2 0x3E6 PUSH1 0x4 DUP1 CALLDATASIZE SUB DUP2 ADD SWAP1 PUSH2 0x3E1 SWAP2 SWAP1 PUSH2 0x2023 JUMP JUMPDEST PUSH2 0xC38 JUMP JUMPDEST PUSH1 0x40 MLOAD PUSH2 0x3F3 SWAP2 SWAP1 PUSH2 0x1C57 JUMP JUMPDEST PUSH1 0x40 MLOAD DUP1 SWAP2 SUB SWAP1 RETURN JUMPDEST PUSH2 0x416 PUSH1 0x4 DUP1 CALLDATASIZE SUB DUP2 ADD SWAP1 PUSH2 0x411 SWAP2 SWAP1 PUSH2 0x2063 JUMP JUMPDEST PUSH2 0xCBF JUMP JUMPDEST STOP JUMPDEST CALLVALUE DUP1 ISZERO PUSH2 0x424 JUMPI PUSH1 0x0 DUP1 REVERT JUMPDEST POP PUSH2 0x43F PUSH1 0x4 DUP1 CALLDATASIZE SUB DUP2 ADD SWAP1 PUSH2 0x43A SWAP2 SWAP1 PUSH2 0x1D30 JUMP JUMPDEST PUSH2 0x1088 JUMP JUMPDEST STOP JUMPDEST CALLVALUE DUP1 ISZERO PUSH2 0x44D JUMPI PUSH1 0x0 DUP1 REVERT JUMPDEST POP PUSH2 0x456 PUSH2 0x110E JUMP JUMPDEST PUSH1 0x40 MLOAD PUSH2 0x463 SWAP2 SWAP1 PUSH2 0x210F JUMP JUMPDEST PUSH1 0x40 MLOAD DUP1 SWAP2 SUB SWAP1 RETURN JUMPDEST PUSH1 0x60 PUSH1 0x3 DUP1 SLOAD PUSH2 0x47B SWAP1 PUSH2 0x2159 JUMP JUMPDEST DUP1 PUSH1 0x1F ADD PUSH1 0x20 DUP1 SWAP2 DIV MUL PUSH1 0x20 ADD PUSH1 0x40 MLOAD SWAP1 DUP2 ADD PUSH1 0x40 MSTORE DUP1 SWAP3 SWAP2 SWAP1 DUP2 DUP2 MSTORE PUSH1 0x20 ADD DUP3 DUP1 SLOAD PUSH2 0x4A7 SWAP1 PUSH2 0x2159 JUMP JUMPDEST DUP1 ISZERO PUSH2 0x4F4 JUMPI DUP1 PUSH1 0x1F LT PUSH2 0x4C9 JUMPI PUSH2 0x100 DUP1 DUP4 SLOAD DIV MUL DUP4 MSTORE SWAP2 PUSH1 0x20 ADD SWAP2 PUSH2 0x4F4 JUMP JUMPDEST DUP3 ADD SWAP2 SWAP1 PUSH1 0x0 MSTORE PUSH1 0x20 PUSH1 0x0 KECCAK256 SWAP1 JUMPDEST DUP2 SLOAD DUP2 MSTORE SWAP1 PUSH1 0x1 ADD SWAP1 PUSH1 0x20 ADD DUP1 DUP4 GT PUSH2 0x4D7 JUMPI DUP3 SWAP1 SUB PUSH1 0x1F AND DUP3 ADD SWAP2 JUMPDEST POP POP POP POP POP SWAP1 POP SWAP1 JUMP JUMPDEST PUSH1 0x0 DUP1 PUSH2 0x509 PUSH2 0x1134 JUMP JUMPDEST SWAP1 POP PUSH2 0x516 DUP2 DUP6 DUP6 PUSH2 0x113C JUMP JUMPDEST PUSH1 0x1 SWAP2 POP POP SWAP3 SWAP2 POP POP JUMP JUMPDEST PUSH1 0x0 PUSH1 0x2 SLOAD SWAP1 POP SWAP1 JUMP JUMPDEST PUSH1 0x0 DUP1 PUSH2 0x536 PUSH2 0x1134 JUMP JUMPDEST SWAP1 POP PUSH2 0x543 DUP6 DUP3 DUP6 PUSH2 0x114E JUMP JUMPDEST PUSH2 0x54E DUP6 DUP6 DUP6 PUSH2 0x11E3 JUMP JUMPDEST PUSH1 0x1 SWAP2 POP POP SWAP4 SWAP3 POP POP POP JUMP JUMPDEST PUSH1 0x0 CALLVALUE GT PUSH2 0x59D JUMPI PUSH1 0x40 MLOAD PUSH32 0x8C379A000000000000000000000000000000000000000000000000000000000 DUP2 MSTORE PUSH1 0x4 ADD PUSH2 0x594 SWAP1 PUSH2 0x21D6 JUMP JUMPDEST PUSH1 0x40 MLOAD DUP1 SWAP2 SUB SWAP1 REVERT JUMPDEST JUMP JUMPDEST PUSH1 0x0 PUSH1 0x12 SWAP1 POP SWAP1 JUMP JUMPDEST PUSH32 0x49F6B65CB1DE6B10EAF75E7C03CA029C306D0357E91B5311B175084A5AD55688 PUSH1 0x0 SHL DUP2 JUMP JUMPDEST PUSH1 0x0 DUP1 PUSH1 0x0 DUP4 PUSH20 0xFFFFFFFFFFFFFFFFFFFFFFFFFFFFFFFFFFFFFFFF AND PUSH20 0xFFFFFFFFFFFFFFFFFFFFFFFFFFFFFFFFFFFFFFFF AND DUP2 MSTORE PUSH1 0x20 ADD SWAP1 DUP2 MSTORE PUSH1 0x20 ADD PUSH1 0x0 KECCAK256 SLOAD SWAP1 POP SWAP2 SWAP1 POP JUMP JUMPDEST PUSH2 0x61F PUSH2 0x12D7 JUMP JUMPDEST PUSH2 0x629 PUSH1 0x0 PUSH2 0x135E JUMP JUMPDEST JUMP JUMPDEST PUSH1 0x0 PUSH1 0x5 PUSH1 0x0 SWAP1 SLOAD SWAP1 PUSH2 0x100 EXP SWAP1 DIV PUSH20 0xFFFFFFFFFFFFFFFFFFFFFFFFFFFFFFFFFFFFFFFF AND SWAP1 POP SWAP1 JUMP JUMPDEST PUSH1 0x60 PUSH1 0x4 DUP1 SLOAD PUSH2 0x664 SWAP1 PUSH2 0x2159 JUMP JUMPDEST DUP1 PUSH1 0x1F ADD PUSH1 0x20 DUP1 SWAP2 DIV MUL PUSH1 0x20 ADD PUSH1 0x40 MLOAD SWAP1 DUP2 ADD PUSH1 0x40 MSTORE DUP1 SWAP3 SWAP2 SWAP1 DUP2 DUP2 MSTORE PUSH1 0x20 ADD DUP3 DUP1 SLOAD PUSH2 0x690 SWAP1 PUSH2 0x2159 JUMP JUMPDEST DUP1 ISZERO PUSH2 0x6DD JUMPI DUP1 PUSH1 0x1F LT PUSH2 0x6B2 JUMPI PUSH2 0x100 DUP1 DUP4 SLOAD DIV MUL DUP4 MSTORE SWAP2 PUSH1 0x20 ADD SWAP2 PUSH2 0x6DD JUMP JUMPDEST DUP3 ADD SWAP2 SWAP1 PUSH1 0x0 MSTORE PUSH1 0x20 PUSH1 0x0 KECCAK256 SWAP1 JUMPDEST DUP2 SLOAD DUP2 MSTORE SWAP1 PUSH1 0x1 ADD SWAP1 PUSH1 0x20 ADD DUP1 DUP4 GT PUSH2 0x6C0 JUMPI DUP3 SWAP1 SUB PUSH1 0x1F AND DUP3 ADD SWAP2 JUMPDEST POP POP POP POP POP SWAP1 POP SWAP1 JUMP JUMPDEST PUSH32 0xFF61491A931112DDF1BD8147CD1B641375F79F5825126D665480874634FD0ACE PUSH1 0x0 SHL DUP2 JUMP JUMPDEST PUSH1 0x0 DUP1 PUSH2 0x719 PUSH2 0x1134 JUMP JUMPDEST SWAP1 POP PUSH2 0x726 DUP2 DUP6 DUP6 PUSH2 0x11E3 JUMP JUMPDEST PUSH1 0x1 SWAP2 POP POP SWAP3 SWAP2 POP POP JUMP JUMPDEST PUSH1 0x0 PUSH2 0x73C DUP3 PUSH2 0x1424 JUMP JUMPDEST SWAP1 POP SWAP2 SWAP1 POP JUMP JUMPDEST PUSH1 0x0 DUP4 GT PUSH2 0x786 JUMPI PUSH1 0x40 MLOAD PUSH32 0x8C379A000000000000000000000000000000000000000000000000000000000 DUP2 MSTORE PUSH1 0x4 ADD PUSH2 0x77D SWAP1 PUSH2 0x2242 JUMP JUMPDEST PUSH1 0x40 MLOAD DUP1 SWAP2 SUB SWAP1 REVERT JUMPDEST DUP3 PUSH2 0x790 CALLER PUSH2 0x5CF JUMP JUMPDEST LT ISZERO PUSH2 0x7D1 JUMPI PUSH1 0x40 MLOAD PUSH32 0x8C379A000000000000000000000000000000000000000000000000000000000 DUP2 MSTORE PUSH1 0x4 ADD PUSH2 0x7C8 SWAP1 PUSH2 0x22AE JUMP JUMPDEST PUSH1 0x40 MLOAD DUP1 SWAP2 SUB SWAP1 REVERT JUMPDEST PUSH1 0x0 PUSH1 0x6 PUSH1 0x0 SWAP1 SLOAD SWAP1 PUSH2 0x100 EXP SWAP1 DIV PUSH20 0xFFFFFFFFFFFFFFFFFFFFFFFFFFFFFFFFFFFFFFFF AND PUSH20 0xFFFFFFFFFFFFFFFFFFFFFFFFFFFFFFFFFFFFFFFF AND PUSH4 0xD47EED45 DUP5 DUP5 PUSH1 0x40 MLOAD DUP4 PUSH4 0xFFFFFFFF AND PUSH1 0xE0 SHL DUP2 MSTORE PUSH1 0x4 ADD PUSH2 0x830 SWAP3 SWAP2 SWAP1 PUSH2 0x2441 JUMP JUMPDEST PUSH1 0x20 PUSH1 0x40 MLOAD DUP1 DUP4 SUB DUP2 DUP7 GAS STATICCALL ISZERO DUP1 ISZERO PUSH2 0x84D JUMPI RETURNDATASIZE PUSH1 0x0 DUP1 RETURNDATACOPY RETURNDATASIZE PUSH1 0x0 REVERT JUMPDEST POP POP POP POP PUSH1 0x40 MLOAD RETURNDATASIZE PUSH1 0x1F NOT PUSH1 0x1F DUP3 ADD AND DUP3 ADD DUP1 PUSH1 0x40 MSTORE POP DUP2 ADD SWAP1 PUSH2 0x871 SWAP2 SWAP1 PUSH2 0x247A JUMP JUMPDEST SWAP1 POP DUP1 CALLVALUE LT ISZERO PUSH2 0x8B6 JUMPI PUSH1 0x40 MLOAD PUSH32 0x8C379A000000000000000000000000000000000000000000000000000000000 DUP2 MSTORE PUSH1 0x4 ADD PUSH2 0x8AD SWAP1 PUSH2 0x24F3 JUMP JUMPDEST PUSH1 0x40 MLOAD DUP1 SWAP2 SUB SWAP1 REVERT JUMPDEST PUSH1 0x6 PUSH1 0x0 SWAP1 SLOAD SWAP1 PUSH2 0x100 EXP SWAP1 DIV PUSH20 0xFFFFFFFFFFFFFFFFFFFFFFFFFFFFFFFFFFFFFFFF AND PUSH20 0xFFFFFFFFFFFFFFFFFFFFFFFFFFFFFFFFFFFFFFFF AND PUSH4 0xEF9E5E28 DUP3 DUP6 DUP6 PUSH1 0x40 MLOAD DUP5 PUSH4 0xFFFFFFFF AND PUSH1 0xE0 SHL DUP2 MSTORE PUSH1 0x4 ADD PUSH2 0x914 SWAP3 SWAP2 SWAP1 PUSH2 0x2441 JUMP JUMPDEST PUSH1 0x0 PUSH1 0x40 MLOAD DUP1 DUP4 SUB DUP2 DUP6 DUP9 DUP1 EXTCODESIZE ISZERO DUP1 ISZERO PUSH2 0x92D JUMPI PUSH1 0x0 DUP1 REVERT JUMPDEST POP GAS CALL ISZERO DUP1 ISZERO PUSH2 0x941 JUMPI RETURNDATASIZE PUSH1 0x0 DUP1 RETURNDATACOPY RETURNDATASIZE PUSH1 0x0 REVERT JUMPDEST POP POP POP POP POP PUSH1 0x0 PUSH1 0x6 PUSH1 0x0 SWAP1 SLOAD SWAP1 PUSH2 0x100 EXP SWAP1 DIV PUSH20 0xFFFFFFFFFFFFFFFFFFFFFFFFFFFFFFFFFFFFFFFF AND PUSH20 0xFFFFFFFFFFFFFFFFFFFFFFFFFFFFFFFFFFFFFFFF AND PUSH4 0xA4AE35E0 PUSH32 0x49F6B65CB1DE6B10EAF75E7C03CA029C306D0357E91B5311B175084A5AD55688 PUSH1 0x0 SHL PUSH1 0x3C PUSH1 0x40 MLOAD DUP4 PUSH4 0xFFFFFFFF AND PUSH1 0xE0 SHL DUP2 MSTORE PUSH1 0x4 ADD PUSH2 0x9C9 SWAP3 SWAP2 SWAP1 PUSH2 0x254E JUMP JUMPDEST PUSH1 0x80 PUSH1 0x40 MLOAD DUP1 DUP4 SUB DUP2 DUP7 GAS STATICCALL ISZERO DUP1 ISZERO PUSH2 0x9E6 JUMPI RETURNDATASIZE PUSH1 0x0 DUP1 RETURNDATACOPY RETURNDATASIZE PUSH1 0x0 REVERT JUMPDEST POP POP POP POP PUSH1 0x40 MLOAD RETURNDATASIZE PUSH1 0x1F NOT PUSH1 0x1F DUP3 ADD AND DUP3 ADD DUP1 PUSH1 0x40 MSTORE POP DUP2 ADD SWAP1 PUSH2 0xA0A SWAP2 SWAP1 PUSH2 0x262E JUMP JUMPDEST SWAP1 POP PUSH1 0x0 PUSH1 0x6 PUSH1 0x0 SWAP1 SLOAD SWAP1 PUSH2 0x100 EXP SWAP1 DIV PUSH20 0xFFFFFFFFFFFFFFFFFFFFFFFFFFFFFFFFFFFFFFFF AND PUSH20 0xFFFFFFFFFFFFFFFFFFFFFFFFFFFFFFFFFFFFFFFF AND PUSH4 0xA4AE35E0 PUSH32 0xFF61491A931112DDF1BD8147CD1B641375F79F5825126D665480874634FD0ACE PUSH1 0x0 SHL PUSH1 0x3C PUSH1 0x40 MLOAD DUP4 PUSH4 0xFFFFFFFF AND PUSH1 0xE0 SHL DUP2 MSTORE PUSH1 0x4 ADD PUSH2 0xA8F SWAP3 SWAP2 SWAP1 PUSH2 0x254E JUMP JUMPDEST PUSH1 0x80 PUSH1 0x40 MLOAD DUP1 DUP4 SUB DUP2 DUP7 GAS STATICCALL ISZERO DUP1 ISZERO PUSH2 0xAAC JUMPI RETURNDATASIZE PUSH1 0x0 DUP1 RETURNDATACOPY RETURNDATASIZE PUSH1 0x0 REVERT JUMPDEST POP POP POP POP PUSH1 0x40 MLOAD RETURNDATASIZE PUSH1 0x1F NOT PUSH1 0x1F DUP3 ADD AND DUP3 ADD DUP1 PUSH1 0x40 MSTORE POP DUP2 ADD SWAP1 PUSH2 0xAD0 SWAP2 SWAP1 PUSH2 0x262E JUMP JUMPDEST SWAP1 POP PUSH1 0x0 PUSH2 0xADD DUP4 PUSH2 0x1424 JUMP JUMPDEST SWAP1 POP PUSH1 0x0 PUSH2 0xAEA DUP4 PUSH2 0x1424 JUMP JUMPDEST SWAP1 POP PUSH1 0x0 DUP2 PUSH8 0xDE0B6B3A7640000 DUP5 PUSH2 0xB03 SWAP2 SWAP1 PUSH2 0x268A JUMP JUMPDEST PUSH2 0xB0D SWAP2 SWAP1 PUSH2 0x26FB JUMP JUMPDEST SWAP1 POP PUSH1 0x0 PUSH8 0xDE0B6B3A7640000 DUP3 DUP12 PUSH2 0xB26 SWAP2 SWAP1 PUSH2 0x268A JUMP JUMPDEST PUSH2 0xB30 SWAP2 SWAP1 PUSH2 0x26FB JUMP JUMPDEST SWAP1 POP DUP1 SELFBALANCE LT ISZERO PUSH2 0xB75 JUMPI PUSH1 0x40 MLOAD PUSH32 0x8C379A000000000000000000000000000000000000000000000000000000000 DUP2 MSTORE PUSH1 0x4 ADD PUSH2 0xB6C SWAP1 PUSH2 0x2778 JUMP JUMPDEST PUSH1 0x40 MLOAD DUP1 SWAP2 SUB SWAP1 REVERT JUMPDEST PUSH2 0xB7F CALLER DUP12 PUSH2 0x1578 JUMP JUMPDEST PUSH1 0x0 CALLER PUSH20 0xFFFFFFFFFFFFFFFFFFFFFFFFFFFFFFFFFFFFFFFF AND DUP3 PUSH1 0x40 MLOAD PUSH2 0xBA5 SWAP1 PUSH2 0x27C9 JUMP JUMPDEST PUSH1 0x0 PUSH1 0x40 MLOAD DUP1 DUP4 SUB DUP2 DUP6 DUP8 GAS CALL SWAP3 POP POP POP RETURNDATASIZE DUP1 PUSH1 0x0 DUP2 EQ PUSH2 0xBE2 JUMPI PUSH1 0x40 MLOAD SWAP2 POP PUSH1 0x1F NOT PUSH1 0x3F RETURNDATASIZE ADD AND DUP3 ADD PUSH1 0x40 MSTORE RETURNDATASIZE DUP3 MSTORE RETURNDATASIZE PUSH1 0x0 PUSH1 0x20 DUP5 ADD RETURNDATACOPY PUSH2 0xBE7 JUMP JUMPDEST PUSH1 0x60 SWAP2 POP JUMPDEST POP POP SWAP1 POP DUP1 PUSH2 0xC2B JUMPI PUSH1 0x40 MLOAD PUSH32 0x8C379A000000000000000000000000000000000000000000000000000000000 DUP2 MSTORE PUSH1 0x4 ADD PUSH2 0xC22 SWAP1 PUSH2 0x282A JUMP JUMPDEST PUSH1 0x40 MLOAD DUP1 SWAP2 SUB SWAP1 REVERT JUMPDEST POP POP POP POP POP POP POP POP POP POP POP JUMP JUMPDEST PUSH1 0x0 PUSH1 0x1 PUSH1 0x0 DUP5 PUSH20 0xFFFFFFFFFFFFFFFFFFFFFFFFFFFFFFFFFFFFFFFF AND PUSH20 0xFFFFFFFFFFFFFFFFFFFFFFFFFFFFFFFFFFFFFFFF AND DUP2 MSTORE PUSH1 0x20 ADD SWAP1 DUP2 MSTORE PUSH1 0x20 ADD PUSH1 0x0 KECCAK256 PUSH1 0x0 DUP4 PUSH20 0xFFFFFFFFFFFFFFFFFFFFFFFFFFFFFFFFFFFFFFFF AND PUSH20 0xFFFFFFFFFFFFFFFFFFFFFFFFFFFFFFFFFFFFFFFF AND DUP2 MSTORE PUSH1 0x20 ADD SWAP1 DUP2 MSTORE PUSH1 0x20 ADD PUSH1 0x0 KECCAK256 SLOAD SWAP1 POP SWAP3 SWAP2 POP POP JUMP JUMPDEST PUSH1 0x0 CALLVALUE GT PUSH2 0xD02 JUMPI PUSH1 0x40 MLOAD PUSH32 0x8C379A000000000000000000000000000000000000000000000000000000000 DUP2 MSTORE PUSH1 0x4 ADD PUSH2 0xCF9 SWAP1 PUSH2 0x2896 JUMP JUMPDEST PUSH1 0x40 MLOAD DUP1 SWAP2 SUB SWAP1 REVERT JUMPDEST PUSH1 0x0 PUSH1 0x6 PUSH1 0x0 SWAP1 SLOAD SWAP1 PUSH2 0x100 EXP SWAP1 DIV PUSH20 0xFFFFFFFFFFFFFFFFFFFFFFFFFFFFFFFFFFFFFFFF AND PUSH20 0xFFFFFFFFFFFFFFFFFFFFFFFFFFFFFFFFFFFFFFFF AND PUSH4 0xD47EED45 DUP5 DUP5 PUSH1 0x40 MLOAD DUP4 PUSH4 0xFFFFFFFF AND PUSH1 0xE0 SHL DUP2 MSTORE PUSH1 0x4 ADD PUSH2 0xD61 SWAP3 SWAP2 SWAP1 PUSH2 0x2441 JUMP JUMPDEST PUSH1 0x20 PUSH1 0x40 MLOAD DUP1 DUP4 SUB DUP2 DUP7 GAS STATICCALL ISZERO DUP1 ISZERO PUSH2 0xD7E JUMPI RETURNDATASIZE PUSH1 0x0 DUP1 RETURNDATACOPY RETURNDATASIZE PUSH1 0x0 REVERT JUMPDEST POP POP POP POP PUSH1 0x40 MLOAD RETURNDATASIZE PUSH1 0x1F NOT PUSH1 0x1F DUP3 ADD AND DUP3 ADD DUP1 PUSH1 0x40 MSTORE POP DUP2 ADD SWAP1 PUSH2 0xDA2 SWAP2 SWAP1 PUSH2 0x247A JUMP JUMPDEST SWAP1 POP DUP1 CALLVALUE GT PUSH2 0xDE6 JUMPI PUSH1 0x40 MLOAD PUSH32 0x8C379A000000000000000000000000000000000000000000000000000000000 DUP2 MSTORE PUSH1 0x4 ADD PUSH2 0xDDD SWAP1 PUSH2 0x2902 JUMP JUMPDEST PUSH1 0x40 MLOAD DUP1 SWAP2 SUB SWAP1 REVERT JUMPDEST PUSH1 0x6 PUSH1 0x0 SWAP1 SLOAD SWAP1 PUSH2 0x100 EXP SWAP1 DIV PUSH20 0xFFFFFFFFFFFFFFFFFFFFFFFFFFFFFFFFFFFFFFFF AND PUSH20 0xFFFFFFFFFFFFFFFFFFFFFFFFFFFFFFFFFFFFFFFF AND PUSH4 0xEF9E5E28 DUP3 DUP6 DUP6 PUSH1 0x40 MLOAD DUP5 PUSH4 0xFFFFFFFF AND PUSH1 0xE0 SHL DUP2 MSTORE PUSH1 0x4 ADD PUSH2 0xE44 SWAP3 SWAP2 SWAP1 PUSH2 0x2441 JUMP JUMPDEST PUSH1 0x0 PUSH1 0x40 MLOAD DUP1 DUP4 SUB DUP2 DUP6 DUP9 DUP1 EXTCODESIZE ISZERO DUP1 ISZERO PUSH2 0xE5D JUMPI PUSH1 0x0 DUP1 REVERT JUMPDEST POP GAS CALL ISZERO DUP1 ISZERO PUSH2 0xE71 JUMPI RETURNDATASIZE PUSH1 0x0 DUP1 RETURNDATACOPY RETURNDATASIZE PUSH1 0x0 REVERT JUMPDEST POP POP POP POP POP PUSH1 0x0 PUSH1 0x6 PUSH1 0x0 SWAP1 SLOAD SWAP1 PUSH2 0x100 EXP SWAP1 DIV PUSH20 0xFFFFFFFFFFFFFFFFFFFFFFFFFFFFFFFFFFFFFFFF AND PUSH20 0xFFFFFFFFFFFFFFFFFFFFFFFFFFFFFFFFFFFFFFFF AND PUSH4 0xA4AE35E0 PUSH32 0x49F6B65CB1DE6B10EAF75E7C03CA029C306D0357E91B5311B175084A5AD55688 PUSH1 0x0 SHL PUSH1 0x3C PUSH1 0x40 MLOAD DUP4 PUSH4 0xFFFFFFFF AND PUSH1 0xE0 SHL DUP2 MSTORE PUSH1 0x4 ADD PUSH2 0xEF9 SWAP3 SWAP2 SWAP1 PUSH2 0x254E JUMP JUMPDEST PUSH1 0x80 PUSH1 0x40 MLOAD DUP1 DUP4 SUB DUP2 DUP7 GAS STATICCALL ISZERO DUP1 ISZERO PUSH2 0xF16 JUMPI RETURNDATASIZE PUSH1 0x0 DUP1 RETURNDATACOPY RETURNDATASIZE PUSH1 0x0 REVERT JUMPDEST POP POP POP POP PUSH1 0x40 MLOAD RETURNDATASIZE PUSH1 0x1F NOT PUSH1 0x1F DUP3 ADD AND DUP3 ADD DUP1 PUSH1 0x40 MSTORE POP DUP2 ADD SWAP1 PUSH2 0xF3A SWAP2 SWAP1 PUSH2 0x262E JUMP JUMPDEST SWAP1 POP PUSH1 0x0 PUSH1 0x6 PUSH1 0x0 SWAP1 SLOAD SWAP1 PUSH2 0x100 EXP SWAP1 DIV PUSH20 0xFFFFFFFFFFFFFFFFFFFFFFFFFFFFFFFFFFFFFFFF AND PUSH20 0xFFFFFFFFFFFFFFFFFFFFFFFFFFFFFFFFFFFFFFFF AND PUSH4 0xA4AE35E0 PUSH32 0xFF61491A931112DDF1BD8147CD1B641375F79F5825126D665480874634FD0ACE PUSH1 0x0 SHL PUSH1 0x3C PUSH1 0x40 MLOAD DUP4 PUSH4 0xFFFFFFFF AND PUSH1 0xE0 SHL DUP2 MSTORE PUSH1 0x4 ADD PUSH2 0xFBF SWAP3 SWAP2 SWAP1 PUSH2 0x254E JUMP JUMPDEST PUSH1 0x80 PUSH1 0x40 MLOAD DUP1 DUP4 SUB DUP2 DUP7 GAS STATICCALL ISZERO DUP1 ISZERO PUSH2 0xFDC JUMPI RETURNDATASIZE PUSH1 0x0 DUP1 RETURNDATACOPY RETURNDATASIZE PUSH1 0x0 REVERT JUMPDEST POP POP POP POP PUSH1 0x40 MLOAD RETURNDATASIZE PUSH1 0x1F NOT PUSH1 0x1F DUP3 ADD AND DUP3 ADD DUP1 PUSH1 0x40 MSTORE POP DUP2 ADD SWAP1 PUSH2 0x1000 SWAP2 SWAP1 PUSH2 0x262E JUMP JUMPDEST SWAP1 POP PUSH1 0x0 PUSH2 0x100D DUP4 PUSH2 0x1424 JUMP JUMPDEST SWAP1 POP PUSH1 0x0 PUSH2 0x101A DUP4 PUSH2 0x1424 JUMP JUMPDEST SWAP1 POP PUSH1 0x0 DUP2 PUSH8 0xDE0B6B3A7640000 DUP5 PUSH2 0x1033 SWAP2 SWAP1 PUSH2 0x268A JUMP JUMPDEST PUSH2 0x103D SWAP2 SWAP1 PUSH2 0x26FB JUMP JUMPDEST SWAP1 POP PUSH1 0x0 DUP7 CALLVALUE PUSH2 0x104D SWAP2 SWAP1 PUSH2 0x2922 JUMP JUMPDEST SWAP1 POP PUSH1 0x0 DUP3 PUSH8 0xDE0B6B3A7640000 DUP4 PUSH2 0x1066 SWAP2 SWAP1 PUSH2 0x268A JUMP JUMPDEST PUSH2 0x1070 SWAP2 SWAP1 PUSH2 0x26FB JUMP JUMPDEST SWAP1 POP PUSH2 0x107C CALLER DUP3 PUSH2 0x15FA JUMP JUMPDEST POP POP POP POP POP POP POP POP POP POP JUMP JUMPDEST PUSH2 0x1090 PUSH2 0x12D7 JUMP JUMPDEST PUSH1 0x0 PUSH20 0xFFFFFFFFFFFFFFFFFFFFFFFFFFFFFFFFFFFFFFFF AND DUP2 PUSH20 0xFFFFFFFFFFFFFFFFFFFFFFFFFFFFFFFFFFFFFFFF AND SUB PUSH2 0x1102 JUMPI PUSH1 0x0 PUSH1 0x40 MLOAD PUSH32 0x1E4FBDF700000000000000000000000000000000000000000000000000000000 DUP2 MSTORE PUSH1 0x4 ADD PUSH2 0x10F9 SWAP2 SWAP1 PUSH2 0x1D6C JUMP JUMPDEST PUSH1 0x40 MLOAD DUP1 SWAP2 SUB SWAP1 REVERT JUMPDEST PUSH2 0x110B DUP2 PUSH2 0x135E JUMP JUMPDEST POP JUMP JUMPDEST PUSH1 0x6 PUSH1 0x0 SWAP1 SLOAD SWAP1 PUSH2 0x100 EXP SWAP1 DIV PUSH20 0xFFFFFFFFFFFFFFFFFFFFFFFFFFFFFFFFFFFFFFFF AND DUP2 JUMP JUMPDEST PUSH1 0x0 CALLER SWAP1 POP SWAP1 JUMP JUMPDEST PUSH2 0x1149 DUP4 DUP4 DUP4 PUSH1 0x1 PUSH2 0x167C JUMP JUMPDEST POP POP POP JUMP JUMPDEST PUSH1 0x0 PUSH2 0x115A DUP5 DUP5 PUSH2 0xC38 JUMP JUMPDEST SWAP1 POP PUSH32 0xFFFFFFFFFFFFFFFFFFFFFFFFFFFFFFFFFFFFFFFFFFFFFFFFFFFFFFFFFFFFFFFF DUP2 LT ISZERO PUSH2 0x11DD JUMPI DUP2 DUP2 LT ISZERO PUSH2 0x11CD JUMPI DUP3 DUP2 DUP4 PUSH1 0x40 MLOAD PUSH32 0xFB8F41B200000000000000000000000000000000000000000000000000000000 DUP2 MSTORE PUSH1 0x4 ADD PUSH2 0x11C4 SWAP4 SWAP3 SWAP2 SWAP1 PUSH2 0x2956 JUMP JUMPDEST PUSH1 0x40 MLOAD DUP1 SWAP2 SUB SWAP1 REVERT JUMPDEST PUSH2 0x11DC DUP5 DUP5 DUP5 DUP5 SUB PUSH1 0x0 PUSH2 0x167C JUMP JUMPDEST JUMPDEST POP POP POP POP JUMP JUMPDEST PUSH1 0x0 PUSH20 0xFFFFFFFFFFFFFFFFFFFFFFFFFFFFFFFFFFFFFFFF AND DUP4 PUSH20 0xFFFFFFFFFFFFFFFFFFFFFFFFFFFFFFFFFFFFFFFF AND SUB PUSH2 0x1255 JUMPI PUSH1 0x0 PUSH1 0x40 MLOAD PUSH32 0x96C6FD1E00000000000000000000000000000000000000000000000000000000 DUP2 MSTORE PUSH1 0x4 ADD PUSH2 0x124C SWAP2 SWAP1 PUSH2 0x1D6C JUMP JUMPDEST PUSH1 0x40 MLOAD DUP1 SWAP2 SUB SWAP1 REVERT JUMPDEST PUSH1 0x0 PUSH20 0xFFFFFFFFFFFFFFFFFFFFFFFFFFFFFFFFFFFFFFFF AND DUP3 PUSH20 0xFFFFFFFFFFFFFFFFFFFFFFFFFFFFFFFFFFFFFFFF AND SUB PUSH2 0x12C7 JUMPI PUSH1 0x0 PUSH1 0x40 MLOAD PUSH32 0xEC442F0500000000000000000000000000000000000000000000000000000000 DUP2 MSTORE PUSH1 0x4 ADD PUSH2 0x12BE SWAP2 SWAP1 PUSH2 0x1D6C JUMP JUMPDEST PUSH1 0x40 MLOAD DUP1 SWAP2 SUB SWAP1 REVERT JUMPDEST PUSH2 0x12D2 DUP4 DUP4 DUP4 PUSH2 0x1853 JUMP JUMPDEST POP POP POP JUMP JUMPDEST PUSH2 0x12DF PUSH2 0x1134 JUMP JUMPDEST PUSH20 0xFFFFFFFFFFFFFFFFFFFFFFFFFFFFFFFFFFFFFFFF AND PUSH2 0x12FD PUSH2 0x62B JUMP JUMPDEST PUSH20 0xFFFFFFFFFFFFFFFFFFFFFFFFFFFFFFFFFFFFFFFF AND EQ PUSH2 0x135C JUMPI PUSH2 0x1320 PUSH2 0x1134 JUMP JUMPDEST PUSH1 0x40 MLOAD PUSH32 0x118CDAA700000000000000000000000000000000000000000000000000000000 DUP2 MSTORE PUSH1 0x4 ADD PUSH2 0x1353 SWAP2 SWAP1 PUSH2 0x1D6C JUMP JUMPDEST PUSH1 0x40 MLOAD DUP1 SWAP2 SUB SWAP1 REVERT JUMPDEST JUMP JUMPDEST PUSH1 0x0 PUSH1 0x5 PUSH1 0x0 SWAP1 SLOAD SWAP1 PUSH2 0x100 EXP SWAP1 DIV PUSH20 0xFFFFFFFFFFFFFFFFFFFFFFFFFFFFFFFFFFFFFFFF AND SWAP1 POP DUP2 PUSH1 0x5 PUSH1 0x0 PUSH2 0x100 EXP DUP2 SLOAD DUP2 PUSH20 0xFFFFFFFFFFFFFFFFFFFFFFFFFFFFFFFFFFFFFFFF MUL NOT AND SWAP1 DUP4 PUSH20 0xFFFFFFFFFFFFFFFFFFFFFFFFFFFFFFFFFFFFFFFF AND MUL OR SWAP1 SSTORE POP DUP2 PUSH20 0xFFFFFFFFFFFFFFFFFFFFFFFFFFFFFFFFFFFFFFFF AND DUP2 PUSH20 0xFFFFFFFFFFFFFFFFFFFFFFFFFFFFFFFFFFFFFFFF AND PUSH32 0x8BE0079C531659141344CD1FD0A4F28419497F9722A3DAAFE3B4186F6B6457E0 PUSH1 0x40 MLOAD PUSH1 0x40 MLOAD DUP1 SWAP2 SUB SWAP1 LOG3 POP POP JUMP JUMPDEST PUSH1 0x0 DUP1 DUP3 PUSH1 0x0 ADD MLOAD PUSH1 0x7 SIGNEXTEND SLT ISZERO PUSH2 0x1470 JUMPI PUSH1 0x40 MLOAD PUSH32 0x8C379A000000000000000000000000000000000000000000000000000000000 DUP2 MSTORE PUSH1 0x4 ADD PUSH2 0x1467 SWAP1 PUSH2 0x29D9 JUMP JUMPDEST PUSH1 0x40 MLOAD DUP1 SWAP2 SUB SWAP1 REVERT JUMPDEST PUSH1 0x0 DUP3 PUSH1 0x0 ADD MLOAD PUSH8 0xFFFFFFFFFFFFFFFF AND SWAP1 POP PUSH1 0x0 DUP4 PUSH1 0x40 ADD MLOAD SWAP1 POP PUSH1 0x0 DUP2 PUSH1 0x3 SIGNEXTEND SLT ISZERO PUSH2 0x150C JUMPI PUSH1 0x0 DUP2 PUSH2 0x14A4 SWAP1 PUSH2 0x29F9 JUMP JUMPDEST PUSH4 0xFFFFFFFF AND SWAP1 POP PUSH1 0x12 DUP2 GT PUSH2 0x14DD JUMPI DUP1 PUSH1 0x12 PUSH2 0x14C1 SWAP2 SWAP1 PUSH2 0x2922 JUMP JUMPDEST PUSH1 0xA PUSH2 0x14CD SWAP2 SWAP1 PUSH2 0x2B74 JUMP JUMPDEST DUP4 PUSH2 0x14D8 SWAP2 SWAP1 PUSH2 0x268A JUMP JUMPDEST PUSH2 0x1502 JUMP JUMPDEST PUSH1 0x12 DUP2 PUSH2 0x14EA SWAP2 SWAP1 PUSH2 0x2922 JUMP JUMPDEST PUSH1 0xA PUSH2 0x14F6 SWAP2 SWAP1 PUSH2 0x2B74 JUMP JUMPDEST DUP4 PUSH2 0x1501 SWAP2 SWAP1 PUSH2 0x26FB JUMP JUMPDEST JUMPDEST SWAP4 POP POP POP POP PUSH2 0x1573 JUMP JUMPDEST PUSH1 0x0 DUP2 PUSH4 0xFFFFFFFF AND SWAP1 POP PUSH1 0x12 DUP2 GT PUSH2 0x1548 JUMPI DUP1 PUSH1 0x12 PUSH2 0x152C SWAP2 SWAP1 PUSH2 0x2922 JUMP JUMPDEST PUSH1 0xA PUSH2 0x1538 SWAP2 SWAP1 PUSH2 0x2B74 JUMP JUMPDEST DUP4 PUSH2 0x1543 SWAP2 SWAP1 PUSH2 0x268A JUMP JUMPDEST PUSH2 0x156D JUMP JUMPDEST PUSH1 0x12 DUP2 PUSH2 0x1555 SWAP2 SWAP1 PUSH2 0x2922 JUMP JUMPDEST PUSH1 0xA PUSH2 0x1561 SWAP2 SWAP1 PUSH2 0x2B74 JUMP JUMPDEST DUP4 PUSH2 0x156C SWAP2 SWAP1 PUSH2 0x26FB JUMP JUMPDEST JUMPDEST SWAP4 POP POP POP POP JUMPDEST SWAP2 SWAP1 POP JUMP JUMPDEST PUSH1 0x0 PUSH20 0xFFFFFFFFFFFFFFFFFFFFFFFFFFFFFFFFFFFFFFFF AND DUP3 PUSH20 0xFFFFFFFFFFFFFFFFFFFFFFFFFFFFFFFFFFFFFFFF AND SUB PUSH2 0x15EA JUMPI PUSH1 0x0 PUSH1 0x40 MLOAD PUSH32 0x96C6FD1E00000000000000000000000000000000000000000000000000000000 DUP2 MSTORE PUSH1 0x4 ADD PUSH2 0x15E1 SWAP2 SWAP1 PUSH2 0x1D6C JUMP JUMPDEST PUSH1 0x40 MLOAD DUP1 SWAP2 SUB SWAP1 REVERT JUMPDEST PUSH2 0x15F6 DUP3 PUSH1 0x0 DUP4 PUSH2 0x1853 JUMP JUMPDEST POP POP JUMP JUMPDEST PUSH1 0x0 PUSH20 0xFFFFFFFFFFFFFFFFFFFFFFFFFFFFFFFFFFFFFFFF AND DUP3 PUSH20 0xFFFFFFFFFFFFFFFFFFFFFFFFFFFFFFFFFFFFFFFF AND SUB PUSH2 0x166C JUMPI PUSH1 0x0 PUSH1 0x40 MLOAD PUSH32 0xEC442F0500000000000000000000000000000000000000000000000000000000 DUP2 MSTORE PUSH1 0x4 ADD PUSH2 0x1663 SWAP2 SWAP1 PUSH2 0x1D6C JUMP JUMPDEST PUSH1 0x40 MLOAD DUP1 SWAP2 SUB SWAP1 REVERT JUMPDEST PUSH2 0x1678 PUSH1 0x0 DUP4 DUP4 PUSH2 0x1853 JUMP JUMPDEST POP POP JUMP JUMPDEST PUSH1 0x0 PUSH20 0xFFFFFFFFFFFFFFFFFFFFFFFFFFFFFFFFFFFFFFFF AND DUP5 PUSH20 0xFFFFFFFFFFFFFFFFFFFFFFFFFFFFFFFFFFFFFFFF AND SUB PUSH2 0x16EE JUMPI PUSH1 0x0 PUSH1 0x40 MLOAD PUSH32 0xE602DF0500000000000000000000000000000000000000000000000000000000 DUP2 MSTORE PUSH1 0x4 ADD PUSH2 0x16E5 SWAP2 SWAP1 PUSH2 0x1D6C JUMP JUMPDEST PUSH1 0x40 MLOAD DUP1 SWAP2 SUB SWAP1 REVERT JUMPDEST PUSH1 0x0 PUSH20 0xFFFFFFFFFFFFFFFFFFFFFFFFFFFFFFFFFFFFFFFF AND DUP4 PUSH20 0xFFFFFFFFFFFFFFFFFFFFFFFFFFFFFFFFFFFFFFFF AND SUB PUSH2 0x1760 JUMPI PUSH1 0x0 PUSH1 0x40 MLOAD PUSH32 0x94280D6200000000000000000000000000000000000000000000000000000000 DUP2 MSTORE PUSH1 0x4 ADD PUSH2 0x1757 SWAP2 SWAP1 PUSH2 0x1D6C JUMP JUMPDEST PUSH1 0x40 MLOAD DUP1 SWAP2 SUB SWAP1 REVERT JUMPDEST DUP2 PUSH1 0x1 PUSH1 0x0 DUP7 PUSH20 0xFFFFFFFFFFFFFFFFFFFFFFFFFFFFFFFFFFFFFFFF AND PUSH20 0xFFFFFFFFFFFFFFFFFFFFFFFFFFFFFFFFFFFFFFFF AND DUP2 MSTORE PUSH1 0x20 ADD SWAP1 DUP2 MSTORE PUSH1 0x20 ADD PUSH1 0x0 KECCAK256 PUSH1 0x0 DUP6 PUSH20 0xFFFFFFFFFFFFFFFFFFFFFFFFFFFFFFFFFFFFFFFF AND PUSH20 0xFFFFFFFFFFFFFFFFFFFFFFFFFFFFFFFFFFFFFFFF AND DUP2 MSTORE PUSH1 0x20 ADD SWAP1 DUP2 MSTORE PUSH1 0x20 ADD PUSH1 0x0 KECCAK256 DUP2 SWAP1 SSTORE POP DUP1 ISZERO PUSH2 0x184D JUMPI DUP3 PUSH20 0xFFFFFFFFFFFFFFFFFFFFFFFFFFFFFFFFFFFFFFFF AND DUP5 PUSH20 0xFFFFFFFFFFFFFFFFFFFFFFFFFFFFFFFFFFFFFFFF AND PUSH32 0x8C5BE1E5EBEC7D5BD14F71427D1E84F3DD0314C0F7B2291E5B200AC8C7C3B925 DUP5 PUSH1 0x40 MLOAD PUSH2 0x1844 SWAP2 SWAP1 PUSH2 0x1C57 JUMP JUMPDEST PUSH1 0x40 MLOAD DUP1 SWAP2 SUB SWAP1 LOG3 JUMPDEST POP POP POP POP JUMP JUMPDEST PUSH1 0x0 PUSH20 0xFFFFFFFFFFFFFFFFFFFFFFFFFFFFFFFFFFFFFFFF AND DUP4 PUSH20 0xFFFFFFFFFFFFFFFFFFFFFFFFFFFFFFFFFFFFFFFF AND SUB PUSH2 0x18A5 JUMPI DUP1 PUSH1 0x2 PUSH1 0x0 DUP3 DUP3 SLOAD PUSH2 0x1899 SWAP2 SWAP1 PUSH2 0x2BBF JUMP JUMPDEST SWAP3 POP POP DUP2 SWAP1 SSTORE POP PUSH2 0x1978 JUMP JUMPDEST PUSH1 0x0 DUP1 PUSH1 0x0 DUP6 PUSH20 0xFFFFFFFFFFFFFFFFFFFFFFFFFFFFFFFFFFFFFFFF AND PUSH20 0xFFFFFFFFFFFFFFFFFFFFFFFFFFFFFFFFFFFFFFFF AND DUP2 MSTORE PUSH1 0x20 ADD SWAP1 DUP2 MSTORE PUSH1 0x20 ADD PUSH1 0x0 KECCAK256 SLOAD SWAP1 POP DUP2 DUP2 LT ISZERO PUSH2 0x1931 JUMPI DUP4 DUP2 DUP4 PUSH1 0x40 MLOAD PUSH32 0xE450D38C00000000000000000000000000000000000000000000000000000000 DUP2 MSTORE PUSH1 0x4 ADD PUSH2 0x1928 SWAP4 SWAP3 SWAP2 SWAP1 PUSH2 0x2956 JUMP JUMPDEST PUSH1 0x40 MLOAD DUP1 SWAP2 SUB SWAP1 REVERT JUMPDEST DUP2 DUP2 SUB PUSH1 0x0 DUP1 DUP7 PUSH20 0xFFFFFFFFFFFFFFFFFFFFFFFFFFFFFFFFFFFFFFFF AND PUSH20 0xFFFFFFFFFFFFFFFFFFFFFFFFFFFFFFFFFFFFFFFF AND DUP2 MSTORE PUSH1 0x20 ADD SWAP1 DUP2 MSTORE PUSH1 0x20 ADD PUSH1 0x0 KECCAK256 DUP2 SWAP1 SSTORE POP POP JUMPDEST PUSH1 0x0 PUSH20 0xFFFFFFFFFFFFFFFFFFFFFFFFFFFFFFFFFFFFFFFF AND DUP3 PUSH20 0xFFFFFFFFFFFFFFFFFFFFFFFFFFFFFFFFFFFFFFFF AND SUB PUSH2 0x19C1 JUMPI DUP1 PUSH1 0x2 PUSH1 0x0 DUP3 DUP3 SLOAD SUB SWAP3 POP POP DUP2 SWAP1 SSTORE POP PUSH2 0x1A0E JUMP JUMPDEST DUP1 PUSH1 0x0 DUP1 DUP5 PUSH20 0xFFFFFFFFFFFFFFFFFFFFFFFFFFFFFFFFFFFFFFFF AND PUSH20 0xFFFFFFFFFFFFFFFFFFFFFFFFFFFFFFFFFFFFFFFF AND DUP2 MSTORE PUSH1 0x20 ADD SWAP1 DUP2 MSTORE PUSH1 0x20 ADD PUSH1 0x0 KECCAK256 PUSH1 0x0 DUP3 DUP3 SLOAD ADD SWAP3 POP POP DUP2 SWAP1 SSTORE POP JUMPDEST DUP2 PUSH20 0xFFFFFFFFFFFFFFFFFFFFFFFFFFFFFFFFFFFFFFFF AND DUP4 PUSH20 0xFFFFFFFFFFFFFFFFFFFFFFFFFFFFFFFFFFFFFFFF AND PUSH32 0xDDF252AD1BE2C89B69C2B068FC378DAA952BA7F163C4A11628F55A4DF523B3EF DUP4 PUSH1 0x40 MLOAD PUSH2 0x1A6B SWAP2 SWAP1 PUSH2 0x1C57 JUMP JUMPDEST PUSH1 0x40 MLOAD DUP1 SWAP2 SUB SWAP1 LOG3 POP POP POP JUMP JUMPDEST PUSH1 0x0 DUP2 MLOAD SWAP1 POP SWAP2 SWAP1 POP JUMP JUMPDEST PUSH1 0x0 DUP3 DUP3 MSTORE PUSH1 0x20 DUP3 ADD SWAP1 POP SWAP3 SWAP2 POP POP JUMP JUMPDEST PUSH1 0x0 JUMPDEST DUP4 DUP2 LT ISZERO PUSH2 0x1AB2 JUMPI DUP1 DUP3 ADD MLOAD DUP2 DUP5 ADD MSTORE PUSH1 0x20 DUP2 ADD SWAP1 POP PUSH2 0x1A97 JUMP JUMPDEST PUSH1 0x0 DUP5 DUP5 ADD MSTORE POP POP POP POP JUMP JUMPDEST PUSH1 0x0 PUSH1 0x1F NOT PUSH1 0x1F DUP4 ADD AND SWAP1 POP SWAP2 SWAP1 POP JUMP JUMPDEST PUSH1 0x0 PUSH2 0x1ADA DUP3 PUSH2 0x1A78 JUMP JUMPDEST PUSH2 0x1AE4 DUP2 DUP6 PUSH2 0x1A83 JUMP JUMPDEST SWAP4 POP PUSH2 0x1AF4 DUP2 DUP6 PUSH1 0x20 DUP7 ADD PUSH2 0x1A94 JUMP JUMPDEST PUSH2 0x1AFD DUP2 PUSH2 0x1ABE JUMP JUMPDEST DUP5 ADD SWAP2 POP POP SWAP3 SWAP2 POP POP JUMP JUMPDEST PUSH1 0x0 PUSH1 0x20 DUP3 ADD SWAP1 POP DUP2 DUP2 SUB PUSH1 0x0 DUP4 ADD MSTORE PUSH2 0x1B22 DUP2 DUP5 PUSH2 0x1ACF JUMP JUMPDEST SWAP1 POP SWAP3 SWAP2 POP POP JUMP JUMPDEST PUSH1 0x0 PUSH1 0x40 MLOAD SWAP1 POP SWAP1 JUMP JUMPDEST PUSH1 0x0 DUP1 REVERT JUMPDEST PUSH1 0x0 DUP1 REVERT JUMPDEST PUSH1 0x0 PUSH20 0xFFFFFFFFFFFFFFFFFFFFFFFFFFFFFFFFFFFFFFFF DUP3 AND SWAP1 POP SWAP2 SWAP1 POP JUMP JUMPDEST PUSH1 0x0 PUSH2 0x1B69 DUP3 PUSH2 0x1B3E JUMP JUMPDEST SWAP1 POP SWAP2 SWAP1 POP JUMP JUMPDEST PUSH2 0x1B79 DUP2 PUSH2 0x1B5E JUMP JUMPDEST DUP2 EQ PUSH2 0x1B84 JUMPI PUSH1 0x0 DUP1 REVERT JUMPDEST POP JUMP JUMPDEST PUSH1 0x0 DUP2 CALLDATALOAD SWAP1 POP PUSH2 0x1B96 DUP2 PUSH2 0x1B70 JUMP JUMPDEST SWAP3 SWAP2 POP POP JUMP JUMPDEST PUSH1 0x0 DUP2 SWAP1 POP SWAP2 SWAP1 POP JUMP JUMPDEST PUSH2 0x1BAF DUP2 PUSH2 0x1B9C JUMP JUMPDEST DUP2 EQ PUSH2 0x1BBA JUMPI PUSH1 0x0 DUP1 REVERT JUMPDEST POP JUMP JUMPDEST PUSH1 0x0 DUP2 CALLDATALOAD SWAP1 POP PUSH2 0x1BCC DUP2 PUSH2 0x1BA6 JUMP JUMPDEST SWAP3 SWAP2 POP POP JUMP JUMPDEST PUSH1 0x0 DUP1 PUSH1 0x40 DUP4 DUP6 SUB SLT ISZERO PUSH2 0x1BE9 JUMPI PUSH2 0x1BE8 PUSH2 0x1B34 JUMP JUMPDEST JUMPDEST PUSH1 0x0 PUSH2 0x1BF7 DUP6 DUP3 DUP7 ADD PUSH2 0x1B87 JUMP JUMPDEST SWAP3 POP POP PUSH1 0x20 PUSH2 0x1C08 DUP6 DUP3 DUP7 ADD PUSH2 0x1BBD JUMP JUMPDEST SWAP2 POP POP SWAP3 POP SWAP3 SWAP1 POP JUMP JUMPDEST PUSH1 0x0 DUP2 ISZERO ISZERO SWAP1 POP SWAP2 SWAP1 POP JUMP JUMPDEST PUSH2 0x1C27 DUP2 PUSH2 0x1C12 JUMP JUMPDEST DUP3 MSTORE POP POP JUMP JUMPDEST PUSH1 0x0 PUSH1 0x20 DUP3 ADD SWAP1 POP PUSH2 0x1C42 PUSH1 0x0 DUP4 ADD DUP5 PUSH2 0x1C1E JUMP JUMPDEST SWAP3 SWAP2 POP POP JUMP JUMPDEST PUSH2 0x1C51 DUP2 PUSH2 0x1B9C JUMP JUMPDEST DUP3 MSTORE POP POP JUMP JUMPDEST PUSH1 0x0 PUSH1 0x20 DUP3 ADD SWAP1 POP PUSH2 0x1C6C PUSH1 0x0 DUP4 ADD DUP5 PUSH2 0x1C48 JUMP JUMPDEST SWAP3 SWAP2 POP POP JUMP JUMPDEST PUSH1 0x0 DUP1 PUSH1 0x0 PUSH1 0x60 DUP5 DUP7 SUB SLT ISZERO PUSH2 0x1C8B JUMPI PUSH2 0x1C8A PUSH2 0x1B34 JUMP JUMPDEST JUMPDEST PUSH1 0x0 PUSH2 0x1C99 DUP7 DUP3 DUP8 ADD PUSH2 0x1B87 JUMP JUMPDEST SWAP4 POP POP PUSH1 0x20 PUSH2 0x1CAA DUP7 DUP3 DUP8 ADD PUSH2 0x1B87 JUMP JUMPDEST SWAP3 POP POP PUSH1 0x40 PUSH2 0x1CBB DUP7 DUP3 DUP8 ADD PUSH2 0x1BBD JUMP JUMPDEST SWAP2 POP POP SWAP3 POP SWAP3 POP SWAP3 JUMP JUMPDEST PUSH1 0x0 PUSH1 0xFF DUP3 AND SWAP1 POP SWAP2 SWAP1 POP JUMP JUMPDEST PUSH2 0x1CDB DUP2 PUSH2 0x1CC5 JUMP JUMPDEST DUP3 MSTORE POP POP JUMP JUMPDEST PUSH1 0x0 PUSH1 0x20 DUP3 ADD SWAP1 POP PUSH2 0x1CF6 PUSH1 0x0 DUP4 ADD DUP5 PUSH2 0x1CD2 JUMP JUMPDEST SWAP3 SWAP2 POP POP JUMP JUMPDEST PUSH1 0x0 DUP2 SWAP1 POP SWAP2 SWAP1 POP JUMP JUMPDEST PUSH2 0x1D0F DUP2 PUSH2 0x1CFC JUMP JUMPDEST DUP3 MSTORE POP POP JUMP JUMPDEST PUSH1 0x0 PUSH1 0x20 DUP3 ADD SWAP1 POP PUSH2 0x1D2A PUSH1 0x0 DUP4 ADD DUP5 PUSH2 0x1D06 JUMP JUMPDEST SWAP3 SWAP2 POP POP JUMP JUMPDEST PUSH1 0x0 PUSH1 0x20 DUP3 DUP5 SUB SLT ISZERO PUSH2 0x1D46 JUMPI PUSH2 0x1D45 PUSH2 0x1B34 JUMP JUMPDEST JUMPDEST PUSH1 0x0 PUSH2 0x1D54 DUP5 DUP3 DUP6 ADD PUSH2 0x1B87 JUMP JUMPDEST SWAP2 POP POP SWAP3 SWAP2 POP POP JUMP JUMPDEST PUSH2 0x1D66 DUP2 PUSH2 0x1B5E JUMP JUMPDEST DUP3 MSTORE POP POP JUMP JUMPDEST PUSH1 0x0 PUSH1 0x20 DUP3 ADD SWAP1 POP PUSH2 0x1D81 PUSH1 0x0 DUP4 ADD DUP5 PUSH2 0x1D5D JUMP JUMPDEST SWAP3 SWAP2 POP POP JUMP JUMPDEST PUSH1 0x0 DUP1 REVERT JUMPDEST PUSH32 0x4E487B7100000000000000000000000000000000000000000000000000000000 PUSH1 0x0 MSTORE PUSH1 0x41 PUSH1 0x4 MSTORE PUSH1 0x24 PUSH1 0x0 REVERT JUMPDEST PUSH2 0x1DC4 DUP3 PUSH2 0x1ABE JUMP JUMPDEST DUP2 ADD DUP2 DUP2 LT PUSH8 0xFFFFFFFFFFFFFFFF DUP3 GT OR ISZERO PUSH2 0x1DE3 JUMPI PUSH2 0x1DE2 PUSH2 0x1D8C JUMP JUMPDEST JUMPDEST DUP1 PUSH1 0x40 MSTORE POP POP POP JUMP JUMPDEST PUSH1 0x0 PUSH2 0x1DF6 PUSH2 0x1B2A JUMP JUMPDEST SWAP1 POP PUSH2 0x1E02 DUP3 DUP3 PUSH2 0x1DBB JUMP JUMPDEST SWAP2 SWAP1 POP JUMP JUMPDEST PUSH1 0x0 DUP2 PUSH1 0x7 SIGNEXTEND SWAP1 POP SWAP2 SWAP1 POP JUMP JUMPDEST PUSH2 0x1E1D DUP2 PUSH2 0x1E07 JUMP JUMPDEST DUP2 EQ PUSH2 0x1E28 JUMPI PUSH1 0x0 DUP1 REVERT JUMPDEST POP JUMP JUMPDEST PUSH1 0x0 DUP2 CALLDATALOAD SWAP1 POP PUSH2 0x1E3A DUP2 PUSH2 0x1E14 JUMP JUMPDEST SWAP3 SWAP2 POP POP JUMP JUMPDEST PUSH1 0x0 PUSH8 0xFFFFFFFFFFFFFFFF DUP3 AND SWAP1 POP SWAP2 SWAP1 POP JUMP JUMPDEST PUSH2 0x1E5D DUP2 PUSH2 0x1E40 JUMP JUMPDEST DUP2 EQ PUSH2 0x1E68 JUMPI PUSH1 0x0 DUP1 REVERT JUMPDEST POP JUMP JUMPDEST PUSH1 0x0 DUP2 CALLDATALOAD SWAP1 POP PUSH2 0x1E7A DUP2 PUSH2 0x1E54 JUMP JUMPDEST SWAP3 SWAP2 POP POP JUMP JUMPDEST PUSH1 0x0 DUP2 PUSH1 0x3 SIGNEXTEND SWAP1 POP SWAP2 SWAP1 POP JUMP JUMPDEST PUSH2 0x1E96 DUP2 PUSH2 0x1E80 JUMP JUMPDEST DUP2 EQ PUSH2 0x1EA1 JUMPI PUSH1 0x0 DUP1 REVERT JUMPDEST POP JUMP JUMPDEST PUSH1 0x0 DUP2 CALLDATALOAD SWAP1 POP PUSH2 0x1EB3 DUP2 PUSH2 0x1E8D JUMP JUMPDEST SWAP3 SWAP2 POP POP JUMP JUMPDEST PUSH1 0x0 PUSH1 0x80 DUP3 DUP5 SUB SLT ISZERO PUSH2 0x1ECF JUMPI PUSH2 0x1ECE PUSH2 0x1D87 JUMP JUMPDEST JUMPDEST PUSH2 0x1ED9 PUSH1 0x80 PUSH2 0x1DEC JUMP JUMPDEST SWAP1 POP PUSH1 0x0 PUSH2 0x1EE9 DUP5 DUP3 DUP6 ADD PUSH2 0x1E2B JUMP JUMPDEST PUSH1 0x0 DUP4 ADD MSTORE POP PUSH1 0x20 PUSH2 0x1EFD DUP5 DUP3 DUP6 ADD PUSH2 0x1E6B JUMP JUMPDEST PUSH1 0x20 DUP4 ADD MSTORE POP PUSH1 0x40 PUSH2 0x1F11 DUP5 DUP3 DUP6 ADD PUSH2 0x1EA4 JUMP JUMPDEST PUSH1 0x40 DUP4 ADD MSTORE POP PUSH1 0x60 PUSH2 0x1F25 DUP5 DUP3 DUP6 ADD PUSH2 0x1BBD JUMP JUMPDEST PUSH1 0x60 DUP4 ADD MSTORE POP SWAP3 SWAP2 POP POP JUMP JUMPDEST PUSH1 0x0 PUSH1 0x80 DUP3 DUP5 SUB SLT ISZERO PUSH2 0x1F47 JUMPI PUSH2 0x1F46 PUSH2 0x1B34 JUMP JUMPDEST JUMPDEST PUSH1 0x0 PUSH2 0x1F55 DUP5 DUP3 DUP6 ADD PUSH2 0x1EB9 JUMP JUMPDEST SWAP2 POP POP SWAP3 SWAP2 POP POP JUMP JUMPDEST PUSH1 0x0 DUP1 REVERT JUMPDEST PUSH1 0x0 DUP1 REVERT JUMPDEST PUSH1 0x0 DUP1 REVERT JUMPDEST PUSH1 0x0 DUP1 DUP4 PUSH1 0x1F DUP5 ADD SLT PUSH2 0x1F83 JUMPI PUSH2 0x1F82 PUSH2 0x1F5E JUMP JUMPDEST JUMPDEST DUP3 CALLDATALOAD SWAP1 POP PUSH8 0xFFFFFFFFFFFFFFFF DUP2 GT ISZERO PUSH2 0x1FA0 JUMPI PUSH2 0x1F9F PUSH2 0x1F63 JUMP JUMPDEST JUMPDEST PUSH1 0x20 DUP4 ADD SWAP2 POP DUP4 PUSH1 0x20 DUP3 MUL DUP4 ADD GT ISZERO PUSH2 0x1FBC JUMPI PUSH2 0x1FBB PUSH2 0x1F68 JUMP JUMPDEST JUMPDEST SWAP3 POP SWAP3 SWAP1 POP JUMP JUMPDEST PUSH1 0x0 DUP1 PUSH1 0x0 PUSH1 0x40 DUP5 DUP7 SUB SLT ISZERO PUSH2 0x1FDC JUMPI PUSH2 0x1FDB PUSH2 0x1B34 JUMP JUMPDEST JUMPDEST PUSH1 0x0 PUSH2 0x1FEA DUP7 DUP3 DUP8 ADD PUSH2 0x1BBD JUMP JUMPDEST SWAP4 POP POP PUSH1 0x20 DUP5 ADD CALLDATALOAD PUSH8 0xFFFFFFFFFFFFFFFF DUP2 GT ISZERO PUSH2 0x200B JUMPI PUSH2 0x200A PUSH2 0x1B39 JUMP JUMPDEST JUMPDEST PUSH2 0x2017 DUP7 DUP3 DUP8 ADD PUSH2 0x1F6D JUMP JUMPDEST SWAP3 POP SWAP3 POP POP SWAP3 POP SWAP3 POP SWAP3 JUMP JUMPDEST PUSH1 0x0 DUP1 PUSH1 0x40 DUP4 DUP6 SUB SLT ISZERO PUSH2 0x203A JUMPI PUSH2 0x2039 PUSH2 0x1B34 JUMP JUMPDEST JUMPDEST PUSH1 0x0 PUSH2 0x2048 DUP6 DUP3 DUP7 ADD PUSH2 0x1B87 JUMP JUMPDEST SWAP3 POP POP PUSH1 0x20 PUSH2 0x2059 DUP6 DUP3 DUP7 ADD PUSH2 0x1B87 JUMP JUMPDEST SWAP2 POP POP SWAP3 POP SWAP3 SWAP1 POP JUMP JUMPDEST PUSH1 0x0 DUP1 PUSH1 0x20 DUP4 DUP6 SUB SLT ISZERO PUSH2 0x207A JUMPI PUSH2 0x2079 PUSH2 0x1B34 JUMP JUMPDEST JUMPDEST PUSH1 0x0 DUP4 ADD CALLDATALOAD PUSH8 0xFFFFFFFFFFFFFFFF DUP2 GT ISZERO PUSH2 0x2098 JUMPI PUSH2 0x2097 PUSH2 0x1B39 JUMP JUMPDEST JUMPDEST PUSH2 0x20A4 DUP6 DUP3 DUP7 ADD PUSH2 0x1F6D JUMP JUMPDEST SWAP3 POP SWAP3 POP POP SWAP3 POP SWAP3 SWAP1 POP JUMP JUMPDEST PUSH1 0x0 DUP2 SWAP1 POP SWAP2 SWAP1 POP JUMP JUMPDEST PUSH1 0x0 PUSH2 0x20D5 PUSH2 0x20D0 PUSH2 0x20CB DUP5 PUSH2 0x1B3E JUMP JUMPDEST PUSH2 0x20B0 JUMP JUMPDEST PUSH2 0x1B3E JUMP JUMPDEST SWAP1 POP SWAP2 SWAP1 POP JUMP JUMPDEST PUSH1 0x0 PUSH2 0x20E7 DUP3 PUSH2 0x20BA JUMP JUMPDEST SWAP1 POP SWAP2 SWAP1 POP JUMP JUMPDEST PUSH1 0x0 PUSH2 0x20F9 DUP3 PUSH2 0x20DC JUMP JUMPDEST SWAP1 POP SWAP2 SWAP1 POP JUMP JUMPDEST PUSH2 0x2109 DUP2 PUSH2 0x20EE JUMP JUMPDEST DUP3 MSTORE POP POP JUMP JUMPDEST PUSH1 0x0 PUSH1 0x20 DUP3 ADD SWAP1 POP PUSH2 0x2124 PUSH1 0x0 DUP4 ADD DUP5 PUSH2 0x2100 JUMP JUMPDEST SWAP3 SWAP2 POP POP JUMP JUMPDEST PUSH32 0x4E487B7100000000000000000000000000000000000000000000000000000000 PUSH1 0x0 MSTORE PUSH1 0x22 PUSH1 0x4 MSTORE PUSH1 0x24 PUSH1 0x0 REVERT JUMPDEST PUSH1 0x0 PUSH1 0x2 DUP3 DIV SWAP1 POP PUSH1 0x1 DUP3 AND DUP1 PUSH2 0x2171 JUMPI PUSH1 0x7F DUP3 AND SWAP2 POP JUMPDEST PUSH1 0x20 DUP3 LT DUP2 SUB PUSH2 0x2184 JUMPI PUSH2 0x2183 PUSH2 0x212A JUMP JUMPDEST JUMPDEST POP SWAP2 SWAP1 POP JUMP JUMPDEST PUSH32 0x4D7573742073656E642045544800000000000000000000000000000000000000 PUSH1 0x0 DUP3 ADD MSTORE POP JUMP JUMPDEST PUSH1 0x0 PUSH2 0x21C0 PUSH1 0xD DUP4 PUSH2 0x1A83 JUMP JUMPDEST SWAP2 POP PUSH2 0x21CB DUP3 PUSH2 0x218A JUMP JUMPDEST PUSH1 0x20 DUP3 ADD SWAP1 POP SWAP2 SWAP1 POP JUMP JUMPDEST PUSH1 0x0 PUSH1 0x20 DUP3 ADD SWAP1 POP DUP2 DUP2 SUB PUSH1 0x0 DUP4 ADD MSTORE PUSH2 0x21EF DUP2 PUSH2 0x21B3 JUMP JUMPDEST SWAP1 POP SWAP2 SWAP1 POP JUMP JUMPDEST PUSH32 0x546F6B656E20616D6F756E74206D757374206265203E20300000000000000000 PUSH1 0x0 DUP3 ADD MSTORE POP JUMP JUMPDEST PUSH1 0x0 PUSH2 0x222C PUSH1 0x18 DUP4 PUSH2 0x1A83 JUMP JUMPDEST SWAP2 POP PUSH2 0x2237 DUP3 PUSH2 0x21F6 JUMP JUMPDEST PUSH1 0x20 DUP3 ADD SWAP1 POP SWAP2 SWAP1 POP JUMP JUMPDEST PUSH1 0x0 PUSH1 0x20 DUP3 ADD SWAP1 POP DUP2 DUP2 SUB PUSH1 0x0 DUP4 ADD MSTORE PUSH2 0x225B DUP2 PUSH2 0x221F JUMP JUMPDEST SWAP1 POP SWAP2 SWAP1 POP JUMP JUMPDEST PUSH32 0x496E73756666696369656E7420746F6B656E2062616C616E6365000000000000 PUSH1 0x0 DUP3 ADD MSTORE POP JUMP JUMPDEST PUSH1 0x0 PUSH2 0x2298 PUSH1 0x1A DUP4 PUSH2 0x1A83 JUMP JUMPDEST SWAP2 POP PUSH2 0x22A3 DUP3 PUSH2 0x2262 JUMP JUMPDEST PUSH1 0x20 DUP3 ADD SWAP1 POP SWAP2 SWAP1 POP JUMP JUMPDEST PUSH1 0x0 PUSH1 0x20 DUP3 ADD SWAP1 POP DUP2 DUP2 SUB PUSH1 0x0 DUP4 ADD MSTORE PUSH2 0x22C7 DUP2 PUSH2 0x228B JUMP JUMPDEST SWAP1 POP SWAP2 SWAP1 POP JUMP JUMPDEST PUSH1 0x0 DUP3 DUP3 MSTORE PUSH1 0x20 DUP3 ADD SWAP1 POP SWAP3 SWAP2 POP POP JUMP JUMPDEST PUSH1 0x0 DUP2 SWAP1 POP SWAP2 SWAP1 POP JUMP JUMPDEST PUSH1 0x0 DUP3 DUP3 MSTORE PUSH1 0x20 DUP3 ADD SWAP1 POP SWAP3 SWAP2 POP POP JUMP JUMPDEST DUP3 DUP2 DUP4 CALLDATACOPY PUSH1 0x0 DUP4 DUP4 ADD MSTORE POP POP POP JUMP JUMPDEST PUSH1 0x0 PUSH2 0x2315 DUP4 DUP6 PUSH2 0x22E9 JUMP JUMPDEST SWAP4 POP PUSH2 0x2322 DUP4 DUP6 DUP5 PUSH2 0x22FA JUMP JUMPDEST PUSH2 0x232B DUP4 PUSH2 0x1ABE JUMP JUMPDEST DUP5 ADD SWAP1 POP SWAP4 SWAP3 POP POP POP JUMP JUMPDEST PUSH1 0x0 PUSH2 0x2343 DUP5 DUP5 DUP5 PUSH2 0x2309 JUMP JUMPDEST SWAP1 POP SWAP4 SWAP3 POP POP POP JUMP JUMPDEST PUSH1 0x0 DUP1 REVERT JUMPDEST PUSH1 0x0 DUP1 REVERT JUMPDEST PUSH1 0x0 DUP1 REVERT JUMPDEST PUSH1 0x0 DUP1 DUP4 CALLDATALOAD PUSH1 0x1 PUSH1 0x20 SUB DUP5 CALLDATASIZE SUB SUB DUP2 SLT PUSH2 0x2378 JUMPI PUSH2 0x2377 PUSH2 0x2356 JUMP JUMPDEST JUMPDEST DUP4 DUP2 ADD SWAP3 POP DUP3 CALLDATALOAD SWAP2 POP PUSH1 0x20 DUP4 ADD SWAP3 POP PUSH8 0xFFFFFFFFFFFFFFFF DUP3 GT ISZERO PUSH2 0x23A0 JUMPI PUSH2 0x239F PUSH2 0x234C JUMP JUMPDEST JUMPDEST PUSH1 0x1 DUP3 MUL CALLDATASIZE SUB DUP4 SGT ISZERO PUSH2 0x23B6 JUMPI PUSH2 0x23B5 PUSH2 0x2351 JUMP JUMPDEST JUMPDEST POP SWAP3 POP SWAP3 SWAP1 POP JUMP JUMPDEST PUSH1 0x0 PUSH1 0x20 DUP3 ADD SWAP1 POP SWAP2 SWAP1 POP JUMP JUMPDEST PUSH1 0x0 PUSH2 0x23D7 DUP4 DUP6 PUSH2 0x22CE JUMP JUMPDEST SWAP4 POP DUP4 PUSH1 0x20 DUP5 MUL DUP6 ADD PUSH2 0x23E9 DUP5 PUSH2 0x22DF JUMP JUMPDEST DUP1 PUSH1 0x0 JUMPDEST DUP8 DUP2 LT ISZERO PUSH2 0x242F JUMPI DUP5 DUP5 SUB DUP10 MSTORE PUSH2 0x2404 DUP3 DUP5 PUSH2 0x235B JUMP JUMPDEST PUSH2 0x240F DUP7 DUP3 DUP5 PUSH2 0x2336 JUMP JUMPDEST SWAP6 POP PUSH2 0x241A DUP5 PUSH2 0x23BE JUMP JUMPDEST SWAP4 POP PUSH1 0x20 DUP12 ADD SWAP11 POP POP POP PUSH1 0x1 DUP2 ADD SWAP1 POP PUSH2 0x23ED JUMP JUMPDEST POP DUP3 SWAP8 POP DUP8 SWAP5 POP POP POP POP POP SWAP4 SWAP3 POP POP POP JUMP JUMPDEST PUSH1 0x0 PUSH1 0x20 DUP3 ADD SWAP1 POP DUP2 DUP2 SUB PUSH1 0x0 DUP4 ADD MSTORE PUSH2 0x245C DUP2 DUP5 DUP7 PUSH2 0x23CB JUMP JUMPDEST SWAP1 POP SWAP4 SWAP3 POP POP POP JUMP JUMPDEST PUSH1 0x0 DUP2 MLOAD SWAP1 POP PUSH2 0x2474 DUP2 PUSH2 0x1BA6 JUMP JUMPDEST SWAP3 SWAP2 POP POP JUMP JUMPDEST PUSH1 0x0 PUSH1 0x20 DUP3 DUP5 SUB SLT ISZERO PUSH2 0x2490 JUMPI PUSH2 0x248F PUSH2 0x1B34 JUMP JUMPDEST JUMPDEST PUSH1 0x0 PUSH2 0x249E DUP5 DUP3 DUP6 ADD PUSH2 0x2465 JUMP JUMPDEST SWAP2 POP POP SWAP3 SWAP2 POP POP JUMP JUMPDEST PUSH32 0x496E73756666696369656E74204554482073656E7420666F7220666565000000 PUSH1 0x0 DUP3 ADD MSTORE POP JUMP JUMPDEST PUSH1 0x0 PUSH2 0x24DD PUSH1 0x1D DUP4 PUSH2 0x1A83 JUMP JUMPDEST SWAP2 POP PUSH2 0x24E8 DUP3 PUSH2 0x24A7 JUMP JUMPDEST PUSH1 0x20 DUP3 ADD SWAP1 POP SWAP2 SWAP1 POP JUMP JUMPDEST PUSH1 0x0 PUSH1 0x20 DUP3 ADD SWAP1 POP DUP2 DUP2 SUB PUSH1 0x0 DUP4 ADD MSTORE PUSH2 0x250C DUP2 PUSH2 0x24D0 JUMP JUMPDEST SWAP1 POP SWAP2 SWAP1 POP JUMP JUMPDEST PUSH1 0x0 DUP2 SWAP1 POP SWAP2 SWAP1 POP JUMP JUMPDEST PUSH1 0x0 PUSH2 0x2538 PUSH2 0x2533 PUSH2 0x252E DUP5 PUSH2 0x2513 JUMP JUMPDEST PUSH2 0x20B0 JUMP JUMPDEST PUSH2 0x1B9C JUMP JUMPDEST SWAP1 POP SWAP2 SWAP1 POP JUMP JUMPDEST PUSH2 0x2548 DUP2 PUSH2 0x251D JUMP JUMPDEST DUP3 MSTORE POP POP JUMP JUMPDEST PUSH1 0x0 PUSH1 0x40 DUP3 ADD SWAP1 POP PUSH2 0x2563 PUSH1 0x0 DUP4 ADD DUP6 PUSH2 0x1D06 JUMP JUMPDEST PUSH2 0x2570 PUSH1 0x20 DUP4 ADD DUP5 PUSH2 0x253F JUMP JUMPDEST SWAP4 SWAP3 POP POP POP JUMP JUMPDEST PUSH1 0x0 DUP2 MLOAD SWAP1 POP PUSH2 0x2586 DUP2 PUSH2 0x1E14 JUMP JUMPDEST SWAP3 SWAP2 POP POP JUMP JUMPDEST PUSH1 0x0 DUP2 MLOAD SWAP1 POP PUSH2 0x259B DUP2 PUSH2 0x1E54 JUMP JUMPDEST SWAP3 SWAP2 POP POP JUMP JUMPDEST PUSH1 0x0 DUP2 MLOAD SWAP1 POP PUSH2 0x25B0 DUP2 PUSH2 0x1E8D JUMP JUMPDEST SWAP3 SWAP2 POP POP JUMP JUMPDEST PUSH1 0x0 PUSH1 0x80 DUP3 DUP5 SUB SLT ISZERO PUSH2 0x25CC JUMPI PUSH2 0x25CB PUSH2 0x1D87 JUMP JUMPDEST JUMPDEST PUSH2 0x25D6 PUSH1 0x80 PUSH2 0x1DEC JUMP JUMPDEST SWAP1 POP PUSH1 0x0 PUSH2 0x25E6 DUP5 DUP3 DUP6 ADD PUSH2 0x2577 JUMP JUMPDEST PUSH1 0x0 DUP4 ADD MSTORE POP PUSH1 0x20 PUSH2 0x25FA DUP5 DUP3 DUP6 ADD PUSH2 0x258C JUMP JUMPDEST PUSH1 0x20 DUP4 ADD MSTORE POP PUSH1 0x40 PUSH2 0x260E DUP5 DUP3 DUP6 ADD PUSH2 0x25A1 JUMP JUMPDEST PUSH1 0x40 DUP4 ADD MSTORE POP PUSH1 0x60 PUSH2 0x2622 DUP5 DUP3 DUP6 ADD PUSH2 0x2465 JUMP JUMPDEST PUSH1 0x60 DUP4 ADD MSTORE POP SWAP3 SWAP2 POP POP JUMP JUMPDEST PUSH1 0x0 PUSH1 0x80 DUP3 DUP5 SUB SLT ISZERO PUSH2 0x2644 JUMPI PUSH2 0x2643 PUSH2 0x1B34 JUMP JUMPDEST JUMPDEST PUSH1 0x0 PUSH2 0x2652 DUP5 DUP3 DUP6 ADD PUSH2 0x25B6 JUMP JUMPDEST SWAP2 POP POP SWAP3 SWAP2 POP POP JUMP JUMPDEST PUSH32 0x4E487B7100000000000000000000000000000000000000000000000000000000 PUSH1 0x0 MSTORE PUSH1 0x11 PUSH1 0x4 MSTORE PUSH1 0x24 PUSH1 0x0 REVERT JUMPDEST PUSH1 0x0 PUSH2 0x2695 DUP3 PUSH2 0x1B9C JUMP JUMPDEST SWAP2 POP PUSH2 0x26A0 DUP4 PUSH2 0x1B9C JUMP JUMPDEST SWAP3 POP DUP3 DUP3 MUL PUSH2 0x26AE DUP2 PUSH2 0x1B9C JUMP JUMPDEST SWAP2 POP DUP3 DUP3 DIV DUP5 EQ DUP4 ISZERO OR PUSH2 0x26C5 JUMPI PUSH2 0x26C4 PUSH2 0x265B JUMP JUMPDEST JUMPDEST POP SWAP3 SWAP2 POP POP JUMP JUMPDEST PUSH32 0x4E487B7100000000000000000000000000000000000000000000000000000000 PUSH1 0x0 MSTORE PUSH1 0x12 PUSH1 0x4 MSTORE PUSH1 0x24 PUSH1 0x0 REVERT JUMPDEST PUSH1 0x0 PUSH2 0x2706 DUP3 PUSH2 0x1B9C JUMP JUMPDEST SWAP2 POP PUSH2 0x2711 DUP4 PUSH2 0x1B9C JUMP JUMPDEST SWAP3 POP DUP3 PUSH2 0x2721 JUMPI PUSH2 0x2720 PUSH2 0x26CC JUMP JUMPDEST JUMPDEST DUP3 DUP3 DIV SWAP1 POP SWAP3 SWAP2 POP POP JUMP JUMPDEST PUSH32 0x496E73756666696369656E74206C697175696469747900000000000000000000 PUSH1 0x0 DUP3 ADD MSTORE POP JUMP JUMPDEST PUSH1 0x0 PUSH2 0x2762 PUSH1 0x16 DUP4 PUSH2 0x1A83 JUMP JUMPDEST SWAP2 POP PUSH2 0x276D DUP3 PUSH2 0x272C JUMP JUMPDEST PUSH1 0x20 DUP3 ADD SWAP1 POP SWAP2 SWAP1 POP JUMP JUMPDEST PUSH1 0x0 PUSH1 0x20 DUP3 ADD SWAP1 POP DUP2 DUP2 SUB PUSH1 0x0 DUP4 ADD MSTORE PUSH2 0x2791 DUP2 PUSH2 0x2755 JUMP JUMPDEST SWAP1 POP SWAP2 SWAP1 POP JUMP JUMPDEST PUSH1 0x0 DUP2 SWAP1 POP SWAP3 SWAP2 POP POP JUMP JUMPDEST POP JUMP JUMPDEST PUSH1 0x0 PUSH2 0x27B3 PUSH1 0x0 DUP4 PUSH2 0x2798 JUMP JUMPDEST SWAP2 POP PUSH2 0x27BE DUP3 PUSH2 0x27A3 JUMP JUMPDEST PUSH1 0x0 DUP3 ADD SWAP1 POP SWAP2 SWAP1 POP JUMP JUMPDEST PUSH1 0x0 PUSH2 0x27D4 DUP3 PUSH2 0x27A6 JUMP JUMPDEST SWAP2 POP DUP2 SWAP1 POP SWAP2 SWAP1 POP JUMP JUMPDEST PUSH32 0x455448207472616E73666572206661696C656400000000000000000000000000 PUSH1 0x0 DUP3 ADD MSTORE POP JUMP JUMPDEST PUSH1 0x0 PUSH2 0x2814 PUSH1 0x13 DUP4 PUSH2 0x1A83 JUMP JUMPDEST SWAP2 POP PUSH2 0x281F DUP3 PUSH2 0x27DE JUMP JUMPDEST PUSH1 0x20 DUP3 ADD SWAP1 POP SWAP2 SWAP1 POP JUMP JUMPDEST PUSH1 0x0 PUSH1 0x20 DUP3 ADD SWAP1 POP DUP2 DUP2 SUB PUSH1 0x0 DUP4 ADD MSTORE PUSH2 0x2843 DUP2 PUSH2 0x2807 JUMP JUMPDEST SWAP1 POP SWAP2 SWAP1 POP JUMP JUMPDEST PUSH32 0x53656E642045544820746F2062757920746F6B656E7300000000000000000000 PUSH1 0x0 DUP3 ADD MSTORE POP JUMP JUMPDEST PUSH1 0x0 PUSH2 0x2880 PUSH1 0x16 DUP4 PUSH2 0x1A83 JUMP JUMPDEST SWAP2 POP PUSH2 0x288B DUP3 PUSH2 0x284A JUMP JUMPDEST PUSH1 0x20 DUP3 ADD SWAP1 POP SWAP2 SWAP1 POP JUMP JUMPDEST PUSH1 0x0 PUSH1 0x20 DUP3 ADD SWAP1 POP DUP2 DUP2 SUB PUSH1 0x0 DUP4 ADD MSTORE PUSH2 0x28AF DUP2 PUSH2 0x2873 JUMP JUMPDEST SWAP1 POP SWAP2 SWAP1 POP JUMP JUMPDEST PUSH32 0x496E73756666696369656E742045544820746F20636F76657220666565000000 PUSH1 0x0 DUP3 ADD MSTORE POP JUMP JUMPDEST PUSH1 0x0 PUSH2 0x28EC PUSH1 0x1D DUP4 PUSH2 0x1A83 JUMP JUMPDEST SWAP2 POP PUSH2 0x28F7 DUP3 PUSH2 0x28B6 JUMP JUMPDEST PUSH1 0x20 DUP3 ADD SWAP1 POP SWAP2 SWAP1 POP JUMP JUMPDEST PUSH1 0x0 PUSH1 0x20 DUP3 ADD SWAP1 POP DUP2 DUP2 SUB PUSH1 0x0 DUP4 ADD MSTORE PUSH2 0x291B DUP2 PUSH2 0x28DF JUMP JUMPDEST SWAP1 POP SWAP2 SWAP1 POP JUMP JUMPDEST PUSH1 0x0 PUSH2 0x292D DUP3 PUSH2 0x1B9C JUMP JUMPDEST SWAP2 POP PUSH2 0x2938 DUP4 PUSH2 0x1B9C JUMP JUMPDEST SWAP3 POP DUP3 DUP3 SUB SWAP1 POP DUP2 DUP2 GT ISZERO PUSH2 0x2950 JUMPI PUSH2 0x294F PUSH2 0x265B JUMP JUMPDEST JUMPDEST SWAP3 SWAP2 POP POP JUMP JUMPDEST PUSH1 0x0 PUSH1 0x60 DUP3 ADD SWAP1 POP PUSH2 0x296B PUSH1 0x0 DUP4 ADD DUP7 PUSH2 0x1D5D JUMP JUMPDEST PUSH2 0x2978 PUSH1 0x20 DUP4 ADD DUP6 PUSH2 0x1C48 JUMP JUMPDEST PUSH2 0x2985 PUSH1 0x40 DUP4 ADD DUP5 PUSH2 0x1C48 JUMP JUMPDEST SWAP5 SWAP4 POP POP POP POP JUMP JUMPDEST PUSH32 0x4E65676174697665207072696365206E6F7420737570706F7274656400000000 PUSH1 0x0 DUP3 ADD MSTORE POP JUMP JUMPDEST PUSH1 0x0 PUSH2 0x29C3 PUSH1 0x1C DUP4 PUSH2 0x1A83 JUMP JUMPDEST SWAP2 POP PUSH2 0x29CE DUP3 PUSH2 0x298D JUMP JUMPDEST PUSH1 0x20 DUP3 ADD SWAP1 POP SWAP2 SWAP1 POP JUMP JUMPDEST PUSH1 0x0 PUSH1 0x20 DUP3 ADD SWAP1 POP DUP2 DUP2 SUB PUSH1 0x0 DUP4 ADD MSTORE PUSH2 0x29F2 DUP2 PUSH2 0x29B6 JUMP JUMPDEST SWAP1 POP SWAP2 SWAP1 POP JUMP JUMPDEST PUSH1 0x0 PUSH2 0x2A04 DUP3 PUSH2 0x1E80 JUMP JUMPDEST SWAP2 POP PUSH32 0xFFFFFFFFFFFFFFFFFFFFFFFFFFFFFFFFFFFFFFFFFFFFFFFFFFFFFFFF80000000 DUP3 SUB PUSH2 0x2A36 JUMPI PUSH2 0x2A35 PUSH2 0x265B JUMP JUMPDEST JUMPDEST DUP2 PUSH1 0x0 SUB SWAP1 POP SWAP2 SWAP1 POP JUMP JUMPDEST PUSH1 0x0 DUP2 PUSH1 0x1 SHR SWAP1 POP SWAP2 SWAP1 POP JUMP JUMPDEST PUSH1 0x0 DUP1 DUP3 SWAP2 POP DUP4 SWAP1 POP JUMPDEST PUSH1 0x1 DUP6 GT ISZERO PUSH2 0x2A98 JUMPI DUP1 DUP7 DIV DUP2 GT ISZERO PUSH2 0x2A74 JUMPI PUSH2 0x2A73 PUSH2 0x265B JUMP JUMPDEST JUMPDEST PUSH1 0x1 DUP6 AND ISZERO PUSH2 0x2A83 JUMPI DUP1 DUP3 MUL SWAP2 POP JUMPDEST DUP1 DUP2 MUL SWAP1 POP PUSH2 0x2A91 DUP6 PUSH2 0x2A41 JUMP JUMPDEST SWAP5 POP PUSH2 0x2A58 JUMP JUMPDEST SWAP5 POP SWAP5 SWAP3 POP POP POP JUMP JUMPDEST PUSH1 0x0 DUP3 PUSH2 0x2AB1 JUMPI PUSH1 0x1 SWAP1 POP PUSH2 0x2B6D JUMP JUMPDEST DUP2 PUSH2 0x2ABF JUMPI PUSH1 0x0 SWAP1 POP PUSH2 0x2B6D JUMP JUMPDEST DUP2 PUSH1 0x1 DUP2 EQ PUSH2 0x2AD5 JUMPI PUSH1 0x2 DUP2 EQ PUSH2 0x2ADF JUMPI PUSH2 0x2B0E JUMP JUMPDEST PUSH1 0x1 SWAP2 POP POP PUSH2 0x2B6D JUMP JUMPDEST PUSH1 0xFF DUP5 GT ISZERO PUSH2 0x2AF1 JUMPI PUSH2 0x2AF0 PUSH2 0x265B JUMP JUMPDEST JUMPDEST DUP4 PUSH1 0x2 EXP SWAP2 POP DUP5 DUP3 GT ISZERO PUSH2 0x2B08 JUMPI PUSH2 0x2B07 PUSH2 0x265B JUMP JUMPDEST JUMPDEST POP PUSH2 0x2B6D JUMP JUMPDEST POP PUSH1 0x20 DUP4 LT PUSH2 0x133 DUP4 LT AND PUSH1 0x4E DUP5 LT PUSH1 0xB DUP5 LT AND OR ISZERO PUSH2 0x2B43 JUMPI DUP3 DUP3 EXP SWAP1 POP DUP4 DUP2 GT ISZERO PUSH2 0x2B3E JUMPI PUSH2 0x2B3D PUSH2 0x265B JUMP JUMPDEST JUMPDEST PUSH2 0x2B6D JUMP JUMPDEST PUSH2 0x2B50 DUP5 DUP5 DUP5 PUSH1 0x1 PUSH2 0x2A4E JUMP JUMPDEST SWAP3 POP SWAP1 POP DUP2 DUP5 DIV DUP2 GT ISZERO PUSH2 0x2B67 JUMPI PUSH2 0x2B66 PUSH2 0x265B JUMP JUMPDEST JUMPDEST DUP2 DUP2 MUL SWAP1 POP JUMPDEST SWAP4 SWAP3 POP POP POP JUMP JUMPDEST PUSH1 0x0 PUSH2 0x2B7F DUP3 PUSH2 0x1B9C JUMP JUMPDEST SWAP2 POP PUSH2 0x2B8A DUP4 PUSH2 0x1B9C JUMP JUMPDEST SWAP3 POP PUSH2 0x2BB7 PUSH32 0xFFFFFFFFFFFFFFFFFFFFFFFFFFFFFFFFFFFFFFFFFFFFFFFFFFFFFFFFFFFFFFFF DUP5 DUP5 PUSH2 0x2AA1 JUMP JUMPDEST SWAP1 POP SWAP3 SWAP2 POP POP JUMP JUMPDEST PUSH1 0x0 PUSH2 0x2BCA DUP3 PUSH2 0x1B9C JUMP JUMPDEST SWAP2 POP PUSH2 0x2BD5 DUP4 PUSH2 0x1B9C JUMP JUMPDEST SWAP3 POP DUP3 DUP3 ADD SWAP1 POP DUP1 DUP3 GT ISZERO PUSH2 0x2BED JUMPI PUSH2 0x2BEC PUSH2 0x265B JUMP JUMPDEST JUMPDEST SWAP3 SWAP2 POP POP JUMP INVALID LOG2 PUSH5 0x6970667358 0x22 SLT KECCAK256 0xE KECCAK256 0xC1 0x1E BLOBBASEFEE 0xE7 MSTORE TIMESTAMP 0xB3 PUSH2 0xEF9B SWAP2 PUSH17 0x5C8B52FE2829312F942075C6D727D063AD PUSH16 0x64736F6C634300081C00330000000000 "
        },
        "methodIdentifiers": {
          "APPLE_FEED_ID()": "457f78fa",
          "ETH_USD_FEED_ID()": "966a6709",
          "allowance(address,address)": "dd62ed3e",
          "approve(address,uint256)": "095ea7b3",
          "balanceOf(address)": "70a08231",
          "buyToken(bytes[])": "dfc5b44c",
          "decimals()": "313ce567",
          "depositPool()": "2a343709",
          "name()": "06fdde03",
          "owner()": "8da5cb5b",
          "pyth()": "f98d06f0",
          "renounceOwnership()": "715018a6",
          "sellToken(uint256,bytes[])": "d99da284",
          "symbol()": "95d89b41",
          "testNormalizePrice((int64,uint64,int32,uint256))": "d9540b77",
          "totalSupply()": "18160ddd",
          "transfer(address,uint256)": "a9059cbb",
          "transferFrom(address,address,uint256)": "23b872dd",
          "transferOwnership(address)": "f2fde38b"
        }
      }
    }
  }
}