{
  "_format": "hh-sol-artifact-1",
  "contractName": "MicrosoftToken",
  "sourceName": "contracts/MicrosoftToken.sol",
  "abi": [
    {
      "inputs": [
        {
          "internalType": "address",
          "name": "pythContract",
          "type": "address"
        }
      ],
      "stateMutability": "payable",
      "type": "constructor"
    },
    {
      "inputs": [
        {
          "internalType": "address",
          "name": "spender",
          "type": "address"
        },
        {
          "internalType": "uint256",
          "name": "allowance",
          "type": "uint256"
        },
        {
          "internalType": "uint256",
          "name": "needed",
          "type": "uint256"
        }
      ],
      "name": "ERC20InsufficientAllowance",
      "type": "error"
    },
    {
      "inputs": [
        {
          "internalType": "address",
          "name": "sender",
          "type": "address"
        },
        {
          "internalType": "uint256",
          "name": "balance",
          "type": "uint256"
        },
        {
          "internalType": "uint256",
          "name": "needed",
          "type": "uint256"
        }
      ],
      "name": "ERC20InsufficientBalance",
      "type": "error"
    },
    {
      "inputs": [
        {
          "internalType": "address",
          "name": "approver",
          "type": "address"
        }
      ],
      "name": "ERC20InvalidApprover",
      "type": "error"
    },
    {
      "inputs": [
        {
          "internalType": "address",
          "name": "receiver",
          "type": "address"
        }
      ],
      "name": "ERC20InvalidReceiver",
      "type": "error"
    },
    {
      "inputs": [
        {
          "internalType": "address",
          "name": "sender",
          "type": "address"
        }
      ],
      "name": "ERC20InvalidSender",
      "type": "error"
    },
    {
      "inputs": [
        {
          "internalType": "address",
          "name": "spender",
          "type": "address"
        }
      ],
      "name": "ERC20InvalidSpender",
      "type": "error"
    },
    {
      "inputs": [
        {
          "internalType": "address",
          "name": "owner",
          "type": "address"
        }
      ],
      "name": "OwnableInvalidOwner",
      "type": "error"
    },
    {
      "inputs": [
        {
          "internalType": "address",
          "name": "account",
          "type": "address"
        }
      ],
      "name": "OwnableUnauthorizedAccount",
      "type": "error"
    },
    {
      "anonymous": false,
      "inputs": [
        {
          "indexed": true,
          "internalType": "address",
          "name": "owner",
          "type": "address"
        },
        {
          "indexed": true,
          "internalType": "address",
          "name": "spender",
          "type": "address"
        },
        {
          "indexed": false,
          "internalType": "uint256",
          "name": "value",
          "type": "uint256"
        }
      ],
      "name": "Approval",
      "type": "event"
    },
    {
      "anonymous": false,
      "inputs": [
        {
          "indexed": true,
          "internalType": "address",
          "name": "previousOwner",
          "type": "address"
        },
        {
          "indexed": true,
          "internalType": "address",
          "name": "newOwner",
          "type": "address"
        }
      ],
      "name": "OwnershipTransferred",
      "type": "event"
    },
    {
      "anonymous": false,
      "inputs": [
        {
          "indexed": true,
          "internalType": "address",
          "name": "from",
          "type": "address"
        },
        {
          "indexed": true,
          "internalType": "address",
          "name": "to",
          "type": "address"
        },
        {
          "indexed": false,
          "internalType": "uint256",
          "name": "value",
          "type": "uint256"
        }
      ],
      "name": "Transfer",
      "type": "event"
    },
    {
      "inputs": [],
      "name": "ETH_USD_FEED_ID",
      "outputs": [
        {
          "internalType": "bytes32",
          "name": "",
          "type": "bytes32"
        }
      ],
      "stateMutability": "view",
      "type": "function"
    },
    {
      "inputs": [],
      "name": "MICROSOFT_FEED_ID",
      "outputs": [
        {
          "internalType": "bytes32",
          "name": "",
          "type": "bytes32"
        }
      ],
      "stateMutability": "view",
      "type": "function"
    },
    {
      "inputs": [
        {
          "internalType": "address",
          "name": "owner",
          "type": "address"
        },
        {
          "internalType": "address",
          "name": "spender",
          "type": "address"
        }
      ],
      "name": "allowance",
      "outputs": [
        {
          "internalType": "uint256",
          "name": "",
          "type": "uint256"
        }
      ],
      "stateMutability": "view",
      "type": "function"
    },
    {
      "inputs": [
        {
          "internalType": "address",
          "name": "spender",
          "type": "address"
        },
        {
          "internalType": "uint256",
          "name": "value",
          "type": "uint256"
        }
      ],
      "name": "approve",
      "outputs": [
        {
          "internalType": "bool",
          "name": "",
          "type": "bool"
        }
      ],
      "stateMutability": "nonpayable",
      "type": "function"
    },
    {
      "inputs": [
        {
          "internalType": "address",
          "name": "account",
          "type": "address"
        }
      ],
      "name": "balanceOf",
      "outputs": [
        {
          "internalType": "uint256",
          "name": "",
          "type": "uint256"
        }
      ],
      "stateMutability": "view",
      "type": "function"
    },
    {
      "inputs": [
        {
          "internalType": "bytes[]",
          "name": "priceUpdate",
          "type": "bytes[]"
        }
      ],
      "name": "buyToken",
      "outputs": [],
      "stateMutability": "payable",
      "type": "function"
    },
    {
      "inputs": [],
      "name": "decimals",
      "outputs": [
        {
          "internalType": "uint8",
          "name": "",
          "type": "uint8"
        }
      ],
      "stateMutability": "view",
      "type": "function"
    },
    {
      "inputs": [],
      "name": "depositPool",
      "outputs": [],
      "stateMutability": "payable",
      "type": "function"
    },
    {
      "inputs": [],
      "name": "name",
      "outputs": [
        {
          "internalType": "string",
          "name": "",
          "type": "string"
        }
      ],
      "stateMutability": "view",
      "type": "function"
    },
    {
      "inputs": [],
      "name": "owner",
      "outputs": [
        {
          "internalType": "address",
          "name": "",
          "type": "address"
        }
      ],
      "stateMutability": "view",
      "type": "function"
    },
    {
      "inputs": [],
      "name": "pyth",
      "outputs": [
        {
          "internalType": "contract IPyth",
          "name": "",
          "type": "address"
        }
      ],
      "stateMutability": "view",
      "type": "function"
    },
    {
      "inputs": [],
      "name": "renounceOwnership",
      "outputs": [],
      "stateMutability": "nonpayable",
      "type": "function"
    },
    {
      "inputs": [
        {
          "internalType": "uint256",
          "name": "tokenAmount",
          "type": "uint256"
        },
        {
          "internalType": "bytes[]",
          "name": "priceUpdate",
          "type": "bytes[]"
        }
      ],
      "name": "sellToken",
      "outputs": [],
      "stateMutability": "payable",
      "type": "function"
    },
    {
      "inputs": [],
      "name": "symbol",
      "outputs": [
        {
          "internalType": "string",
          "name": "",
          "type": "string"
        }
      ],
      "stateMutability": "view",
      "type": "function"
    },
    {
      "inputs": [
        {
          "components": [
            {
              "internalType": "int64",
              "name": "price",
              "type": "int64"
            },
            {
              "internalType": "uint64",
              "name": "conf",
              "type": "uint64"
            },
            {
              "internalType": "int32",
              "name": "expo",
              "type": "int32"
            },
            {
              "internalType": "uint256",
              "name": "publishTime",
              "type": "uint256"
            }
          ],
          "internalType": "struct PythStructs.Price",
          "name": "p",
          "type": "tuple"
        }
      ],
      "name": "testNormalizePrice",
      "outputs": [
        {
          "internalType": "uint256",
          "name": "",
          "type": "uint256"
        }
      ],
      "stateMutability": "pure",
      "type": "function"
    },
    {
      "inputs": [],
      "name": "totalSupply",
      "outputs": [
        {
          "internalType": "uint256",
          "name": "",
          "type": "uint256"
        }
      ],
      "stateMutability": "view",
      "type": "function"
    },
    {
      "inputs": [
        {
          "internalType": "address",
          "name": "to",
          "type": "address"
        },
        {
          "internalType": "uint256",
          "name": "value",
          "type": "uint256"
        }
      ],
      "name": "transfer",
      "outputs": [
        {
          "internalType": "bool",
          "name": "",
          "type": "bool"
        }
      ],
      "stateMutability": "nonpayable",
      "type": "function"
    },
    {
      "inputs": [
        {
          "internalType": "address",
          "name": "from",
          "type": "address"
        },
        {
          "internalType": "address",
          "name": "to",
          "type": "address"
        },
        {
          "internalType": "uint256",
          "name": "value",
          "type": "uint256"
        }
      ],
      "name": "transferFrom",
      "outputs": [
        {
          "internalType": "bool",
          "name": "",
          "type": "bool"
        }
      ],
      "stateMutability": "nonpayable",
      "type": "function"
    },
    {
      "inputs": [
        {
          "internalType": "address",
          "name": "newOwner",
          "type": "address"
        }
      ],
      "name": "transferOwnership",
      "outputs": [],
      "stateMutability": "nonpayable",
      "type": "function"
    },
    {
      "stateMutability": "payable",
      "type": "receive"
    }
  ],
  "bytecode": "0x6080604052604051613317380380613317833981810160405281019061002591906102e9565b336040518060400160405280600e81526020017f4d6963726f736f6674546f6b656e0000000000000000000000000000000000008152506040518060400160405280600581526020017f504d53465400000000000000000000000000000000000000000000000000000081525081600390816100a19190610566565b5080600490816100b19190610566565b505050600073ffffffffffffffffffffffffffffffffffffffff168173ffffffffffffffffffffffffffffffffffffffff16036101265760006040517f1e4fbdf700000000000000000000000000000000000000000000000000000000815260040161011d9190610647565b60405180910390fd5b610135816101c060201b60201c565b5060003411610179576040517f08c379a0000000000000000000000000000000000000000000000000000000008152600401610170906106bf565b60405180910390fd5b80600660006101000a81548173ffffffffffffffffffffffffffffffffffffffff021916908373ffffffffffffffffffffffffffffffffffffffff160217905550506106df565b6000600560009054906101000a900473ffffffffffffffffffffffffffffffffffffffff16905081600560006101000a81548173ffffffffffffffffffffffffffffffffffffffff021916908373ffffffffffffffffffffffffffffffffffffffff1602179055508173ffffffffffffffffffffffffffffffffffffffff168173ffffffffffffffffffffffffffffffffffffffff167f8be0079c531659141344cd1fd0a4f28419497f9722a3daafe3b4186f6b6457e060405160405180910390a35050565b600080fd5b600073ffffffffffffffffffffffffffffffffffffffff82169050919050565b60006102b68261028b565b9050919050565b6102c6816102ab565b81146102d157600080fd5b50565b6000815190506102e3816102bd565b92915050565b6000602082840312156102ff576102fe610286565b5b600061030d848285016102d4565b91505092915050565b600081519050919050565b7f4e487b7100000000000000000000000000000000000000000000000000000000600052604160045260246000fd5b7f4e487b7100000000000000000000000000000000000000000000000000000000600052602260045260246000fd5b6000600282049050600182168061039757607f821691505b6020821081036103aa576103a9610350565b5b50919050565b60008190508160005260206000209050919050565b60006020601f8301049050919050565b600082821b905092915050565b6000600883026104127fffffffffffffffffffffffffffffffffffffffffffffffffffffffffffffffff826103d5565b61041c86836103d5565b95508019841693508086168417925050509392505050565b6000819050919050565b6000819050919050565b600061046361045e61045984610434565b61043e565b610434565b9050919050565b6000819050919050565b61047d83610448565b6104916104898261046a565b8484546103e2565b825550505050565b600090565b6104a6610499565b6104b1818484610474565b505050565b5b818110156104d5576104ca60008261049e565b6001810190506104b7565b5050565b601f82111561051a576104eb816103b0565b6104f4846103c5565b81016020851015610503578190505b61051761050f856103c5565b8301826104b6565b50505b505050565b600082821c905092915050565b600061053d6000198460080261051f565b1980831691505092915050565b6000610556838361052c565b9150826002028217905092915050565b61056f82610316565b67ffffffffffffffff81111561058857610587610321565b5b610592825461037f565b61059d8282856104d9565b600060209050601f8311600181146105d057600084156105be578287015190505b6105c8858261054a565b865550610630565b601f1984166105de866103b0565b60005b82811015610606578489015182556001820191506020850194506020810190506105e1565b86831015610623578489015161061f601f89168261052c565b8355505b6001600288020188555050505b505050505050565b610641816102ab565b82525050565b600060208201905061065c6000830184610638565b92915050565b600082825260208201905092915050565b7f4d75737420696e697469616c697a6520776974682045544820706f6f6c000000600082015250565b60006106a9601d83610662565b91506106b482610673565b602082019050919050565b600060208201905081810360008301526106d88161069c565b9050919050565b612c29806106ee6000396000f3fe6080604052600436106101185760003560e01c806395d89b41116100a0578063dd151c0611610064578063dd151c0614610394578063dd62ed3e146103bf578063dfc5b44c146103fc578063f2fde38b14610418578063f98d06f0146104415761011f565b806395d89b41146102a8578063966a6709146102d3578063a9059cbb146102fe578063d9540b771461033b578063d99da284146103785761011f565b80632a343709116100e75780632a343709146101f4578063313ce567146101fe57806370a0823114610229578063715018a6146102665780638da5cb5b1461027d5761011f565b806306fdde0314610124578063095ea7b31461014f57806318160ddd1461018c57806323b872dd146101b75761011f565b3661011f57005b600080fd5b34801561013057600080fd5b5061013961046c565b6040516101469190611b08565b60405180910390f35b34801561015b57600080fd5b5061017660048036038101906101719190611bd2565b6104fe565b6040516101839190611c2d565b60405180910390f35b34801561019857600080fd5b506101a1610521565b6040516101ae9190611c57565b60405180910390f35b3480156101c357600080fd5b506101de60048036038101906101d99190611c72565b61052b565b6040516101eb9190611c2d565b60405180910390f35b6101fc61055a565b005b34801561020a57600080fd5b5061021361059f565b6040516102209190611ce1565b60405180910390f35b34801561023557600080fd5b50610250600480360381019061024b9190611cfc565b6105a8565b60405161025d9190611c57565b60405180910390f35b34801561027257600080fd5b5061027b6105f0565b005b34801561028957600080fd5b50610292610604565b60405161029f9190611d38565b60405180910390f35b3480156102b457600080fd5b506102bd61062e565b6040516102ca9190611b08565b60405180910390f35b3480156102df57600080fd5b506102e86106c0565b6040516102f59190611d6c565b60405180910390f35b34801561030a57600080fd5b5061032560048036038101906103209190611bd2565b6106e7565b6040516103329190611c2d565b60405180910390f35b34801561034757600080fd5b50610362600480360381019061035d9190611f31565b61070a565b60405161036f9190611c57565b60405180910390f35b610392600480360381019061038d9190611fc3565b61071c565b005b3480156103a057600080fd5b506103a9610c11565b6040516103b69190611d6c565b60405180910390f35b3480156103cb57600080fd5b506103e660048036038101906103e19190612023565b610c38565b6040516103f39190611c57565b60405180910390f35b61041660048036038101906104119190612063565b610cbf565b005b34801561042457600080fd5b5061043f600480360381019061043a9190611cfc565b611088565b005b34801561044d57600080fd5b5061045661110e565b604051610463919061210f565b60405180910390f35b60606003805461047b90612159565b80601f01602080910402602001604051908101604052809291908181526020018280546104a790612159565b80156104f45780601f106104c9576101008083540402835291602001916104f4565b820191906000526020600020905b8154815290600101906020018083116104d757829003601f168201915b5050505050905090565b600080610509611134565b905061051681858561113c565b600191505092915050565b6000600254905090565b600080610536611134565b905061054385828561114e565b61054e8585856111e3565b60019150509392505050565b6000341161059d576040517f08c379a0000000000000000000000000000000000000000000000000000000008152600401610594906121d6565b60405180910390fd5b565b60006012905090565b60008060008373ffffffffffffffffffffffffffffffffffffffff1673ffffffffffffffffffffffffffffffffffffffff168152602001908152602001600020549050919050565b6105f86112d7565b610602600061135e565b565b6000600560009054906101000a900473ffffffffffffffffffffffffffffffffffffffff16905090565b60606004805461063d90612159565b80601f016020809104026020016040519081016040528092919081815260200182805461066990612159565b80156106b65780601f1061068b576101008083540402835291602001916106b6565b820191906000526020600020905b81548152906001019060200180831161069957829003601f168201915b5050505050905090565b7fff61491a931112ddf1bd8147cd1b641375f79f5825126d665480874634fd0ace60001b81565b6000806106f2611134565b90506106ff8185856111e3565b600191505092915050565b600061071582611424565b9050919050565b6000831161075f576040517f08c379a000000000000000000000000000000000000000000000000000000000815260040161075690612242565b60405180910390fd5b82610769336105a8565b10156107aa576040517f08c379a00000000000000000000000000000000000000000000000000000000081526004016107a1906122ae565b60405180910390fd5b6000600660009054906101000a900473ffffffffffffffffffffffffffffffffffffffff1673ffffffffffffffffffffffffffffffffffffffff1663d47eed4584846040518363ffffffff1660e01b8152600401610809929190612441565b602060405180830381865afa158015610826573d6000803e3d6000fd5b505050506040513d601f19601f8201168201806040525081019061084a919061247a565b90508034101561088f576040517f08c379a0000000000000000000000000000000000000000000000000000000008152600401610886906124f3565b60405180910390fd5b600660009054906101000a900473ffffffffffffffffffffffffffffffffffffffff1673ffffffffffffffffffffffffffffffffffffffff1663ef9e5e288285856040518463ffffffff1660e01b81526004016108ed929190612441565b6000604051808303818588803b15801561090657600080fd5b505af115801561091a573d6000803e3d6000fd5b50505050506000600660009054906101000a900473ffffffffffffffffffffffffffffffffffffffff1673ffffffffffffffffffffffffffffffffffffffff1663a4ae35e07fd0ca23c1cc005e004ccf1db5bf76aeb6a49218f43dac3d4b275e92de12ded4d160001b603c6040518363ffffffff1660e01b81526004016109a292919061254e565b608060405180830381865afa1580156109bf573d6000803e3d6000fd5b505050506040513d601f19601f820116820180604052508101906109e3919061262e565b90506000600660009054906101000a900473ffffffffffffffffffffffffffffffffffffffff1673ffffffffffffffffffffffffffffffffffffffff1663a4ae35e07fff61491a931112ddf1bd8147cd1b641375f79f5825126d665480874634fd0ace60001b603c6040518363ffffffff1660e01b8152600401610a6892919061254e565b608060405180830381865afa158015610a85573d6000803e3d6000fd5b505050506040513d601f19601f82011682018060405250810190610aa9919061262e565b90506000610ab683611424565b90506000610ac383611424565b9050600081670de0b6b3a764000084610adc919061268a565b610ae691906126fb565b90506000670de0b6b3a7640000828b610aff919061268a565b610b0991906126fb565b905080471015610b4e576040517f08c379a0000000000000000000000000000000000000000000000000000000008152600401610b4590612778565b60405180910390fd5b610b58338b611578565b60003373ffffffffffffffffffffffffffffffffffffffff1682604051610b7e906127c9565b60006040518083038185875af1925050503d8060008114610bbb576040519150601f19603f3d011682016040523d82523d6000602084013e610bc0565b606091505b5050905080610c04576040517f08c379a0000000000000000000000000000000000000000000000000000000008152600401610bfb9061282a565b60405180910390fd5b5050505050505050505050565b7fd0ca23c1cc005e004ccf1db5bf76aeb6a49218f43dac3d4b275e92de12ded4d160001b81565b6000600160008473ffffffffffffffffffffffffffffffffffffffff1673ffffffffffffffffffffffffffffffffffffffff16815260200190815260200160002060008373ffffffffffffffffffffffffffffffffffffffff1673ffffffffffffffffffffffffffffffffffffffff16815260200190815260200160002054905092915050565b60003411610d02576040517f08c379a0000000000000000000000000000000000000000000000000000000008152600401610cf990612896565b60405180910390fd5b6000600660009054906101000a900473ffffffffffffffffffffffffffffffffffffffff1673ffffffffffffffffffffffffffffffffffffffff1663d47eed4584846040518363ffffffff1660e01b8152600401610d61929190612441565b602060405180830381865afa158015610d7e573d6000803e3d6000fd5b505050506040513d601f19601f82011682018060405250810190610da2919061247a565b9050803411610de6576040517f08c379a0000000000000000000000000000000000000000000000000000000008152600401610ddd90612902565b60405180910390fd5b600660009054906101000a900473ffffffffffffffffffffffffffffffffffffffff1673ffffffffffffffffffffffffffffffffffffffff1663ef9e5e288285856040518463ffffffff1660e01b8152600401610e44929190612441565b6000604051808303818588803b158015610e5d57600080fd5b505af1158015610e71573d6000803e3d6000fd5b50505050506000600660009054906101000a900473ffffffffffffffffffffffffffffffffffffffff1673ffffffffffffffffffffffffffffffffffffffff1663a4ae35e07fd0ca23c1cc005e004ccf1db5bf76aeb6a49218f43dac3d4b275e92de12ded4d160001b603c6040518363ffffffff1660e01b8152600401610ef992919061254e565b608060405180830381865afa158015610f16573d6000803e3d6000fd5b505050506040513d601f19601f82011682018060405250810190610f3a919061262e565b90506000600660009054906101000a900473ffffffffffffffffffffffffffffffffffffffff1673ffffffffffffffffffffffffffffffffffffffff1663a4ae35e07fff61491a931112ddf1bd8147cd1b641375f79f5825126d665480874634fd0ace60001b603c6040518363ffffffff1660e01b8152600401610fbf92919061254e565b608060405180830381865afa158015610fdc573d6000803e3d6000fd5b505050506040513d601f19601f82011682018060405250810190611000919061262e565b9050600061100d83611424565b9050600061101a83611424565b9050600081670de0b6b3a764000084611033919061268a565b61103d91906126fb565b90506000863461104d9190612922565b9050600082670de0b6b3a764000083611066919061268a565b61107091906126fb565b905061107c33826115fa565b50505050505050505050565b6110906112d7565b600073ffffffffffffffffffffffffffffffffffffffff168173ffffffffffffffffffffffffffffffffffffffff16036111025760006040517f1e4fbdf70000000000000000000000000000000000000000000000000000000081526004016110f99190611d38565b60405180910390fd5b61110b8161135e565b50565b600660009054906101000a900473ffffffffffffffffffffffffffffffffffffffff1681565b600033905090565b611149838383600161167c565b505050565b600061115a8484610c38565b90507fffffffffffffffffffffffffffffffffffffffffffffffffffffffffffffffff8110156111dd57818110156111cd578281836040517ffb8f41b20000000000000000000000000000000000000000000000000000000081526004016111c493929190612956565b60405180910390fd5b6111dc8484848403600061167c565b5b50505050565b600073ffffffffffffffffffffffffffffffffffffffff168373ffffffffffffffffffffffffffffffffffffffff16036112555760006040517f96c6fd1e00000000000000000000000000000000000000000000000000000000815260040161124c9190611d38565b60405180910390fd5b600073ffffffffffffffffffffffffffffffffffffffff168273ffffffffffffffffffffffffffffffffffffffff16036112c75760006040517fec442f050000000000000000000000000000000000000000000000000000000081526004016112be9190611d38565b60405180910390fd5b6112d2838383611853565b505050565b6112df611134565b73ffffffffffffffffffffffffffffffffffffffff166112fd610604565b73ffffffffffffffffffffffffffffffffffffffff161461135c57611320611134565b6040517f118cdaa70000000000000000000000000000000000000000000000000000000081526004016113539190611d38565b60405180910390fd5b565b6000600560009054906101000a900473ffffffffffffffffffffffffffffffffffffffff16905081600560006101000a81548173ffffffffffffffffffffffffffffffffffffffff021916908373ffffffffffffffffffffffffffffffffffffffff1602179055508173ffffffffffffffffffffffffffffffffffffffff168173ffffffffffffffffffffffffffffffffffffffff167f8be0079c531659141344cd1fd0a4f28419497f9722a3daafe3b4186f6b6457e060405160405180910390a35050565b600080826000015160070b1215611470576040517f08c379a0000000000000000000000000000000000000000000000000000000008152600401611467906129d9565b60405180910390fd5b6000826000015167ffffffffffffffff16905060008360400151905060008160030b121561150c576000816114a4906129f9565b63ffffffff169050601281116114dd578060126114c19190612922565b600a6114cd9190612b74565b836114d8919061268a565b611502565b6012816114ea9190612922565b600a6114f69190612b74565b8361150191906126fb565b5b9350505050611573565b60008163ffffffff169050601281116115485780601261152c9190612922565b600a6115389190612b74565b83611543919061268a565b61156d565b6012816115559190612922565b600a6115619190612b74565b8361156c91906126fb565b5b93505050505b919050565b600073ffffffffffffffffffffffffffffffffffffffff168273ffffffffffffffffffffffffffffffffffffffff16036115ea5760006040517f96c6fd1e0000000000000000000000000000000000000000000000000000000081526004016115e19190611d38565b60405180910390fd5b6115f682600083611853565b5050565b600073ffffffffffffffffffffffffffffffffffffffff168273ffffffffffffffffffffffffffffffffffffffff160361166c5760006040517fec442f050000000000000000000000000000000000000000000000000000000081526004016116639190611d38565b60405180910390fd5b61167860008383611853565b5050565b600073ffffffffffffffffffffffffffffffffffffffff168473ffffffffffffffffffffffffffffffffffffffff16036116ee5760006040517fe602df050000000000000000000000000000000000000000000000000000000081526004016116e59190611d38565b60405180910390fd5b600073ffffffffffffffffffffffffffffffffffffffff168373ffffffffffffffffffffffffffffffffffffffff16036117605760006040517f94280d620000000000000000000000000000000000000000000000000000000081526004016117579190611d38565b60405180910390fd5b81600160008673ffffffffffffffffffffffffffffffffffffffff1673ffffffffffffffffffffffffffffffffffffffff16815260200190815260200160002060008573ffffffffffffffffffffffffffffffffffffffff1673ffffffffffffffffffffffffffffffffffffffff16815260200190815260200160002081905550801561184d578273ffffffffffffffffffffffffffffffffffffffff168473ffffffffffffffffffffffffffffffffffffffff167f8c5be1e5ebec7d5bd14f71427d1e84f3dd0314c0f7b2291e5b200ac8c7c3b925846040516118449190611c57565b60405180910390a35b50505050565b600073ffffffffffffffffffffffffffffffffffffffff168373ffffffffffffffffffffffffffffffffffffffff16036118a55780600260008282546118999190612bbf565b92505081905550611978565b60008060008573ffffffffffffffffffffffffffffffffffffffff1673ffffffffffffffffffffffffffffffffffffffff16815260200190815260200160002054905081811015611931578381836040517fe450d38c00000000000000000000000000000000000000000000000000000000815260040161192893929190612956565b60405180910390fd5b8181036000808673ffffffffffffffffffffffffffffffffffffffff1673ffffffffffffffffffffffffffffffffffffffff16815260200190815260200160002081905550505b600073ffffffffffffffffffffffffffffffffffffffff168273ffffffffffffffffffffffffffffffffffffffff16036119c15780600260008282540392505081905550611a0e565b806000808473ffffffffffffffffffffffffffffffffffffffff1673ffffffffffffffffffffffffffffffffffffffff168152602001908152602001600020600082825401925050819055505b8173ffffffffffffffffffffffffffffffffffffffff168373ffffffffffffffffffffffffffffffffffffffff167fddf252ad1be2c89b69c2b068fc378daa952ba7f163c4a11628f55a4df523b3ef83604051611a6b9190611c57565b60405180910390a3505050565b600081519050919050565b600082825260208201905092915050565b60005b83811015611ab2578082015181840152602081019050611a97565b60008484015250505050565b6000601f19601f8301169050919050565b6000611ada82611a78565b611ae48185611a83565b9350611af4818560208601611a94565b611afd81611abe565b840191505092915050565b60006020820190508181036000830152611b228184611acf565b905092915050565b6000604051905090565b600080fd5b600080fd5b600073ffffffffffffffffffffffffffffffffffffffff82169050919050565b6000611b6982611b3e565b9050919050565b611b7981611b5e565b8114611b8457600080fd5b50565b600081359050611b9681611b70565b92915050565b6000819050919050565b611baf81611b9c565b8114611bba57600080fd5b50565b600081359050611bcc81611ba6565b92915050565b60008060408385031215611be957611be8611b34565b5b6000611bf785828601611b87565b9250506020611c0885828601611bbd565b9150509250929050565b60008115159050919050565b611c2781611c12565b82525050565b6000602082019050611c426000830184611c1e565b92915050565b611c5181611b9c565b82525050565b6000602082019050611c6c6000830184611c48565b92915050565b600080600060608486031215611c8b57611c8a611b34565b5b6000611c9986828701611b87565b9350506020611caa86828701611b87565b9250506040611cbb86828701611bbd565b9150509250925092565b600060ff82169050919050565b611cdb81611cc5565b82525050565b6000602082019050611cf66000830184611cd2565b92915050565b600060208284031215611d1257611d11611b34565b5b6000611d2084828501611b87565b91505092915050565b611d3281611b5e565b82525050565b6000602082019050611d4d6000830184611d29565b92915050565b6000819050919050565b611d6681611d53565b82525050565b6000602082019050611d816000830184611d5d565b92915050565b600080fd5b7f4e487b7100000000000000000000000000000000000000000000000000000000600052604160045260246000fd5b611dc482611abe565b810181811067ffffffffffffffff82111715611de357611de2611d8c565b5b80604052505050565b6000611df6611b2a565b9050611e028282611dbb565b919050565b60008160070b9050919050565b611e1d81611e07565b8114611e2857600080fd5b50565b600081359050611e3a81611e14565b92915050565b600067ffffffffffffffff82169050919050565b611e5d81611e40565b8114611e6857600080fd5b50565b600081359050611e7a81611e54565b92915050565b60008160030b9050919050565b611e9681611e80565b8114611ea157600080fd5b50565b600081359050611eb381611e8d565b92915050565b600060808284031215611ecf57611ece611d87565b5b611ed96080611dec565b90506000611ee984828501611e2b565b6000830152506020611efd84828501611e6b565b6020830152506040611f1184828501611ea4565b6040830152506060611f2584828501611bbd565b60608301525092915050565b600060808284031215611f4757611f46611b34565b5b6000611f5584828501611eb9565b91505092915050565b600080fd5b600080fd5b600080fd5b60008083601f840112611f8357611f82611f5e565b5b8235905067ffffffffffffffff811115611fa057611f9f611f63565b5b602083019150836020820283011115611fbc57611fbb611f68565b5b9250929050565b600080600060408486031215611fdc57611fdb611b34565b5b6000611fea86828701611bbd565b935050602084013567ffffffffffffffff81111561200b5761200a611b39565b5b61201786828701611f6d565b92509250509250925092565b6000806040838503121561203a57612039611b34565b5b600061204885828601611b87565b925050602061205985828601611b87565b9150509250929050565b6000806020838503121561207a57612079611b34565b5b600083013567ffffffffffffffff81111561209857612097611b39565b5b6120a485828601611f6d565b92509250509250929050565b6000819050919050565b60006120d56120d06120cb84611b3e565b6120b0565b611b3e565b9050919050565b60006120e7826120ba565b9050919050565b60006120f9826120dc565b9050919050565b612109816120ee565b82525050565b60006020820190506121246000830184612100565b92915050565b7f4e487b7100000000000000000000000000000000000000000000000000000000600052602260045260246000fd5b6000600282049050600182168061217157607f821691505b6020821081036121845761218361212a565b5b50919050565b7f4d7573742073656e642045544800000000000000000000000000000000000000600082015250565b60006121c0600d83611a83565b91506121cb8261218a565b602082019050919050565b600060208201905081810360008301526121ef816121b3565b9050919050565b7f546f6b656e20616d6f756e74206d757374206265203e20300000000000000000600082015250565b600061222c601883611a83565b9150612237826121f6565b602082019050919050565b6000602082019050818103600083015261225b8161221f565b9050919050565b7f496e73756666696369656e7420746f6b656e2062616c616e6365000000000000600082015250565b6000612298601a83611a83565b91506122a382612262565b602082019050919050565b600060208201905081810360008301526122c78161228b565b9050919050565b600082825260208201905092915050565b6000819050919050565b600082825260208201905092915050565b82818337600083830152505050565b600061231583856122e9565b93506123228385846122fa565b61232b83611abe565b840190509392505050565b6000612343848484612309565b90509392505050565b600080fd5b600080fd5b600080fd5b6000808335600160200384360303811261237857612377612356565b5b83810192508235915060208301925067ffffffffffffffff8211156123a05761239f61234c565b5b6001820236038313156123b6576123b5612351565b5b509250929050565b6000602082019050919050565b60006123d783856122ce565b9350836020840285016123e9846122df565b8060005b8781101561242f578484038952612404828461235b565b61240f868284612336565b955061241a846123be565b935060208b019a5050506001810190506123ed565b50829750879450505050509392505050565b6000602082019050818103600083015261245c8184866123cb565b90509392505050565b60008151905061247481611ba6565b92915050565b6000602082840312156124905761248f611b34565b5b600061249e84828501612465565b91505092915050565b7f496e73756666696369656e74204554482073656e7420666f7220666565000000600082015250565b60006124dd601d83611a83565b91506124e8826124a7565b602082019050919050565b6000602082019050818103600083015261250c816124d0565b9050919050565b6000819050919050565b600061253861253361252e84612513565b6120b0565b611b9c565b9050919050565b6125488161251d565b82525050565b60006040820190506125636000830185611d5d565b612570602083018461253f565b9392505050565b60008151905061258681611e14565b92915050565b60008151905061259b81611e54565b92915050565b6000815190506125b081611e8d565b92915050565b6000608082840312156125cc576125cb611d87565b5b6125d66080611dec565b905060006125e684828501612577565b60008301525060206125fa8482850161258c565b602083015250604061260e848285016125a1565b604083015250606061262284828501612465565b60608301525092915050565b60006080828403121561264457612643611b34565b5b6000612652848285016125b6565b91505092915050565b7f4e487b7100000000000000000000000000000000000000000000000000000000600052601160045260246000fd5b600061269582611b9c565b91506126a083611b9c565b92508282026126ae81611b9c565b915082820484148315176126c5576126c461265b565b5b5092915050565b7f4e487b7100000000000000000000000000000000000000000000000000000000600052601260045260246000fd5b600061270682611b9c565b915061271183611b9c565b925082612721576127206126cc565b5b828204905092915050565b7f496e73756666696369656e74206c697175696469747900000000000000000000600082015250565b6000612762601683611a83565b915061276d8261272c565b602082019050919050565b6000602082019050818103600083015261279181612755565b9050919050565b600081905092915050565b50565b60006127b3600083612798565b91506127be826127a3565b600082019050919050565b60006127d4826127a6565b9150819050919050565b7f455448207472616e73666572206661696c656400000000000000000000000000600082015250565b6000612814601383611a83565b915061281f826127de565b602082019050919050565b6000602082019050818103600083015261284381612807565b9050919050565b7f53656e642045544820746f2062757920746f6b656e7300000000000000000000600082015250565b6000612880601683611a83565b915061288b8261284a565b602082019050919050565b600060208201905081810360008301526128af81612873565b9050919050565b7f496e73756666696369656e742045544820746f20636f76657220666565000000600082015250565b60006128ec601d83611a83565b91506128f7826128b6565b602082019050919050565b6000602082019050818103600083015261291b816128df565b9050919050565b600061292d82611b9c565b915061293883611b9c565b92508282039050818111156129505761294f61265b565b5b92915050565b600060608201905061296b6000830186611d29565b6129786020830185611c48565b6129856040830184611c48565b949350505050565b7f4e65676174697665207072696365206e6f7420737570706f7274656400000000600082015250565b60006129c3601c83611a83565b91506129ce8261298d565b602082019050919050565b600060208201905081810360008301526129f2816129b6565b9050919050565b6000612a0482611e80565b91507fffffffffffffffffffffffffffffffffffffffffffffffffffffffff800000008203612a3657612a3561265b565b5b816000039050919050565b60008160011c9050919050565b6000808291508390505b6001851115612a9857808604811115612a7457612a7361265b565b5b6001851615612a835780820291505b8081029050612a9185612a41565b9450612a58565b94509492505050565b600082612ab15760019050612b6d565b81612abf5760009050612b6d565b8160018114612ad55760028114612adf57612b0e565b6001915050612b6d565b60ff841115612af157612af061265b565b5b8360020a915084821115612b0857612b0761265b565b5b50612b6d565b5060208310610133831016604e8410600b8410161715612b435782820a905083811115612b3e57612b3d61265b565b5b612b6d565b612b508484846001612a4e565b92509050818404811115612b6757612b6661265b565b5b81810290505b9392505050565b6000612b7f82611b9c565b9150612b8a83611b9c565b9250612bb77fffffffffffffffffffffffffffffffffffffffffffffffffffffffffffffffff8484612aa1565b905092915050565b6000612bca82611b9c565b9150612bd583611b9c565b9250828201905080821115612bed57612bec61265b565b5b9291505056fea2646970667358221220c006fcdde9e1fa73f87e367d1acd1d27c9fba13045515b0b4796cb821ca2ee0f64736f6c634300081c0033",
  "linkReferences": {},
  "deployedLinkReferences": {}
}